{
	"contracts/Contract.sol": {
		"MyExternalContract": {
			"abi": [
				{
					"inputs": [],
					"name": "readData",
					"outputs": [
						{
							"internalType": "uint256",
							"name": "",
							"type": "uint256"
						}
					],
					"stateMutability": "nonpayable",
					"type": "function"
				}
			],
			"devdoc": {
				"kind": "dev",
				"methods": {},
				"version": 1
			},
			"evm": {
				"assembly": "    /* \"contracts/Contract.sol\":595:782  contract MyExternalContract {... */\n  mstore(0x40, 0x80)\n  callvalue\n  dup1\n  iszero\n  tag_1\n  jumpi\n  0x00\n  dup1\n  revert\ntag_1:\n  pop\n  dataSize(sub_0)\n  dup1\n  dataOffset(sub_0)\n  0x00\n  codecopy\n  0x00\n  return\nstop\n\nsub_0: assembly {\n        /* \"contracts/Contract.sol\":595:782  contract MyExternalContract {... */\n      mstore(0x40, 0x80)\n      callvalue\n      dup1\n      iszero\n      tag_1\n      jumpi\n      0x00\n      dup1\n      revert\n    tag_1:\n      pop\n      jumpi(tag_2, lt(calldatasize, 0x04))\n      shr(0xe0, calldataload(0x00))\n      dup1\n      0xbef55ef3\n      eq\n      tag_3\n      jumpi\n    tag_2:\n      0x00\n      dup1\n      revert\n        /* \"contracts/Contract.sol\":629:780  function readData() public returns (uint) {... */\n    tag_3:\n      tag_4\n      tag_5\n      jump\t// in\n    tag_4:\n      mload(0x40)\n      tag_6\n      swap2\n      swap1\n      tag_7\n      jump\t// in\n    tag_6:\n      mload(0x40)\n      dup1\n      swap2\n      sub\n      swap1\n      return\n    tag_5:\n        /* \"contracts/Contract.sol\":665:669  uint */\n      0x00\n        /* \"contracts/Contract.sol\":681:697  ParentContract c */\n      dup1\n        /* \"contracts/Contract.sol\":700:720  new ParentContract() */\n      mload(0x40)\n      tag_9\n      swap1\n      tag_10\n      jump\t// in\n    tag_9:\n      mload(0x40)\n      dup1\n      swap2\n      sub\n      swap1\n      0x00\n      create\n      dup1\n      iszero\n      dup1\n      iszero\n      tag_11\n      jumpi\n      returndatasize\n      0x00\n      dup1\n      returndatacopy\n      revert(0x00, returndatasize)\n    tag_11:\n      pop\n        /* \"contracts/Contract.sol\":681:720  ParentContract c = new ParentContract() */\n      swap1\n      pop\n        /* \"contracts/Contract.sol\":730:731  c */\n      dup1\n        /* \"contracts/Contract.sol\":730:742  c.updateData */\n      0xffffffffffffffffffffffffffffffffffffffff\n      and\n      0x09e96008\n        /* \"contracts/Contract.sol\":743:744  7 */\n      0x07\n        /* \"contracts/Contract.sol\":730:745  c.updateData(7) */\n      mload(0x40)\n      dup3\n      0xffffffff\n      and\n      0xe0\n      shl\n      dup2\n      mstore\n      0x04\n      add\n      tag_12\n      swap2\n      swap1\n      tag_13\n      jump\t// in\n    tag_12:\n      0x00\n      mload(0x40)\n      dup1\n      dup4\n      sub\n      dup2\n      0x00\n      dup8\n      dup1\n      extcodesize\n      iszero\n      dup1\n      iszero\n      tag_14\n      jumpi\n      0x00\n      dup1\n      revert\n    tag_14:\n      pop\n      gas\n      call\n      iszero\n      dup1\n      iszero\n      tag_16\n      jumpi\n      returndatasize\n      0x00\n      dup1\n      returndatacopy\n      revert(0x00, returndatasize)\n    tag_16:\n      pop\n      pop\n      pop\n      pop\n        /* \"contracts/Contract.sol\":762:763  c */\n      dup1\n        /* \"contracts/Contract.sol\":762:771  c.getData */\n      0xffffffffffffffffffffffffffffffffffffffff\n      and\n      0x3bc5de30\n        /* \"contracts/Contract.sol\":762:773  c.getData() */\n      mload(0x40)\n      dup2\n      0xffffffff\n      and\n      0xe0\n      shl\n      dup2\n      mstore\n      0x04\n      add\n      0x20\n      mload(0x40)\n      dup1\n      dup4\n      sub\n      dup2\n      dup7\n      gas\n      staticcall\n      iszero\n      dup1\n      iszero\n      tag_18\n      jumpi\n      returndatasize\n      0x00\n      dup1\n      returndatacopy\n      revert(0x00, returndatasize)\n    tag_18:\n      pop\n      pop\n      pop\n      pop\n      mload(0x40)\n      returndatasize\n      not(0x1f)\n      0x1f\n      dup3\n      add\n      and\n      dup3\n      add\n      dup1\n      0x40\n      mstore\n      pop\n      dup2\n      add\n      swap1\n      tag_19\n      swap2\n      swap1\n      tag_20\n      jump\t// in\n    tag_19:\n        /* \"contracts/Contract.sol\":755:773  return c.getData() */\n      swap2\n      pop\n      pop\n        /* \"contracts/Contract.sol\":629:780  function readData() public returns (uint) {... */\n      swap1\n      jump\t// out\n    tag_10:\n      dataSize(sub_0)\n      dup1\n      dataOffset(sub_0)\n      dup4\n      codecopy\n      add\n      swap1\n      jump\t// out\n        /* \"#utility.yul\":7:84   */\n    tag_21:\n        /* \"#utility.yul\":44:51   */\n      0x00\n        /* \"#utility.yul\":73:78   */\n      dup2\n        /* \"#utility.yul\":62:78   */\n      swap1\n      pop\n        /* \"#utility.yul\":7:84   */\n      swap2\n      swap1\n      pop\n      jump\t// out\n        /* \"#utility.yul\":90:208   */\n    tag_22:\n        /* \"#utility.yul\":177:201   */\n      tag_35\n        /* \"#utility.yul\":195:200   */\n      dup2\n        /* \"#utility.yul\":177:201   */\n      tag_21\n      jump\t// in\n    tag_35:\n        /* \"#utility.yul\":172:175   */\n      dup3\n        /* \"#utility.yul\":165:202   */\n      mstore\n        /* \"#utility.yul\":90:208   */\n      pop\n      pop\n      jump\t// out\n        /* \"#utility.yul\":214:436   */\n    tag_7:\n        /* \"#utility.yul\":307:311   */\n      0x00\n        /* \"#utility.yul\":345:347   */\n      0x20\n        /* \"#utility.yul\":334:343   */\n      dup3\n        /* \"#utility.yul\":330:348   */\n      add\n        /* \"#utility.yul\":322:348   */\n      swap1\n      pop\n        /* \"#utility.yul\":358:429   */\n      tag_37\n        /* \"#utility.yul\":426:427   */\n      0x00\n        /* \"#utility.yul\":415:424   */\n      dup4\n        /* \"#utility.yul\":411:428   */\n      add\n        /* \"#utility.yul\":402:408   */\n      dup5\n        /* \"#utility.yul\":358:429   */\n      tag_22\n      jump\t// in\n    tag_37:\n        /* \"#utility.yul\":214:436   */\n      swap3\n      swap2\n      pop\n      pop\n      jump\t// out\n        /* \"#utility.yul\":442:527   */\n    tag_23:\n        /* \"#utility.yul\":487:494   */\n      0x00\n        /* \"#utility.yul\":516:521   */\n      dup2\n        /* \"#utility.yul\":505:521   */\n      swap1\n      pop\n        /* \"#utility.yul\":442:527   */\n      swap2\n      swap1\n      pop\n      jump\t// out\n        /* \"#utility.yul\":533:593   */\n    tag_24:\n        /* \"#utility.yul\":561:564   */\n      0x00\n        /* \"#utility.yul\":582:587   */\n      dup2\n        /* \"#utility.yul\":575:587   */\n      swap1\n      pop\n        /* \"#utility.yul\":533:593   */\n      swap2\n      swap1\n      pop\n      jump\t// out\n        /* \"#utility.yul\":599:757   */\n    tag_25:\n        /* \"#utility.yul\":657:666   */\n      0x00\n        /* \"#utility.yul\":690:751   */\n      tag_41\n        /* \"#utility.yul\":708:750   */\n      tag_42\n        /* \"#utility.yul\":717:749   */\n      tag_43\n        /* \"#utility.yul\":743:748   */\n      dup5\n        /* \"#utility.yul\":717:749   */\n      tag_23\n      jump\t// in\n    tag_43:\n        /* \"#utility.yul\":708:750   */\n      tag_24\n      jump\t// in\n    tag_42:\n        /* \"#utility.yul\":690:751   */\n      tag_21\n      jump\t// in\n    tag_41:\n        /* \"#utility.yul\":677:751   */\n      swap1\n      pop\n        /* \"#utility.yul\":599:757   */\n      swap2\n      swap1\n      pop\n      jump\t// out\n        /* \"#utility.yul\":763:910   */\n    tag_26:\n        /* \"#utility.yul\":858:903   */\n      tag_45\n        /* \"#utility.yul\":897:902   */\n      dup2\n        /* \"#utility.yul\":858:903   */\n      tag_25\n      jump\t// in\n    tag_45:\n        /* \"#utility.yul\":853:856   */\n      dup3\n        /* \"#utility.yul\":846:904   */\n      mstore\n        /* \"#utility.yul\":763:910   */\n      pop\n      pop\n      jump\t// out\n        /* \"#utility.yul\":916:1154   */\n    tag_13:\n        /* \"#utility.yul\":1017:1021   */\n      0x00\n        /* \"#utility.yul\":1055:1057   */\n      0x20\n        /* \"#utility.yul\":1044:1053   */\n      dup3\n        /* \"#utility.yul\":1040:1058   */\n      add\n        /* \"#utility.yul\":1032:1058   */\n      swap1\n      pop\n        /* \"#utility.yul\":1068:1147   */\n      tag_47\n        /* \"#utility.yul\":1144:1145   */\n      0x00\n        /* \"#utility.yul\":1133:1142   */\n      dup4\n        /* \"#utility.yul\":1129:1146   */\n      add\n        /* \"#utility.yul\":1120:1126   */\n      dup5\n        /* \"#utility.yul\":1068:1147   */\n      tag_26\n      jump\t// in\n    tag_47:\n        /* \"#utility.yul\":916:1154   */\n      swap3\n      swap2\n      pop\n      pop\n      jump\t// out\n        /* \"#utility.yul\":1241:1358   */\n    tag_28:\n        /* \"#utility.yul\":1350:1351   */\n      0x00\n        /* \"#utility.yul\":1347:1348   */\n      dup1\n        /* \"#utility.yul\":1340:1352   */\n      revert\n        /* \"#utility.yul\":1487:1609   */\n    tag_30:\n        /* \"#utility.yul\":1560:1584   */\n      tag_52\n        /* \"#utility.yul\":1578:1583   */\n      dup2\n        /* \"#utility.yul\":1560:1584   */\n      tag_21\n      jump\t// in\n    tag_52:\n        /* \"#utility.yul\":1553:1558   */\n      dup2\n        /* \"#utility.yul\":1550:1585   */\n      eq\n        /* \"#utility.yul\":1540:1603   */\n      tag_53\n      jumpi\n        /* \"#utility.yul\":1599:1600   */\n      0x00\n        /* \"#utility.yul\":1596:1597   */\n      dup1\n        /* \"#utility.yul\":1589:1601   */\n      revert\n        /* \"#utility.yul\":1540:1603   */\n    tag_53:\n        /* \"#utility.yul\":1487:1609   */\n      pop\n      jump\t// out\n        /* \"#utility.yul\":1615:1758   */\n    tag_31:\n        /* \"#utility.yul\":1672:1677   */\n      0x00\n        /* \"#utility.yul\":1703:1709   */\n      dup2\n        /* \"#utility.yul\":1697:1710   */\n      mload\n        /* \"#utility.yul\":1688:1710   */\n      swap1\n      pop\n        /* \"#utility.yul\":1719:1752   */\n      tag_55\n        /* \"#utility.yul\":1746:1751   */\n      dup2\n        /* \"#utility.yul\":1719:1752   */\n      tag_30\n      jump\t// in\n    tag_55:\n        /* \"#utility.yul\":1615:1758   */\n      swap3\n      swap2\n      pop\n      pop\n      jump\t// out\n        /* \"#utility.yul\":1764:2115   */\n    tag_20:\n        /* \"#utility.yul\":1834:1840   */\n      0x00\n        /* \"#utility.yul\":1883:1885   */\n      0x20\n        /* \"#utility.yul\":1871:1880   */\n      dup3\n        /* \"#utility.yul\":1862:1869   */\n      dup5\n        /* \"#utility.yul\":1858:1881   */\n      sub\n        /* \"#utility.yul\":1854:1886   */\n      slt\n        /* \"#utility.yul\":1851:1970   */\n      iszero\n      tag_57\n      jumpi\n        /* \"#utility.yul\":1889:1968   */\n      tag_58\n      tag_28\n      jump\t// in\n    tag_58:\n        /* \"#utility.yul\":1851:1970   */\n    tag_57:\n        /* \"#utility.yul\":2009:2010   */\n      0x00\n        /* \"#utility.yul\":2034:2098   */\n      tag_59\n        /* \"#utility.yul\":2090:2097   */\n      dup5\n        /* \"#utility.yul\":2081:2087   */\n      dup3\n        /* \"#utility.yul\":2070:2079   */\n      dup6\n        /* \"#utility.yul\":2066:2088   */\n      add\n        /* \"#utility.yul\":2034:2098   */\n      tag_31\n      jump\t// in\n    tag_59:\n        /* \"#utility.yul\":2024:2098   */\n      swap2\n      pop\n        /* \"#utility.yul\":1980:2108   */\n      pop\n        /* \"#utility.yul\":1764:2115   */\n      swap3\n      swap2\n      pop\n      pop\n      jump\t// out\n    stop\n\n    sub_0: assembly {\n            /* \"contracts/Contract.sol\":33:571  contract ParentContract {... */\n          mstore(0x40, 0x80)\n            /* \"contracts/Contract.sol\":108:147  constructor(){... */\n          callvalue\n          dup1\n          iszero\n          tag_1\n          jumpi\n          0x00\n          dup1\n          revert\n        tag_1:\n          pop\n            /* \"contracts/Contract.sol\":138:140  10 */\n          0x0a\n            /* \"contracts/Contract.sol\":131:135  info */\n          0x01\n            /* \"contracts/Contract.sol\":131:140  info = 10 */\n          dup2\n          swap1\n          sstore\n          pop\n            /* \"contracts/Contract.sol\":33:571  contract ParentContract {... */\n          dataSize(sub_0)\n          dup1\n          dataOffset(sub_0)\n          0x00\n          codecopy\n          0x00\n          return\n        stop\n\n        sub_0: assembly {\n                /* \"contracts/Contract.sol\":33:571  contract ParentContract {... */\n              mstore(0x40, 0x80)\n              callvalue\n              dup1\n              iszero\n              tag_1\n              jumpi\n              0x00\n              dup1\n              revert\n            tag_1:\n              pop\n              jumpi(tag_2, lt(calldatasize, 0x04))\n              shr(0xe0, calldataload(0x00))\n              dup1\n              0x09e96008\n              eq\n              tag_3\n              jumpi\n              dup1\n              0x370158ea\n              eq\n              tag_4\n              jumpi\n              dup1\n              0x3bc5de30\n              eq\n              tag_5\n              jumpi\n              dup1\n              0x8c747b6d\n              eq\n              tag_6\n              jumpi\n            tag_2:\n              0x00\n              dup1\n              revert\n                /* \"contracts/Contract.sol\":334:394  function updateData(uint a) public {... */\n            tag_3:\n              tag_7\n              0x04\n              dup1\n              calldatasize\n              sub\n              dup2\n              add\n              swap1\n              tag_8\n              swap2\n              swap1\n              tag_9\n              jump\t// in\n            tag_8:\n              tag_10\n              jump\t// in\n            tag_7:\n              stop\n                /* \"contracts/Contract.sol\":86:102  uint public info */\n            tag_4:\n              tag_11\n              tag_12\n              jump\t// in\n            tag_11:\n              mload(0x40)\n              tag_13\n              swap2\n              swap1\n              tag_14\n              jump\t// in\n            tag_13:\n              mload(0x40)\n              dup1\n              swap2\n              sub\n              swap1\n              return\n                /* \"contracts/Contract.sol\":400:474  function getData() public view returns (uint) {... */\n            tag_5:\n              tag_15\n              tag_16\n              jump\t// in\n            tag_15:\n              mload(0x40)\n              tag_17\n              swap2\n              swap1\n              tag_14\n              jump\t// in\n            tag_17:\n              mload(0x40)\n              dup1\n              swap2\n              sub\n              swap1\n              return\n                /* \"contracts/Contract.sol\":242:329  function setIncrement() public pure returns (uint) {... */\n            tag_6:\n              tag_18\n              tag_19\n              jump\t// in\n            tag_18:\n              mload(0x40)\n              tag_20\n              swap2\n              swap1\n              tag_14\n              jump\t// in\n            tag_20:\n              mload(0x40)\n              dup1\n              swap2\n              sub\n              swap1\n              return\n                /* \"contracts/Contract.sol\":334:394  function updateData(uint a) public {... */\n            tag_10:\n                /* \"contracts/Contract.sol\":386:387  a */\n              dup1\n                /* \"contracts/Contract.sol\":379:383  data */\n              0x00\n                /* \"contracts/Contract.sol\":379:387  data = a */\n              dup2\n              swap1\n              sstore\n              pop\n                /* \"contracts/Contract.sol\":334:394  function updateData(uint a) public {... */\n              pop\n              jump\t// out\n                /* \"contracts/Contract.sol\":86:102  uint public info */\n            tag_12:\n              sload(0x01)\n              dup2\n              jump\t// out\n                /* \"contracts/Contract.sol\":400:474  function getData() public view returns (uint) {... */\n            tag_16:\n                /* \"contracts/Contract.sol\":440:444  uint */\n              0x00\n                /* \"contracts/Contract.sol\":463:467  data */\n              dup1\n              sload\n                /* \"contracts/Contract.sol\":456:467  return data */\n              swap1\n              pop\n                /* \"contracts/Contract.sol\":400:474  function getData() public view returns (uint) {... */\n              swap1\n              jump\t// out\n                /* \"contracts/Contract.sol\":242:329  function setIncrement() public pure returns (uint) {... */\n            tag_19:\n                /* \"contracts/Contract.sol\":287:291  uint */\n              0x00\n                /* \"contracts/Contract.sol\":310:322  increment(2) */\n              tag_24\n                /* \"contracts/Contract.sol\":320:321  2 */\n              0x02\n                /* \"contracts/Contract.sol\":310:319  increment */\n              tag_25\n                /* \"contracts/Contract.sol\":310:322  increment(2) */\n              jump\t// in\n            tag_24:\n                /* \"contracts/Contract.sol\":303:322  return increment(2) */\n              swap1\n              pop\n                /* \"contracts/Contract.sol\":242:329  function setIncrement() public pure returns (uint) {... */\n              swap1\n              jump\t// out\n                /* \"contracts/Contract.sol\":153:237  function increment(uint a) private pure returns (uint) {... */\n            tag_25:\n                /* \"contracts/Contract.sol\":202:206  uint */\n              0x00\n                /* \"contracts/Contract.sol\":229:230  1 */\n              0x01\n                /* \"contracts/Contract.sol\":225:226  a */\n              dup3\n                /* \"contracts/Contract.sol\":225:230  a + 1 */\n              tag_27\n              swap2\n              swap1\n              tag_28\n              jump\t// in\n            tag_27:\n                /* \"contracts/Contract.sol\":218:230  return a + 1 */\n              swap1\n              pop\n                /* \"contracts/Contract.sol\":153:237  function increment(uint a) private pure returns (uint) {... */\n              swap2\n              swap1\n              pop\n              jump\t// out\n                /* \"#utility.yul\":88:205   */\n            tag_30:\n                /* \"#utility.yul\":197:198   */\n              0x00\n                /* \"#utility.yul\":194:195   */\n              dup1\n                /* \"#utility.yul\":187:199   */\n              revert\n                /* \"#utility.yul\":334:411   */\n            tag_32:\n                /* \"#utility.yul\":371:378   */\n              0x00\n                /* \"#utility.yul\":400:405   */\n              dup2\n                /* \"#utility.yul\":389:405   */\n              swap1\n              pop\n                /* \"#utility.yul\":334:411   */\n              swap2\n              swap1\n              pop\n              jump\t// out\n                /* \"#utility.yul\":417:539   */\n            tag_33:\n                /* \"#utility.yul\":490:514   */\n              tag_43\n                /* \"#utility.yul\":508:513   */\n              dup2\n                /* \"#utility.yul\":490:514   */\n              tag_32\n              jump\t// in\n            tag_43:\n                /* \"#utility.yul\":483:488   */\n              dup2\n                /* \"#utility.yul\":480:515   */\n              eq\n                /* \"#utility.yul\":470:533   */\n              tag_44\n              jumpi\n                /* \"#utility.yul\":529:530   */\n              0x00\n                /* \"#utility.yul\":526:527   */\n              dup1\n                /* \"#utility.yul\":519:531   */\n              revert\n                /* \"#utility.yul\":470:533   */\n            tag_44:\n                /* \"#utility.yul\":417:539   */\n              pop\n              jump\t// out\n                /* \"#utility.yul\":545:684   */\n            tag_34:\n                /* \"#utility.yul\":591:596   */\n              0x00\n                /* \"#utility.yul\":629:635   */\n              dup2\n                /* \"#utility.yul\":616:636   */\n              calldataload\n                /* \"#utility.yul\":607:636   */\n              swap1\n              pop\n                /* \"#utility.yul\":645:678   */\n              tag_46\n                /* \"#utility.yul\":672:677   */\n              dup2\n                /* \"#utility.yul\":645:678   */\n              tag_33\n              jump\t// in\n            tag_46:\n                /* \"#utility.yul\":545:684   */\n              swap3\n              swap2\n              pop\n              pop\n              jump\t// out\n                /* \"#utility.yul\":690:1019   */\n            tag_9:\n                /* \"#utility.yul\":749:755   */\n              0x00\n                /* \"#utility.yul\":798:800   */\n              0x20\n                /* \"#utility.yul\":786:795   */\n              dup3\n                /* \"#utility.yul\":777:784   */\n              dup5\n                /* \"#utility.yul\":773:796   */\n              sub\n                /* \"#utility.yul\":769:801   */\n              slt\n                /* \"#utility.yul\":766:885   */\n              iszero\n              tag_48\n              jumpi\n                /* \"#utility.yul\":804:883   */\n              tag_49\n              tag_30\n              jump\t// in\n            tag_49:\n                /* \"#utility.yul\":766:885   */\n            tag_48:\n                /* \"#utility.yul\":924:925   */\n              0x00\n                /* \"#utility.yul\":949:1002   */\n              tag_50\n                /* \"#utility.yul\":994:1001   */\n              dup5\n                /* \"#utility.yul\":985:991   */\n              dup3\n                /* \"#utility.yul\":974:983   */\n              dup6\n                /* \"#utility.yul\":970:992   */\n              add\n                /* \"#utility.yul\":949:1002   */\n              tag_34\n              jump\t// in\n            tag_50:\n                /* \"#utility.yul\":939:1002   */\n              swap2\n              pop\n                /* \"#utility.yul\":895:1012   */\n              pop\n                /* \"#utility.yul\":690:1019   */\n              swap3\n              swap2\n              pop\n              pop\n              jump\t// out\n                /* \"#utility.yul\":1025:1143   */\n            tag_35:\n                /* \"#utility.yul\":1112:1136   */\n              tag_52\n                /* \"#utility.yul\":1130:1135   */\n              dup2\n                /* \"#utility.yul\":1112:1136   */\n              tag_32\n              jump\t// in\n            tag_52:\n                /* \"#utility.yul\":1107:1110   */\n              dup3\n                /* \"#utility.yul\":1100:1137   */\n              mstore\n                /* \"#utility.yul\":1025:1143   */\n              pop\n              pop\n              jump\t// out\n                /* \"#utility.yul\":1149:1371   */\n            tag_14:\n                /* \"#utility.yul\":1242:1246   */\n              0x00\n                /* \"#utility.yul\":1280:1282   */\n              0x20\n                /* \"#utility.yul\":1269:1278   */\n              dup3\n                /* \"#utility.yul\":1265:1283   */\n              add\n                /* \"#utility.yul\":1257:1283   */\n              swap1\n              pop\n                /* \"#utility.yul\":1293:1364   */\n              tag_54\n                /* \"#utility.yul\":1361:1362   */\n              0x00\n                /* \"#utility.yul\":1350:1359   */\n              dup4\n                /* \"#utility.yul\":1346:1363   */\n              add\n                /* \"#utility.yul\":1337:1343   */\n              dup5\n                /* \"#utility.yul\":1293:1364   */\n              tag_35\n              jump\t// in\n            tag_54:\n                /* \"#utility.yul\":1149:1371   */\n              swap3\n              swap2\n              pop\n              pop\n              jump\t// out\n                /* \"#utility.yul\":1377:1557   */\n            tag_36:\n                /* \"#utility.yul\":1425:1502   */\n              0x4e487b7100000000000000000000000000000000000000000000000000000000\n                /* \"#utility.yul\":1422:1423   */\n              0x00\n                /* \"#utility.yul\":1415:1503   */\n              mstore\n                /* \"#utility.yul\":1522:1526   */\n              0x11\n                /* \"#utility.yul\":1519:1520   */\n              0x04\n                /* \"#utility.yul\":1512:1527   */\n              mstore\n                /* \"#utility.yul\":1546:1550   */\n              0x24\n                /* \"#utility.yul\":1543:1544   */\n              0x00\n                /* \"#utility.yul\":1536:1551   */\n              revert\n                /* \"#utility.yul\":1563:1754   */\n            tag_28:\n                /* \"#utility.yul\":1603:1606   */\n              0x00\n                /* \"#utility.yul\":1622:1642   */\n              tag_57\n                /* \"#utility.yul\":1640:1641   */\n              dup3\n                /* \"#utility.yul\":1622:1642   */\n              tag_32\n              jump\t// in\n            tag_57:\n                /* \"#utility.yul\":1617:1642   */\n              swap2\n              pop\n                /* \"#utility.yul\":1656:1676   */\n              tag_58\n                /* \"#utility.yul\":1674:1675   */\n              dup4\n                /* \"#utility.yul\":1656:1676   */\n              tag_32\n              jump\t// in\n            tag_58:\n                /* \"#utility.yul\":1651:1676   */\n              swap3\n              pop\n                /* \"#utility.yul\":1699:1700   */\n              dup3\n                /* \"#utility.yul\":1696:1697   */\n              dup3\n                /* \"#utility.yul\":1692:1701   */\n              add\n                /* \"#utility.yul\":1685:1701   */\n              swap1\n              pop\n                /* \"#utility.yul\":1720:1723   */\n              dup1\n                /* \"#utility.yul\":1717:1718   */\n              dup3\n                /* \"#utility.yul\":1714:1724   */\n              gt\n                /* \"#utility.yul\":1711:1747   */\n              iszero\n              tag_59\n              jumpi\n                /* \"#utility.yul\":1727:1745   */\n              tag_60\n              tag_36\n              jump\t// in\n            tag_60:\n                /* \"#utility.yul\":1711:1747   */\n            tag_59:\n                /* \"#utility.yul\":1563:1754   */\n              swap3\n              swap2\n              pop\n              pop\n              jump\t// out\n\n            auxdata: 0xa2646970667358221220137a1cec5a90caeae48a6b97a951eb3a3345e732cf3b2e6e6118cdcdf2d21a9764736f6c634300081a0033\n        }\n    }\n\n    auxdata: 0xa26469706673582212205e2408173c02f9ab879b8d30c418222e17be956a73e13a300fe150621cace58964736f6c634300081a0033\n}\n",
				"bytecode": {
					"linkReferences": {},
					"object": "6080604052348015600e575f80fd5b506104bb8061001c5f395ff3fe608060405234801561000f575f80fd5b5060043610610029575f3560e01c8063bef55ef31461002d575b5f80fd5b61003561004b565b6040516100429190610174565b60405180910390f35b5f806040516100599061014f565b604051809103905ff080158015610072573d5f803e3d5ffd5b5090508073ffffffffffffffffffffffffffffffffffffffff166309e9600860076040518263ffffffff1660e01b81526004016100af91906101cf565b5f604051808303815f87803b1580156100c6575f80fd5b505af11580156100d8573d5f803e3d5ffd5b505050508073ffffffffffffffffffffffffffffffffffffffff16633bc5de306040518163ffffffff1660e01b8152600401602060405180830381865afa158015610125573d5f803e3d5ffd5b505050506040513d601f19601f820116820180604052508101906101499190610216565b91505090565b6102448061024283390190565b5f819050919050565b61016e8161015c565b82525050565b5f6020820190506101875f830184610165565b92915050565b5f819050919050565b5f819050919050565b5f6101b96101b46101af8461018d565b610196565b61015c565b9050919050565b6101c98161019f565b82525050565b5f6020820190506101e25f8301846101c0565b92915050565b5f80fd5b6101f58161015c565b81146101ff575f80fd5b50565b5f81519050610210816101ec565b92915050565b5f6020828403121561022b5761022a6101e8565b5b5f61023884828501610202565b9150509291505056fe6080604052348015600e575f80fd5b50600a600181905550610220806100245f395ff3fe608060405234801561000f575f80fd5b506004361061004a575f3560e01c806309e960081461004e578063370158ea1461006a5780633bc5de30146100885780638c747b6d146100a6575b5f80fd5b61006860048036038101906100639190610137565b6100c4565b005b6100726100cd565b60405161007f9190610171565b60405180910390f35b6100906100d3565b60405161009d9190610171565b60405180910390f35b6100ae6100db565b6040516100bb9190610171565b60405180910390f35b805f8190555050565b60015481565b5f8054905090565b5f6100e660026100eb565b905090565b5f6001826100f991906101b7565b9050919050565b5f80fd5b5f819050919050565b61011681610104565b8114610120575f80fd5b50565b5f813590506101318161010d565b92915050565b5f6020828403121561014c5761014b610100565b5b5f61015984828501610123565b91505092915050565b61016b81610104565b82525050565b5f6020820190506101845f830184610162565b92915050565b7f4e487b71000000000000000000000000000000000000000000000000000000005f52601160045260245ffd5b5f6101c182610104565b91506101cc83610104565b92508282019050808211156101e4576101e361018a565b5b9291505056fea2646970667358221220137a1cec5a90caeae48a6b97a951eb3a3345e732cf3b2e6e6118cdcdf2d21a9764736f6c634300081a0033a26469706673582212205e2408173c02f9ab879b8d30c418222e17be956a73e13a300fe150621cace58964736f6c634300081a0033",
					"opcodes": "PUSH1 0x80 PUSH1 0x40 MSTORE CALLVALUE DUP1 ISZERO PUSH1 0xE JUMPI PUSH0 DUP1 REVERT JUMPDEST POP PUSH2 0x4BB DUP1 PUSH2 0x1C PUSH0 CODECOPY PUSH0 RETURN INVALID PUSH1 0x80 PUSH1 0x40 MSTORE CALLVALUE DUP1 ISZERO PUSH2 0xF JUMPI PUSH0 DUP1 REVERT JUMPDEST POP PUSH1 0x4 CALLDATASIZE LT PUSH2 0x29 JUMPI PUSH0 CALLDATALOAD PUSH1 0xE0 SHR DUP1 PUSH4 0xBEF55EF3 EQ PUSH2 0x2D JUMPI JUMPDEST PUSH0 DUP1 REVERT JUMPDEST PUSH2 0x35 PUSH2 0x4B JUMP JUMPDEST PUSH1 0x40 MLOAD PUSH2 0x42 SWAP2 SWAP1 PUSH2 0x174 JUMP JUMPDEST PUSH1 0x40 MLOAD DUP1 SWAP2 SUB SWAP1 RETURN JUMPDEST PUSH0 DUP1 PUSH1 0x40 MLOAD PUSH2 0x59 SWAP1 PUSH2 0x14F JUMP JUMPDEST PUSH1 0x40 MLOAD DUP1 SWAP2 SUB SWAP1 PUSH0 CREATE DUP1 ISZERO DUP1 ISZERO PUSH2 0x72 JUMPI RETURNDATASIZE PUSH0 DUP1 RETURNDATACOPY RETURNDATASIZE PUSH0 REVERT JUMPDEST POP SWAP1 POP DUP1 PUSH20 0xFFFFFFFFFFFFFFFFFFFFFFFFFFFFFFFFFFFFFFFF AND PUSH4 0x9E96008 PUSH1 0x7 PUSH1 0x40 MLOAD DUP3 PUSH4 0xFFFFFFFF AND PUSH1 0xE0 SHL DUP2 MSTORE PUSH1 0x4 ADD PUSH2 0xAF SWAP2 SWAP1 PUSH2 0x1CF JUMP JUMPDEST PUSH0 PUSH1 0x40 MLOAD DUP1 DUP4 SUB DUP2 PUSH0 DUP8 DUP1 EXTCODESIZE ISZERO DUP1 ISZERO PUSH2 0xC6 JUMPI PUSH0 DUP1 REVERT JUMPDEST POP GAS CALL ISZERO DUP1 ISZERO PUSH2 0xD8 JUMPI RETURNDATASIZE PUSH0 DUP1 RETURNDATACOPY RETURNDATASIZE PUSH0 REVERT JUMPDEST POP POP POP POP DUP1 PUSH20 0xFFFFFFFFFFFFFFFFFFFFFFFFFFFFFFFFFFFFFFFF AND PUSH4 0x3BC5DE30 PUSH1 0x40 MLOAD DUP2 PUSH4 0xFFFFFFFF AND PUSH1 0xE0 SHL DUP2 MSTORE PUSH1 0x4 ADD PUSH1 0x20 PUSH1 0x40 MLOAD DUP1 DUP4 SUB DUP2 DUP7 GAS STATICCALL ISZERO DUP1 ISZERO PUSH2 0x125 JUMPI RETURNDATASIZE PUSH0 DUP1 RETURNDATACOPY RETURNDATASIZE PUSH0 REVERT JUMPDEST POP POP POP POP PUSH1 0x40 MLOAD RETURNDATASIZE PUSH1 0x1F NOT PUSH1 0x1F DUP3 ADD AND DUP3 ADD DUP1 PUSH1 0x40 MSTORE POP DUP2 ADD SWAP1 PUSH2 0x149 SWAP2 SWAP1 PUSH2 0x216 JUMP JUMPDEST SWAP2 POP POP SWAP1 JUMP JUMPDEST PUSH2 0x244 DUP1 PUSH2 0x242 DUP4 CODECOPY ADD SWAP1 JUMP JUMPDEST PUSH0 DUP2 SWAP1 POP SWAP2 SWAP1 POP JUMP JUMPDEST PUSH2 0x16E DUP2 PUSH2 0x15C JUMP JUMPDEST DUP3 MSTORE POP POP JUMP JUMPDEST PUSH0 PUSH1 0x20 DUP3 ADD SWAP1 POP PUSH2 0x187 PUSH0 DUP4 ADD DUP5 PUSH2 0x165 JUMP JUMPDEST SWAP3 SWAP2 POP POP JUMP JUMPDEST PUSH0 DUP2 SWAP1 POP SWAP2 SWAP1 POP JUMP JUMPDEST PUSH0 DUP2 SWAP1 POP SWAP2 SWAP1 POP JUMP JUMPDEST PUSH0 PUSH2 0x1B9 PUSH2 0x1B4 PUSH2 0x1AF DUP5 PUSH2 0x18D JUMP JUMPDEST PUSH2 0x196 JUMP JUMPDEST PUSH2 0x15C JUMP JUMPDEST SWAP1 POP SWAP2 SWAP1 POP JUMP JUMPDEST PUSH2 0x1C9 DUP2 PUSH2 0x19F JUMP JUMPDEST DUP3 MSTORE POP POP JUMP JUMPDEST PUSH0 PUSH1 0x20 DUP3 ADD SWAP1 POP PUSH2 0x1E2 PUSH0 DUP4 ADD DUP5 PUSH2 0x1C0 JUMP JUMPDEST SWAP3 SWAP2 POP POP JUMP JUMPDEST PUSH0 DUP1 REVERT JUMPDEST PUSH2 0x1F5 DUP2 PUSH2 0x15C JUMP JUMPDEST DUP2 EQ PUSH2 0x1FF JUMPI PUSH0 DUP1 REVERT JUMPDEST POP JUMP JUMPDEST PUSH0 DUP2 MLOAD SWAP1 POP PUSH2 0x210 DUP2 PUSH2 0x1EC JUMP JUMPDEST SWAP3 SWAP2 POP POP JUMP JUMPDEST PUSH0 PUSH1 0x20 DUP3 DUP5 SUB SLT ISZERO PUSH2 0x22B JUMPI PUSH2 0x22A PUSH2 0x1E8 JUMP JUMPDEST JUMPDEST PUSH0 PUSH2 0x238 DUP5 DUP3 DUP6 ADD PUSH2 0x202 JUMP JUMPDEST SWAP2 POP POP SWAP3 SWAP2 POP POP JUMP INVALID PUSH1 0x80 PUSH1 0x40 MSTORE CALLVALUE DUP1 ISZERO PUSH1 0xE JUMPI PUSH0 DUP1 REVERT JUMPDEST POP PUSH1 0xA PUSH1 0x1 DUP2 SWAP1 SSTORE POP PUSH2 0x220 DUP1 PUSH2 0x24 PUSH0 CODECOPY PUSH0 RETURN INVALID PUSH1 0x80 PUSH1 0x40 MSTORE CALLVALUE DUP1 ISZERO PUSH2 0xF JUMPI PUSH0 DUP1 REVERT JUMPDEST POP PUSH1 0x4 CALLDATASIZE LT PUSH2 0x4A JUMPI PUSH0 CALLDATALOAD PUSH1 0xE0 SHR DUP1 PUSH4 0x9E96008 EQ PUSH2 0x4E JUMPI DUP1 PUSH4 0x370158EA EQ PUSH2 0x6A JUMPI DUP1 PUSH4 0x3BC5DE30 EQ PUSH2 0x88 JUMPI DUP1 PUSH4 0x8C747B6D EQ PUSH2 0xA6 JUMPI JUMPDEST PUSH0 DUP1 REVERT JUMPDEST PUSH2 0x68 PUSH1 0x4 DUP1 CALLDATASIZE SUB DUP2 ADD SWAP1 PUSH2 0x63 SWAP2 SWAP1 PUSH2 0x137 JUMP JUMPDEST PUSH2 0xC4 JUMP JUMPDEST STOP JUMPDEST PUSH2 0x72 PUSH2 0xCD JUMP JUMPDEST PUSH1 0x40 MLOAD PUSH2 0x7F SWAP2 SWAP1 PUSH2 0x171 JUMP JUMPDEST PUSH1 0x40 MLOAD DUP1 SWAP2 SUB SWAP1 RETURN JUMPDEST PUSH2 0x90 PUSH2 0xD3 JUMP JUMPDEST PUSH1 0x40 MLOAD PUSH2 0x9D SWAP2 SWAP1 PUSH2 0x171 JUMP JUMPDEST PUSH1 0x40 MLOAD DUP1 SWAP2 SUB SWAP1 RETURN JUMPDEST PUSH2 0xAE PUSH2 0xDB JUMP JUMPDEST PUSH1 0x40 MLOAD PUSH2 0xBB SWAP2 SWAP1 PUSH2 0x171 JUMP JUMPDEST PUSH1 0x40 MLOAD DUP1 SWAP2 SUB SWAP1 RETURN JUMPDEST DUP1 PUSH0 DUP2 SWAP1 SSTORE POP POP JUMP JUMPDEST PUSH1 0x1 SLOAD DUP2 JUMP JUMPDEST PUSH0 DUP1 SLOAD SWAP1 POP SWAP1 JUMP JUMPDEST PUSH0 PUSH2 0xE6 PUSH1 0x2 PUSH2 0xEB JUMP JUMPDEST SWAP1 POP SWAP1 JUMP JUMPDEST PUSH0 PUSH1 0x1 DUP3 PUSH2 0xF9 SWAP2 SWAP1 PUSH2 0x1B7 JUMP JUMPDEST SWAP1 POP SWAP2 SWAP1 POP JUMP JUMPDEST PUSH0 DUP1 REVERT JUMPDEST PUSH0 DUP2 SWAP1 POP SWAP2 SWAP1 POP JUMP JUMPDEST PUSH2 0x116 DUP2 PUSH2 0x104 JUMP JUMPDEST DUP2 EQ PUSH2 0x120 JUMPI PUSH0 DUP1 REVERT JUMPDEST POP JUMP JUMPDEST PUSH0 DUP2 CALLDATALOAD SWAP1 POP PUSH2 0x131 DUP2 PUSH2 0x10D JUMP JUMPDEST SWAP3 SWAP2 POP POP JUMP JUMPDEST PUSH0 PUSH1 0x20 DUP3 DUP5 SUB SLT ISZERO PUSH2 0x14C JUMPI PUSH2 0x14B PUSH2 0x100 JUMP JUMPDEST JUMPDEST PUSH0 PUSH2 0x159 DUP5 DUP3 DUP6 ADD PUSH2 0x123 JUMP JUMPDEST SWAP2 POP POP SWAP3 SWAP2 POP POP JUMP JUMPDEST PUSH2 0x16B DUP2 PUSH2 0x104 JUMP JUMPDEST DUP3 MSTORE POP POP JUMP JUMPDEST PUSH0 PUSH1 0x20 DUP3 ADD SWAP1 POP PUSH2 0x184 PUSH0 DUP4 ADD DUP5 PUSH2 0x162 JUMP JUMPDEST SWAP3 SWAP2 POP POP JUMP JUMPDEST PUSH32 0x4E487B7100000000000000000000000000000000000000000000000000000000 PUSH0 MSTORE PUSH1 0x11 PUSH1 0x4 MSTORE PUSH1 0x24 PUSH0 REVERT JUMPDEST PUSH0 PUSH2 0x1C1 DUP3 PUSH2 0x104 JUMP JUMPDEST SWAP2 POP PUSH2 0x1CC DUP4 PUSH2 0x104 JUMP JUMPDEST SWAP3 POP DUP3 DUP3 ADD SWAP1 POP DUP1 DUP3 GT ISZERO PUSH2 0x1E4 JUMPI PUSH2 0x1E3 PUSH2 0x18A JUMP JUMPDEST JUMPDEST SWAP3 SWAP2 POP POP JUMP INVALID LOG2 PUSH5 0x6970667358 0x22 SLT KECCAK256 SGT PUSH27 0x1CEC5A90CAEAE48A6B97A951EB3A3345E732CF3B2E6E6118CDCDF2 0xD2 BYTE SWAP8 PUSH5 0x736F6C6343 STOP ADDMOD BYTE STOP CALLER LOG2 PUSH5 0x6970667358 0x22 SLT KECCAK256 MCOPY 0x24 ADDMOD OR EXTCODECOPY MUL 0xF9 0xAB DUP8 SWAP12 DUP14 ADDRESS 0xC4 XOR 0x22 0x2E OR 0xBE SWAP6 PUSH11 0x73E13A300FE150621CACE5 DUP10 PUSH5 0x736F6C6343 STOP ADDMOD BYTE STOP CALLER "
				},
				"gasEstimates": {
					"creation": {
						"codeDepositCost": "242200",
						"executionCost": "279",
						"totalCost": "242479"
					},
					"external": {
						"readData()": "infinite"
					}
				},
				"methodIdentifiers": {
					"readData()": "bef55ef3"
				}
			},
			"storageLayout": {
				"storage": [],
				"types": null
			},
			"userdoc": {
				"kind": "user",
				"methods": {},
				"version": 1
			}
		}
	}
}