{
	"contracts/Struct.sol": {
		"Structure": {
			"abi": [
				{
					"inputs": [],
					"name": "addBook",
					"outputs": [],
					"stateMutability": "nonpayable",
					"type": "function"
				},
				{
					"inputs": [
						{
							"internalType": "uint256",
							"name": "",
							"type": "uint256"
						}
					],
					"name": "buku3",
					"outputs": [
						{
							"internalType": "string",
							"name": "title",
							"type": "string"
						},
						{
							"internalType": "string",
							"name": "author",
							"type": "string"
						},
						{
							"internalType": "uint256",
							"name": "id",
							"type": "uint256"
						},
						{
							"internalType": "bool",
							"name": "isReady",
							"type": "bool"
						}
					],
					"stateMutability": "view",
					"type": "function"
				},
				{
					"inputs": [
						{
							"internalType": "uint256",
							"name": "_index",
							"type": "uint256"
						}
					],
					"name": "infoBook",
					"outputs": [
						{
							"internalType": "string",
							"name": "title",
							"type": "string"
						},
						{
							"internalType": "string",
							"name": "author",
							"type": "string"
						},
						{
							"internalType": "uint256",
							"name": "id",
							"type": "uint256"
						},
						{
							"internalType": "bool",
							"name": "isReady",
							"type": "bool"
						}
					],
					"stateMutability": "view",
					"type": "function"
				},
				{
					"inputs": [
						{
							"internalType": "string",
							"name": "title",
							"type": "string"
						},
						{
							"internalType": "string",
							"name": "author",
							"type": "string"
						},
						{
							"internalType": "uint256",
							"name": "id",
							"type": "uint256"
						},
						{
							"internalType": "bool",
							"name": "isReady",
							"type": "bool"
						}
					],
					"name": "newBook",
					"outputs": [],
					"stateMutability": "nonpayable",
					"type": "function"
				},
				{
					"inputs": [],
					"name": "showBook",
					"outputs": [
						{
							"internalType": "string",
							"name": "",
							"type": "string"
						},
						{
							"internalType": "string",
							"name": "",
							"type": "string"
						},
						{
							"internalType": "uint256",
							"name": "",
							"type": "uint256"
						},
						{
							"internalType": "bool",
							"name": "",
							"type": "bool"
						}
					],
					"stateMutability": "view",
					"type": "function"
				},
				{
					"inputs": [],
					"name": "showBook2",
					"outputs": [
						{
							"internalType": "string",
							"name": "",
							"type": "string"
						},
						{
							"internalType": "string",
							"name": "",
							"type": "string"
						}
					],
					"stateMutability": "view",
					"type": "function"
				}
			],
			"devdoc": {
				"kind": "dev",
				"methods": {},
				"version": 1
			},
			"evm": {
				"assembly": "    /* \"contracts/Struct.sol\":77:1191  contract Structure {... */\n  mstore(0x40, 0x80)\n    /* \"contracts/Struct.sol\":566:605  Book(\"Blockhain Dev\", \"dodi\", 10, true) */\n  mload(0x40)\n  dup1\n  0x80\n  add\n  0x40\n  mstore\n  dup1\n  mload(0x40)\n  dup1\n  0x40\n  add\n  0x40\n  mstore\n  dup1\n  0x0d\n  dup2\n  mstore\n  0x20\n  add\n  0x426c6f636b6861696e2044657600000000000000000000000000000000000000\n  dup2\n  mstore\n  pop\n  dup2\n  mstore\n  0x20\n  add\n  mload(0x40)\n  dup1\n  0x40\n  add\n  0x40\n  mstore\n  dup1\n  0x04\n  dup2\n  mstore\n  0x20\n  add\n  0x646f646900000000000000000000000000000000000000000000000000000000\n  dup2\n  mstore\n  pop\n  dup2\n  mstore\n  0x20\n  add\n    /* \"contracts/Struct.sol\":596:598  10 */\n  0x0a\n    /* \"contracts/Struct.sol\":566:605  Book(\"Blockhain Dev\", \"dodi\", 10, true) */\n  dup2\n  mstore\n  0x20\n  add\n    /* \"contracts/Struct.sol\":600:604  true */\n  0x01\n    /* \"contracts/Struct.sol\":566:605  Book(\"Blockhain Dev\", \"dodi\", 10, true) */\n  iszero\n  iszero\n  dup2\n  mstore\n  pop\n    /* \"contracts/Struct.sol\":553:605  Book buku2 = Book(\"Blockhain Dev\", \"dodi\", 10, true) */\n  0x04\n  0x00\n  dup3\n  add\n  mload\n  dup2\n  0x00\n  add\n  swap1\n  dup2\n  tag_1\n  swap2\n  swap1\n  tag_2\n  jump\t// in\ntag_1:\n  pop\n  0x20\n  dup3\n  add\n  mload\n  dup2\n  0x01\n  add\n  swap1\n  dup2\n  tag_3\n  swap2\n  swap1\n  tag_2\n  jump\t// in\ntag_3:\n  pop\n  0x40\n  dup3\n  add\n  mload\n  dup2\n  0x02\n  add\n  sstore\n  0x60\n  dup3\n  add\n  mload\n  dup2\n  0x03\n  add\n  exp(0x0100, 0x00)\n  dup2\n  sload\n  dup2\n  0xff\n  mul\n  not\n  and\n  swap1\n  dup4\n  iszero\n  iszero\n  mul\n  or\n  swap1\n  sstore\n  pop\n  pop\n  pop\n    /* \"contracts/Struct.sol\":77:1191  contract Structure {... */\n  callvalue\n  dup1\n  iszero\n  tag_4\n  jumpi\n  0x00\n  dup1\n  revert\ntag_4:\n  pop\n  jump(tag_5)\n    /* \"#utility.yul\":7:106   */\ntag_6:\n    /* \"#utility.yul\":59:65   */\n  0x00\n    /* \"#utility.yul\":93:98   */\n  dup2\n    /* \"#utility.yul\":87:99   */\n  mload\n    /* \"#utility.yul\":77:99   */\n  swap1\n  pop\n    /* \"#utility.yul\":7:106   */\n  swap2\n  swap1\n  pop\n  jump\t// out\n    /* \"#utility.yul\":112:292   */\ntag_7:\n    /* \"#utility.yul\":160:237   */\n  0x4e487b7100000000000000000000000000000000000000000000000000000000\n    /* \"#utility.yul\":157:158   */\n  0x00\n    /* \"#utility.yul\":150:238   */\n  mstore\n    /* \"#utility.yul\":257:261   */\n  0x41\n    /* \"#utility.yul\":254:255   */\n  0x04\n    /* \"#utility.yul\":247:262   */\n  mstore\n    /* \"#utility.yul\":281:285   */\n  0x24\n    /* \"#utility.yul\":278:279   */\n  0x00\n    /* \"#utility.yul\":271:286   */\n  revert\n    /* \"#utility.yul\":298:478   */\ntag_8:\n    /* \"#utility.yul\":346:423   */\n  0x4e487b7100000000000000000000000000000000000000000000000000000000\n    /* \"#utility.yul\":343:344   */\n  0x00\n    /* \"#utility.yul\":336:424   */\n  mstore\n    /* \"#utility.yul\":443:447   */\n  0x22\n    /* \"#utility.yul\":440:441   */\n  0x04\n    /* \"#utility.yul\":433:448   */\n  mstore\n    /* \"#utility.yul\":467:471   */\n  0x24\n    /* \"#utility.yul\":464:465   */\n  0x00\n    /* \"#utility.yul\":457:472   */\n  revert\n    /* \"#utility.yul\":484:804   */\ntag_9:\n    /* \"#utility.yul\":528:534   */\n  0x00\n    /* \"#utility.yul\":565:566   */\n  0x02\n    /* \"#utility.yul\":559:563   */\n  dup3\n    /* \"#utility.yul\":555:567   */\n  div\n    /* \"#utility.yul\":545:567   */\n  swap1\n  pop\n    /* \"#utility.yul\":612:613   */\n  0x01\n    /* \"#utility.yul\":606:610   */\n  dup3\n    /* \"#utility.yul\":602:614   */\n  and\n    /* \"#utility.yul\":633:651   */\n  dup1\n    /* \"#utility.yul\":623:704   */\n  tag_31\n  jumpi\n    /* \"#utility.yul\":689:693   */\n  0x7f\n    /* \"#utility.yul\":681:687   */\n  dup3\n    /* \"#utility.yul\":677:694   */\n  and\n    /* \"#utility.yul\":667:694   */\n  swap2\n  pop\n    /* \"#utility.yul\":623:704   */\ntag_31:\n    /* \"#utility.yul\":751:753   */\n  0x20\n    /* \"#utility.yul\":743:749   */\n  dup3\n    /* \"#utility.yul\":740:754   */\n  lt\n    /* \"#utility.yul\":720:738   */\n  dup2\n    /* \"#utility.yul\":717:755   */\n  sub\n    /* \"#utility.yul\":714:798   */\n  tag_32\n  jumpi\n    /* \"#utility.yul\":770:788   */\n  tag_33\n  tag_8\n  jump\t// in\ntag_33:\n    /* \"#utility.yul\":714:798   */\ntag_32:\n    /* \"#utility.yul\":535:804   */\n  pop\n    /* \"#utility.yul\":484:804   */\n  swap2\n  swap1\n  pop\n  jump\t// out\n    /* \"#utility.yul\":810:951   */\ntag_10:\n    /* \"#utility.yul\":859:863   */\n  0x00\n    /* \"#utility.yul\":882:885   */\n  dup2\n    /* \"#utility.yul\":874:885   */\n  swap1\n  pop\n    /* \"#utility.yul\":905:908   */\n  dup2\n    /* \"#utility.yul\":902:903   */\n  0x00\n    /* \"#utility.yul\":895:909   */\n  mstore\n    /* \"#utility.yul\":939:943   */\n  0x20\n    /* \"#utility.yul\":936:937   */\n  0x00\n    /* \"#utility.yul\":926:944   */\n  keccak256\n    /* \"#utility.yul\":918:944   */\n  swap1\n  pop\n    /* \"#utility.yul\":810:951   */\n  swap2\n  swap1\n  pop\n  jump\t// out\n    /* \"#utility.yul\":957:1050   */\ntag_11:\n    /* \"#utility.yul\":994:1000   */\n  0x00\n    /* \"#utility.yul\":1041:1043   */\n  0x20\n    /* \"#utility.yul\":1036:1038   */\n  0x1f\n    /* \"#utility.yul\":1029:1034   */\n  dup4\n    /* \"#utility.yul\":1025:1039   */\n  add\n    /* \"#utility.yul\":1021:1044   */\n  div\n    /* \"#utility.yul\":1011:1044   */\n  swap1\n  pop\n    /* \"#utility.yul\":957:1050   */\n  swap2\n  swap1\n  pop\n  jump\t// out\n    /* \"#utility.yul\":1056:1163   */\ntag_12:\n    /* \"#utility.yul\":1100:1108   */\n  0x00\n    /* \"#utility.yul\":1150:1155   */\n  dup3\n    /* \"#utility.yul\":1144:1148   */\n  dup3\n    /* \"#utility.yul\":1140:1156   */\n  shl\n    /* \"#utility.yul\":1119:1156   */\n  swap1\n  pop\n    /* \"#utility.yul\":1056:1163   */\n  swap3\n  swap2\n  pop\n  pop\n  jump\t// out\n    /* \"#utility.yul\":1169:1562   */\ntag_13:\n    /* \"#utility.yul\":1238:1244   */\n  0x00\n    /* \"#utility.yul\":1288:1289   */\n  0x08\n    /* \"#utility.yul\":1276:1286   */\n  dup4\n    /* \"#utility.yul\":1272:1290   */\n  mul\n    /* \"#utility.yul\":1311:1408   */\n  tag_38\n    /* \"#utility.yul\":1341:1407   */\n  0xffffffffffffffffffffffffffffffffffffffffffffffffffffffffffffffff\n    /* \"#utility.yul\":1330:1339   */\n  dup3\n    /* \"#utility.yul\":1311:1408   */\n  tag_12\n  jump\t// in\ntag_38:\n    /* \"#utility.yul\":1429:1468   */\n  tag_39\n    /* \"#utility.yul\":1459:1467   */\n  dup7\n    /* \"#utility.yul\":1448:1457   */\n  dup4\n    /* \"#utility.yul\":1429:1468   */\n  tag_12\n  jump\t// in\ntag_39:\n    /* \"#utility.yul\":1417:1468   */\n  swap6\n  pop\n    /* \"#utility.yul\":1501:1505   */\n  dup1\n    /* \"#utility.yul\":1497:1506   */\n  not\n    /* \"#utility.yul\":1490:1495   */\n  dup5\n    /* \"#utility.yul\":1486:1507   */\n  and\n    /* \"#utility.yul\":1477:1507   */\n  swap4\n  pop\n    /* \"#utility.yul\":1550:1554   */\n  dup1\n    /* \"#utility.yul\":1540:1548   */\n  dup7\n    /* \"#utility.yul\":1536:1555   */\n  and\n    /* \"#utility.yul\":1529:1534   */\n  dup5\n    /* \"#utility.yul\":1526:1556   */\n  or\n    /* \"#utility.yul\":1516:1556   */\n  swap3\n  pop\n    /* \"#utility.yul\":1245:1562   */\n  pop\n  pop\n    /* \"#utility.yul\":1169:1562   */\n  swap4\n  swap3\n  pop\n  pop\n  pop\n  jump\t// out\n    /* \"#utility.yul\":1568:1645   */\ntag_14:\n    /* \"#utility.yul\":1605:1612   */\n  0x00\n    /* \"#utility.yul\":1634:1639   */\n  dup2\n    /* \"#utility.yul\":1623:1639   */\n  swap1\n  pop\n    /* \"#utility.yul\":1568:1645   */\n  swap2\n  swap1\n  pop\n  jump\t// out\n    /* \"#utility.yul\":1651:1711   */\ntag_15:\n    /* \"#utility.yul\":1679:1682   */\n  0x00\n    /* \"#utility.yul\":1700:1705   */\n  dup2\n    /* \"#utility.yul\":1693:1705   */\n  swap1\n  pop\n    /* \"#utility.yul\":1651:1711   */\n  swap2\n  swap1\n  pop\n  jump\t// out\n    /* \"#utility.yul\":1717:1859   */\ntag_16:\n    /* \"#utility.yul\":1767:1776   */\n  0x00\n    /* \"#utility.yul\":1800:1853   */\n  tag_43\n    /* \"#utility.yul\":1818:1852   */\n  tag_44\n    /* \"#utility.yul\":1827:1851   */\n  tag_45\n    /* \"#utility.yul\":1845:1850   */\n  dup5\n    /* \"#utility.yul\":1827:1851   */\n  tag_14\n  jump\t// in\ntag_45:\n    /* \"#utility.yul\":1818:1852   */\n  tag_15\n  jump\t// in\ntag_44:\n    /* \"#utility.yul\":1800:1853   */\n  tag_14\n  jump\t// in\ntag_43:\n    /* \"#utility.yul\":1787:1853   */\n  swap1\n  pop\n    /* \"#utility.yul\":1717:1859   */\n  swap2\n  swap1\n  pop\n  jump\t// out\n    /* \"#utility.yul\":1865:1940   */\ntag_17:\n    /* \"#utility.yul\":1908:1911   */\n  0x00\n    /* \"#utility.yul\":1929:1934   */\n  dup2\n    /* \"#utility.yul\":1922:1934   */\n  swap1\n  pop\n    /* \"#utility.yul\":1865:1940   */\n  swap2\n  swap1\n  pop\n  jump\t// out\n    /* \"#utility.yul\":1946:2215   */\ntag_18:\n    /* \"#utility.yul\":2056:2095   */\n  tag_48\n    /* \"#utility.yul\":2087:2094   */\n  dup4\n    /* \"#utility.yul\":2056:2095   */\n  tag_16\n  jump\t// in\ntag_48:\n    /* \"#utility.yul\":2117:2208   */\n  tag_49\n    /* \"#utility.yul\":2166:2207   */\n  tag_50\n    /* \"#utility.yul\":2190:2206   */\n  dup3\n    /* \"#utility.yul\":2166:2207   */\n  tag_17\n  jump\t// in\ntag_50:\n    /* \"#utility.yul\":2158:2164   */\n  dup5\n    /* \"#utility.yul\":2151:2155   */\n  dup5\n    /* \"#utility.yul\":2145:2156   */\n  sload\n    /* \"#utility.yul\":2117:2208   */\n  tag_13\n  jump\t// in\ntag_49:\n    /* \"#utility.yul\":2111:2115   */\n  dup3\n    /* \"#utility.yul\":2104:2209   */\n  sstore\n    /* \"#utility.yul\":2022:2215   */\n  pop\n    /* \"#utility.yul\":1946:2215   */\n  pop\n  pop\n  pop\n  jump\t// out\n    /* \"#utility.yul\":2221:2294   */\ntag_19:\n    /* \"#utility.yul\":2266:2269   */\n  0x00\n    /* \"#utility.yul\":2221:2294   */\n  swap1\n  jump\t// out\n    /* \"#utility.yul\":2300:2489   */\ntag_20:\n    /* \"#utility.yul\":2377:2409   */\n  tag_53\n  tag_19\n  jump\t// in\ntag_53:\n    /* \"#utility.yul\":2418:2483   */\n  tag_54\n    /* \"#utility.yul\":2476:2482   */\n  dup2\n    /* \"#utility.yul\":2468:2474   */\n  dup5\n    /* \"#utility.yul\":2462:2466   */\n  dup5\n    /* \"#utility.yul\":2418:2483   */\n  tag_18\n  jump\t// in\ntag_54:\n    /* \"#utility.yul\":2353:2489   */\n  pop\n    /* \"#utility.yul\":2300:2489   */\n  pop\n  pop\n  jump\t// out\n    /* \"#utility.yul\":2495:2681   */\ntag_21:\n    /* \"#utility.yul\":2555:2675   */\ntag_56:\n    /* \"#utility.yul\":2572:2575   */\n  dup2\n    /* \"#utility.yul\":2565:2570   */\n  dup2\n    /* \"#utility.yul\":2562:2576   */\n  lt\n    /* \"#utility.yul\":2555:2675   */\n  iszero\n  tag_58\n  jumpi\n    /* \"#utility.yul\":2626:2665   */\n  tag_59\n    /* \"#utility.yul\":2663:2664   */\n  0x00\n    /* \"#utility.yul\":2656:2661   */\n  dup3\n    /* \"#utility.yul\":2626:2665   */\n  tag_20\n  jump\t// in\ntag_59:\n    /* \"#utility.yul\":2599:2600   */\n  0x01\n    /* \"#utility.yul\":2592:2597   */\n  dup2\n    /* \"#utility.yul\":2588:2601   */\n  add\n    /* \"#utility.yul\":2579:2601   */\n  swap1\n  pop\n    /* \"#utility.yul\":2555:2675   */\n  jump(tag_56)\ntag_58:\n    /* \"#utility.yul\":2495:2681   */\n  pop\n  pop\n  jump\t// out\n    /* \"#utility.yul\":2687:3230   */\ntag_22:\n    /* \"#utility.yul\":2788:2790   */\n  0x1f\n    /* \"#utility.yul\":2783:2786   */\n  dup3\n    /* \"#utility.yul\":2780:2791   */\n  gt\n    /* \"#utility.yul\":2777:3223   */\n  iszero\n  tag_61\n  jumpi\n    /* \"#utility.yul\":2822:2860   */\n  tag_62\n    /* \"#utility.yul\":2854:2859   */\n  dup2\n    /* \"#utility.yul\":2822:2860   */\n  tag_10\n  jump\t// in\ntag_62:\n    /* \"#utility.yul\":2906:2935   */\n  tag_63\n    /* \"#utility.yul\":2924:2934   */\n  dup5\n    /* \"#utility.yul\":2906:2935   */\n  tag_11\n  jump\t// in\ntag_63:\n    /* \"#utility.yul\":2896:2904   */\n  dup2\n    /* \"#utility.yul\":2892:2936   */\n  add\n    /* \"#utility.yul\":3089:3091   */\n  0x20\n    /* \"#utility.yul\":3077:3087   */\n  dup6\n    /* \"#utility.yul\":3074:3092   */\n  lt\n    /* \"#utility.yul\":3071:3120   */\n  iszero\n  tag_64\n  jumpi\n    /* \"#utility.yul\":3110:3118   */\n  dup2\n    /* \"#utility.yul\":3095:3118   */\n  swap1\n  pop\n    /* \"#utility.yul\":3071:3120   */\ntag_64:\n    /* \"#utility.yul\":3133:3213   */\n  tag_65\n    /* \"#utility.yul\":3189:3211   */\n  tag_66\n    /* \"#utility.yul\":3207:3210   */\n  dup6\n    /* \"#utility.yul\":3189:3211   */\n  tag_11\n  jump\t// in\ntag_66:\n    /* \"#utility.yul\":3179:3187   */\n  dup4\n    /* \"#utility.yul\":3175:3212   */\n  add\n    /* \"#utility.yul\":3162:3173   */\n  dup3\n    /* \"#utility.yul\":3133:3213   */\n  tag_21\n  jump\t// in\ntag_65:\n    /* \"#utility.yul\":2792:3223   */\n  pop\n  pop\n    /* \"#utility.yul\":2777:3223   */\ntag_61:\n    /* \"#utility.yul\":2687:3230   */\n  pop\n  pop\n  pop\n  jump\t// out\n    /* \"#utility.yul\":3236:3353   */\ntag_23:\n    /* \"#utility.yul\":3290:3298   */\n  0x00\n    /* \"#utility.yul\":3340:3345   */\n  dup3\n    /* \"#utility.yul\":3334:3338   */\n  dup3\n    /* \"#utility.yul\":3330:3346   */\n  shr\n    /* \"#utility.yul\":3309:3346   */\n  swap1\n  pop\n    /* \"#utility.yul\":3236:3353   */\n  swap3\n  swap2\n  pop\n  pop\n  jump\t// out\n    /* \"#utility.yul\":3359:3528   */\ntag_24:\n    /* \"#utility.yul\":3403:3409   */\n  0x00\n    /* \"#utility.yul\":3436:3487   */\n  tag_69\n    /* \"#utility.yul\":3484:3485   */\n  0x00\n    /* \"#utility.yul\":3480:3486   */\n  not\n    /* \"#utility.yul\":3472:3477   */\n  dup5\n    /* \"#utility.yul\":3469:3470   */\n  0x08\n    /* \"#utility.yul\":3465:3478   */\n  mul\n    /* \"#utility.yul\":3436:3487   */\n  tag_23\n  jump\t// in\ntag_69:\n    /* \"#utility.yul\":3432:3488   */\n  not\n    /* \"#utility.yul\":3517:3521   */\n  dup1\n    /* \"#utility.yul\":3511:3515   */\n  dup4\n    /* \"#utility.yul\":3507:3522   */\n  and\n    /* \"#utility.yul\":3497:3522   */\n  swap2\n  pop\n    /* \"#utility.yul\":3410:3528   */\n  pop\n    /* \"#utility.yul\":3359:3528   */\n  swap3\n  swap2\n  pop\n  pop\n  jump\t// out\n    /* \"#utility.yul\":3533:3828   */\ntag_25:\n    /* \"#utility.yul\":3609:3613   */\n  0x00\n    /* \"#utility.yul\":3755:3784   */\n  tag_71\n    /* \"#utility.yul\":3780:3783   */\n  dup4\n    /* \"#utility.yul\":3774:3778   */\n  dup4\n    /* \"#utility.yul\":3755:3784   */\n  tag_24\n  jump\t// in\ntag_71:\n    /* \"#utility.yul\":3747:3784   */\n  swap2\n  pop\n    /* \"#utility.yul\":3817:3820   */\n  dup3\n    /* \"#utility.yul\":3814:3815   */\n  0x02\n    /* \"#utility.yul\":3810:3821   */\n  mul\n    /* \"#utility.yul\":3804:3808   */\n  dup3\n    /* \"#utility.yul\":3801:3822   */\n  or\n    /* \"#utility.yul\":3793:3822   */\n  swap1\n  pop\n    /* \"#utility.yul\":3533:3828   */\n  swap3\n  swap2\n  pop\n  pop\n  jump\t// out\n    /* \"#utility.yul\":3833:5228   */\ntag_2:\n    /* \"#utility.yul\":3950:3987   */\n  tag_73\n    /* \"#utility.yul\":3983:3986   */\n  dup3\n    /* \"#utility.yul\":3950:3987   */\n  tag_6\n  jump\t// in\ntag_73:\n    /* \"#utility.yul\":4052:4070   */\n  0xffffffffffffffff\n    /* \"#utility.yul\":4044:4050   */\n  dup2\n    /* \"#utility.yul\":4041:4071   */\n  gt\n    /* \"#utility.yul\":4038:4094   */\n  iszero\n  tag_74\n  jumpi\n    /* \"#utility.yul\":4074:4092   */\n  tag_75\n  tag_7\n  jump\t// in\ntag_75:\n    /* \"#utility.yul\":4038:4094   */\ntag_74:\n    /* \"#utility.yul\":4118:4156   */\n  tag_76\n    /* \"#utility.yul\":4150:4154   */\n  dup3\n    /* \"#utility.yul\":4144:4155   */\n  sload\n    /* \"#utility.yul\":4118:4156   */\n  tag_9\n  jump\t// in\ntag_76:\n    /* \"#utility.yul\":4203:4270   */\n  tag_77\n    /* \"#utility.yul\":4263:4269   */\n  dup3\n    /* \"#utility.yul\":4255:4261   */\n  dup3\n    /* \"#utility.yul\":4249:4253   */\n  dup6\n    /* \"#utility.yul\":4203:4270   */\n  tag_22\n  jump\t// in\ntag_77:\n    /* \"#utility.yul\":4297:4298   */\n  0x00\n    /* \"#utility.yul\":4321:4325   */\n  0x20\n    /* \"#utility.yul\":4308:4325   */\n  swap1\n  pop\n    /* \"#utility.yul\":4353:4355   */\n  0x1f\n    /* \"#utility.yul\":4345:4351   */\n  dup4\n    /* \"#utility.yul\":4342:4356   */\n  gt\n    /* \"#utility.yul\":4370:4371   */\n  0x01\n    /* \"#utility.yul\":4365:4983   */\n  dup2\n  eq\n  tag_79\n  jumpi\n    /* \"#utility.yul\":5027:5028   */\n  0x00\n    /* \"#utility.yul\":5044:5050   */\n  dup5\n    /* \"#utility.yul\":5041:5118   */\n  iszero\n  tag_80\n  jumpi\n    /* \"#utility.yul\":5093:5102   */\n  dup3\n    /* \"#utility.yul\":5088:5091   */\n  dup8\n    /* \"#utility.yul\":5084:5103   */\n  add\n    /* \"#utility.yul\":5078:5104   */\n  mload\n    /* \"#utility.yul\":5069:5104   */\n  swap1\n  pop\n    /* \"#utility.yul\":5041:5118   */\ntag_80:\n    /* \"#utility.yul\":5144:5211   */\n  tag_81\n    /* \"#utility.yul\":5204:5210   */\n  dup6\n    /* \"#utility.yul\":5197:5202   */\n  dup3\n    /* \"#utility.yul\":5144:5211   */\n  tag_25\n  jump\t// in\ntag_81:\n    /* \"#utility.yul\":5138:5142   */\n  dup7\n    /* \"#utility.yul\":5131:5212   */\n  sstore\n    /* \"#utility.yul\":5000:5222   */\n  pop\n    /* \"#utility.yul\":4335:5222   */\n  jump(tag_78)\n    /* \"#utility.yul\":4365:4983   */\ntag_79:\n    /* \"#utility.yul\":4417:4421   */\n  0x1f\n    /* \"#utility.yul\":4413:4422   */\n  not\n    /* \"#utility.yul\":4405:4411   */\n  dup5\n    /* \"#utility.yul\":4401:4423   */\n  and\n    /* \"#utility.yul\":4451:4488   */\n  tag_82\n    /* \"#utility.yul\":4483:4487   */\n  dup7\n    /* \"#utility.yul\":4451:4488   */\n  tag_10\n  jump\t// in\ntag_82:\n    /* \"#utility.yul\":4510:4511   */\n  0x00\n    /* \"#utility.yul\":4524:4732   */\ntag_83:\n    /* \"#utility.yul\":4538:4545   */\n  dup3\n    /* \"#utility.yul\":4535:4536   */\n  dup2\n    /* \"#utility.yul\":4532:4546   */\n  lt\n    /* \"#utility.yul\":4524:4732   */\n  iszero\n  tag_85\n  jumpi\n    /* \"#utility.yul\":4617:4626   */\n  dup5\n    /* \"#utility.yul\":4612:4615   */\n  dup10\n    /* \"#utility.yul\":4608:4627   */\n  add\n    /* \"#utility.yul\":4602:4628   */\n  mload\n    /* \"#utility.yul\":4594:4600   */\n  dup3\n    /* \"#utility.yul\":4587:4629   */\n  sstore\n    /* \"#utility.yul\":4668:4669   */\n  0x01\n    /* \"#utility.yul\":4660:4666   */\n  dup3\n    /* \"#utility.yul\":4656:4670   */\n  add\n    /* \"#utility.yul\":4646:4670   */\n  swap2\n  pop\n    /* \"#utility.yul\":4715:4717   */\n  0x20\n    /* \"#utility.yul\":4704:4713   */\n  dup6\n    /* \"#utility.yul\":4700:4718   */\n  add\n    /* \"#utility.yul\":4687:4718   */\n  swap5\n  pop\n    /* \"#utility.yul\":4561:4565   */\n  0x20\n    /* \"#utility.yul\":4558:4559   */\n  dup2\n    /* \"#utility.yul\":4554:4566   */\n  add\n    /* \"#utility.yul\":4549:4566   */\n  swap1\n  pop\n    /* \"#utility.yul\":4524:4732   */\n  jump(tag_83)\ntag_85:\n    /* \"#utility.yul\":4760:4766   */\n  dup7\n    /* \"#utility.yul\":4751:4758   */\n  dup4\n    /* \"#utility.yul\":4748:4767   */\n  lt\n    /* \"#utility.yul\":4745:4924   */\n  iszero\n  tag_86\n  jumpi\n    /* \"#utility.yul\":4818:4827   */\n  dup5\n    /* \"#utility.yul\":4813:4816   */\n  dup10\n    /* \"#utility.yul\":4809:4828   */\n  add\n    /* \"#utility.yul\":4803:4829   */\n  mload\n    /* \"#utility.yul\":4861:4909   */\n  tag_87\n    /* \"#utility.yul\":4903:4907   */\n  0x1f\n    /* \"#utility.yul\":4895:4901   */\n  dup10\n    /* \"#utility.yul\":4891:4908   */\n  and\n    /* \"#utility.yul\":4880:4889   */\n  dup3\n    /* \"#utility.yul\":4861:4909   */\n  tag_24\n  jump\t// in\ntag_87:\n    /* \"#utility.yul\":4853:4859   */\n  dup4\n    /* \"#utility.yul\":4846:4910   */\n  sstore\n    /* \"#utility.yul\":4768:4924   */\n  pop\n    /* \"#utility.yul\":4745:4924   */\ntag_86:\n    /* \"#utility.yul\":4970:4971   */\n  0x01\n    /* \"#utility.yul\":4966:4967   */\n  0x02\n    /* \"#utility.yul\":4958:4964   */\n  dup9\n    /* \"#utility.yul\":4954:4968   */\n  mul\n    /* \"#utility.yul\":4950:4972   */\n  add\n    /* \"#utility.yul\":4944:4948   */\n  dup9\n    /* \"#utility.yul\":4937:4973   */\n  sstore\n    /* \"#utility.yul\":4372:4983   */\n  pop\n  pop\n  pop\n    /* \"#utility.yul\":4335:5222   */\ntag_78:\n  pop\n    /* \"#utility.yul\":3925:5228   */\n  pop\n  pop\n  pop\n    /* \"#utility.yul\":3833:5228   */\n  pop\n  pop\n  jump\t// out\n    /* \"contracts/Struct.sol\":77:1191  contract Structure {... */\ntag_5:\n  dataSize(sub_0)\n  dup1\n  dataOffset(sub_0)\n  0x00\n  codecopy\n  0x00\n  return\nstop\n\nsub_0: assembly {\n        /* \"contracts/Struct.sol\":77:1191  contract Structure {... */\n      mstore(0x40, 0x80)\n      callvalue\n      dup1\n      iszero\n      tag_1\n      jumpi\n      0x00\n      dup1\n      revert\n    tag_1:\n      pop\n      jumpi(tag_2, lt(calldatasize, 0x04))\n      shr(0xe0, calldataload(0x00))\n      dup1\n      0x2fffc71c\n      eq\n      tag_3\n      jumpi\n      dup1\n      0x9cae3932\n      eq\n      tag_4\n      jumpi\n      dup1\n      0xd5c45311\n      eq\n      tag_5\n      jumpi\n      dup1\n      0xe953d0af\n      eq\n      tag_6\n      jumpi\n      dup1\n      0xea625179\n      eq\n      tag_7\n      jumpi\n      dup1\n      0xf5974f83\n      eq\n      tag_8\n      jumpi\n    tag_2:\n      0x00\n      dup1\n      revert\n        /* \"contracts/Struct.sol\":956:1189  function infoBook(uint _index) public view returns (string memory title, string memory author, uint id, bool isReady) {... */\n    tag_3:\n      tag_9\n      0x04\n      dup1\n      calldatasize\n      sub\n      dup2\n      add\n      swap1\n      tag_10\n      swap2\n      swap1\n      tag_11\n      jump\t// in\n    tag_10:\n      tag_12\n      jump\t// in\n    tag_9:\n      mload(0x40)\n      tag_13\n      swap5\n      swap4\n      swap3\n      swap2\n      swap1\n      tag_14\n      jump\t// in\n    tag_13:\n      mload(0x40)\n      dup1\n      swap2\n      sub\n      swap1\n      return\n        /* \"contracts/Struct.sol\":356:514  function showBook() public view returns (string memory, string memory, uint, bool){... */\n    tag_4:\n      tag_15\n      tag_16\n      jump\t// in\n    tag_15:\n      mload(0x40)\n      tag_17\n      swap5\n      swap4\n      swap3\n      swap2\n      swap1\n      tag_14\n      jump\t// in\n    tag_17:\n      mload(0x40)\n      dup1\n      swap2\n      sub\n      swap1\n      return\n        /* \"contracts/Struct.sol\":612:734  function showBook2() public view returns (string memory, string memory){... */\n    tag_5:\n      tag_18\n      tag_19\n      jump\t// in\n    tag_18:\n      mload(0x40)\n      tag_20\n      swap3\n      swap2\n      swap1\n      tag_21\n      jump\t// in\n    tag_20:\n      mload(0x40)\n      dup1\n      swap2\n      sub\n      swap1\n      return\n        /* \"contracts/Struct.sol\":261:351  function addBook() public {... */\n    tag_6:\n      tag_22\n      tag_23\n      jump\t// in\n    tag_22:\n      stop\n        /* \"contracts/Struct.sol\":774:793  Book[] public buku3 */\n    tag_7:\n      tag_24\n      0x04\n      dup1\n      calldatasize\n      sub\n      dup2\n      add\n      swap1\n      tag_25\n      swap2\n      swap1\n      tag_11\n      jump\t// in\n    tag_25:\n      tag_26\n      jump\t// in\n    tag_24:\n      mload(0x40)\n      tag_27\n      swap5\n      swap4\n      swap3\n      swap2\n      swap1\n      tag_14\n      jump\t// in\n    tag_27:\n      mload(0x40)\n      dup1\n      swap2\n      sub\n      swap1\n      return\n        /* \"contracts/Struct.sol\":800:951  function newBook(string memory title, string memory author, uint id, bool isReady) public {... */\n    tag_8:\n      tag_28\n      0x04\n      dup1\n      calldatasize\n      sub\n      dup2\n      add\n      swap1\n      tag_29\n      swap2\n      swap1\n      tag_30\n      jump\t// in\n    tag_29:\n      tag_31\n      jump\t// in\n    tag_28:\n      stop\n        /* \"contracts/Struct.sol\":956:1189  function infoBook(uint _index) public view returns (string memory title, string memory author, uint id, bool isReady) {... */\n    tag_12:\n        /* \"contracts/Struct.sol\":1008:1027  string memory title */\n      0x60\n        /* \"contracts/Struct.sol\":1029:1049  string memory author */\n      dup1\n        /* \"contracts/Struct.sol\":1051:1058  uint id */\n      0x00\n        /* \"contracts/Struct.sol\":1060:1072  bool isReady */\n      dup1\n        /* \"contracts/Struct.sol\":1084:1101  Book storage book */\n      0x00\n        /* \"contracts/Struct.sol\":1104:1109  buku3 */\n      0x08\n        /* \"contracts/Struct.sol\":1110:1116  _index */\n      dup7\n        /* \"contracts/Struct.sol\":1104:1117  buku3[_index] */\n      dup2\n      sload\n      dup2\n      lt\n      tag_33\n      jumpi\n      tag_34\n      tag_35\n      jump\t// in\n    tag_34:\n    tag_33:\n      swap1\n      0x00\n      mstore\n      keccak256(0x00, 0x20)\n      swap1\n      0x04\n      mul\n      add\n        /* \"contracts/Struct.sol\":1084:1117  Book storage book = buku3[_index] */\n      swap1\n      pop\n        /* \"contracts/Struct.sol\":1135:1139  book */\n      dup1\n        /* \"contracts/Struct.sol\":1135:1145  book.title */\n      0x00\n      add\n        /* \"contracts/Struct.sol\":1147:1151  book */\n      dup2\n        /* \"contracts/Struct.sol\":1147:1158  book.author */\n      0x01\n      add\n        /* \"contracts/Struct.sol\":1160:1164  book */\n      dup3\n        /* \"contracts/Struct.sol\":1160:1167  book.id */\n      0x02\n      add\n      sload\n        /* \"contracts/Struct.sol\":1169:1173  book */\n      dup4\n        /* \"contracts/Struct.sol\":1169:1181  book.isReady */\n      0x03\n      add\n      0x00\n      swap1\n      sload\n      swap1\n      0x0100\n      exp\n      swap1\n      div\n      0xff\n      and\n        /* \"contracts/Struct.sol\":1127:1182  return (book.title, book.author, book.id, book.isReady) */\n      dup4\n      dup1\n      sload\n      tag_37\n      swap1\n      tag_38\n      jump\t// in\n    tag_37:\n      dup1\n      0x1f\n      add\n      0x20\n      dup1\n      swap2\n      div\n      mul\n      0x20\n      add\n      mload(0x40)\n      swap1\n      dup2\n      add\n      0x40\n      mstore\n      dup1\n      swap3\n      swap2\n      swap1\n      dup2\n      dup2\n      mstore\n      0x20\n      add\n      dup3\n      dup1\n      sload\n      tag_39\n      swap1\n      tag_38\n      jump\t// in\n    tag_39:\n      dup1\n      iszero\n      tag_40\n      jumpi\n      dup1\n      0x1f\n      lt\n      tag_41\n      jumpi\n      0x0100\n      dup1\n      dup4\n      sload\n      div\n      mul\n      dup4\n      mstore\n      swap2\n      0x20\n      add\n      swap2\n      jump(tag_40)\n    tag_41:\n      dup3\n      add\n      swap2\n      swap1\n      0x00\n      mstore\n      keccak256(0x00, 0x20)\n      swap1\n    tag_42:\n      dup2\n      sload\n      dup2\n      mstore\n      swap1\n      0x01\n      add\n      swap1\n      0x20\n      add\n      dup1\n      dup4\n      gt\n      tag_42\n      jumpi\n      dup3\n      swap1\n      sub\n      0x1f\n      and\n      dup3\n      add\n      swap2\n    tag_40:\n      pop\n      pop\n      pop\n      pop\n      pop\n      swap4\n      pop\n      dup3\n      dup1\n      sload\n      tag_43\n      swap1\n      tag_38\n      jump\t// in\n    tag_43:\n      dup1\n      0x1f\n      add\n      0x20\n      dup1\n      swap2\n      div\n      mul\n      0x20\n      add\n      mload(0x40)\n      swap1\n      dup2\n      add\n      0x40\n      mstore\n      dup1\n      swap3\n      swap2\n      swap1\n      dup2\n      dup2\n      mstore\n      0x20\n      add\n      dup3\n      dup1\n      sload\n      tag_44\n      swap1\n      tag_38\n      jump\t// in\n    tag_44:\n      dup1\n      iszero\n      tag_45\n      jumpi\n      dup1\n      0x1f\n      lt\n      tag_46\n      jumpi\n      0x0100\n      dup1\n      dup4\n      sload\n      div\n      mul\n      dup4\n      mstore\n      swap2\n      0x20\n      add\n      swap2\n      jump(tag_45)\n    tag_46:\n      dup3\n      add\n      swap2\n      swap1\n      0x00\n      mstore\n      keccak256(0x00, 0x20)\n      swap1\n    tag_47:\n      dup2\n      sload\n      dup2\n      mstore\n      swap1\n      0x01\n      add\n      swap1\n      0x20\n      add\n      dup1\n      dup4\n      gt\n      tag_47\n      jumpi\n      dup3\n      swap1\n      sub\n      0x1f\n      and\n      dup3\n      add\n      swap2\n    tag_45:\n      pop\n      pop\n      pop\n      pop\n      pop\n      swap3\n      pop\n      swap5\n      pop\n      swap5\n      pop\n      swap5\n      pop\n      swap5\n      pop\n      pop\n        /* \"contracts/Struct.sol\":956:1189  function infoBook(uint _index) public view returns (string memory title, string memory author, uint id, bool isReady) {... */\n      swap2\n      swap4\n      pop\n      swap2\n      swap4\n      jump\t// out\n        /* \"contracts/Struct.sol\":356:514  function showBook() public view returns (string memory, string memory, uint, bool){... */\n    tag_16:\n        /* \"contracts/Struct.sol\":397:410  string memory */\n      0x60\n        /* \"contracts/Struct.sol\":412:425  string memory */\n      dup1\n        /* \"contracts/Struct.sol\":427:431  uint */\n      0x00\n        /* \"contracts/Struct.sol\":433:437  bool */\n      dup1\n        /* \"contracts/Struct.sol\":456:461  buku1 */\n      0x00\n        /* \"contracts/Struct.sol\":456:467  buku1.title */\n      dup1\n      add\n        /* \"contracts/Struct.sol\":469:474  buku1 */\n      0x00\n        /* \"contracts/Struct.sol\":469:481  buku1.author */\n      0x01\n      add\n        /* \"contracts/Struct.sol\":483:488  buku1 */\n      0x00\n        /* \"contracts/Struct.sol\":483:491  buku1.id */\n      0x02\n      add\n      sload\n        /* \"contracts/Struct.sol\":493:498  buku1 */\n      0x00\n        /* \"contracts/Struct.sol\":493:506  buku1.isReady */\n      0x03\n      add\n      0x00\n      swap1\n      sload\n      swap1\n      0x0100\n      exp\n      swap1\n      div\n      0xff\n      and\n        /* \"contracts/Struct.sol\":448:507  return (buku1.title, buku1.author, buku1.id, buku1.isReady) */\n      dup4\n      dup1\n      sload\n      tag_49\n      swap1\n      tag_38\n      jump\t// in\n    tag_49:\n      dup1\n      0x1f\n      add\n      0x20\n      dup1\n      swap2\n      div\n      mul\n      0x20\n      add\n      mload(0x40)\n      swap1\n      dup2\n      add\n      0x40\n      mstore\n      dup1\n      swap3\n      swap2\n      swap1\n      dup2\n      dup2\n      mstore\n      0x20\n      add\n      dup3\n      dup1\n      sload\n      tag_50\n      swap1\n      tag_38\n      jump\t// in\n    tag_50:\n      dup1\n      iszero\n      tag_51\n      jumpi\n      dup1\n      0x1f\n      lt\n      tag_52\n      jumpi\n      0x0100\n      dup1\n      dup4\n      sload\n      div\n      mul\n      dup4\n      mstore\n      swap2\n      0x20\n      add\n      swap2\n      jump(tag_51)\n    tag_52:\n      dup3\n      add\n      swap2\n      swap1\n      0x00\n      mstore\n      keccak256(0x00, 0x20)\n      swap1\n    tag_53:\n      dup2\n      sload\n      dup2\n      mstore\n      swap1\n      0x01\n      add\n      swap1\n      0x20\n      add\n      dup1\n      dup4\n      gt\n      tag_53\n      jumpi\n      dup3\n      swap1\n      sub\n      0x1f\n      and\n      dup3\n      add\n      swap2\n    tag_51:\n      pop\n      pop\n      pop\n      pop\n      pop\n      swap4\n      pop\n      dup3\n      dup1\n      sload\n      tag_54\n      swap1\n      tag_38\n      jump\t// in\n    tag_54:\n      dup1\n      0x1f\n      add\n      0x20\n      dup1\n      swap2\n      div\n      mul\n      0x20\n      add\n      mload(0x40)\n      swap1\n      dup2\n      add\n      0x40\n      mstore\n      dup1\n      swap3\n      swap2\n      swap1\n      dup2\n      dup2\n      mstore\n      0x20\n      add\n      dup3\n      dup1\n      sload\n      tag_55\n      swap1\n      tag_38\n      jump\t// in\n    tag_55:\n      dup1\n      iszero\n      tag_56\n      jumpi\n      dup1\n      0x1f\n      lt\n      tag_57\n      jumpi\n      0x0100\n      dup1\n      dup4\n      sload\n      div\n      mul\n      dup4\n      mstore\n      swap2\n      0x20\n      add\n      swap2\n      jump(tag_56)\n    tag_57:\n      dup3\n      add\n      swap2\n      swap1\n      0x00\n      mstore\n      keccak256(0x00, 0x20)\n      swap1\n    tag_58:\n      dup2\n      sload\n      dup2\n      mstore\n      swap1\n      0x01\n      add\n      swap1\n      0x20\n      add\n      dup1\n      dup4\n      gt\n      tag_58\n      jumpi\n      dup3\n      swap1\n      sub\n      0x1f\n      and\n      dup3\n      add\n      swap2\n    tag_56:\n      pop\n      pop\n      pop\n      pop\n      pop\n      swap3\n      pop\n      swap4\n      pop\n      swap4\n      pop\n      swap4\n      pop\n      swap4\n      pop\n        /* \"contracts/Struct.sol\":356:514  function showBook() public view returns (string memory, string memory, uint, bool){... */\n      swap1\n      swap2\n      swap3\n      swap4\n      jump\t// out\n        /* \"contracts/Struct.sol\":612:734  function showBook2() public view returns (string memory, string memory){... */\n    tag_19:\n        /* \"contracts/Struct.sol\":654:667  string memory */\n      0x60\n        /* \"contracts/Struct.sol\":669:682  string memory */\n      dup1\n        /* \"contracts/Struct.sol\":701:706  buku2 */\n      0x04\n        /* \"contracts/Struct.sol\":701:712  buku2.title */\n      0x00\n      add\n        /* \"contracts/Struct.sol\":714:719  buku2 */\n      0x04\n        /* \"contracts/Struct.sol\":714:726  buku2.author */\n      0x01\n      add\n        /* \"contracts/Struct.sol\":693:727  return (buku2.title, buku2.author) */\n      dup2\n      dup1\n      sload\n      tag_60\n      swap1\n      tag_38\n      jump\t// in\n    tag_60:\n      dup1\n      0x1f\n      add\n      0x20\n      dup1\n      swap2\n      div\n      mul\n      0x20\n      add\n      mload(0x40)\n      swap1\n      dup2\n      add\n      0x40\n      mstore\n      dup1\n      swap3\n      swap2\n      swap1\n      dup2\n      dup2\n      mstore\n      0x20\n      add\n      dup3\n      dup1\n      sload\n      tag_61\n      swap1\n      tag_38\n      jump\t// in\n    tag_61:\n      dup1\n      iszero\n      tag_62\n      jumpi\n      dup1\n      0x1f\n      lt\n      tag_63\n      jumpi\n      0x0100\n      dup1\n      dup4\n      sload\n      div\n      mul\n      dup4\n      mstore\n      swap2\n      0x20\n      add\n      swap2\n      jump(tag_62)\n    tag_63:\n      dup3\n      add\n      swap2\n      swap1\n      0x00\n      mstore\n      keccak256(0x00, 0x20)\n      swap1\n    tag_64:\n      dup2\n      sload\n      dup2\n      mstore\n      swap1\n      0x01\n      add\n      swap1\n      0x20\n      add\n      dup1\n      dup4\n      gt\n      tag_64\n      jumpi\n      dup3\n      swap1\n      sub\n      0x1f\n      and\n      dup3\n      add\n      swap2\n    tag_62:\n      pop\n      pop\n      pop\n      pop\n      pop\n      swap2\n      pop\n      dup1\n      dup1\n      sload\n      tag_65\n      swap1\n      tag_38\n      jump\t// in\n    tag_65:\n      dup1\n      0x1f\n      add\n      0x20\n      dup1\n      swap2\n      div\n      mul\n      0x20\n      add\n      mload(0x40)\n      swap1\n      dup2\n      add\n      0x40\n      mstore\n      dup1\n      swap3\n      swap2\n      swap1\n      dup2\n      dup2\n      mstore\n      0x20\n      add\n      dup3\n      dup1\n      sload\n      tag_66\n      swap1\n      tag_38\n      jump\t// in\n    tag_66:\n      dup1\n      iszero\n      tag_67\n      jumpi\n      dup1\n      0x1f\n      lt\n      tag_68\n      jumpi\n      0x0100\n      dup1\n      dup4\n      sload\n      div\n      mul\n      dup4\n      mstore\n      swap2\n      0x20\n      add\n      swap2\n      jump(tag_67)\n    tag_68:\n      dup3\n      add\n      swap2\n      swap1\n      0x00\n      mstore\n      keccak256(0x00, 0x20)\n      swap1\n    tag_69:\n      dup2\n      sload\n      dup2\n      mstore\n      swap1\n      0x01\n      add\n      swap1\n      0x20\n      add\n      dup1\n      dup4\n      gt\n      tag_69\n      jumpi\n      dup3\n      swap1\n      sub\n      0x1f\n      and\n      dup3\n      add\n      swap2\n    tag_67:\n      pop\n      pop\n      pop\n      pop\n      pop\n      swap1\n      pop\n      swap2\n      pop\n      swap2\n      pop\n        /* \"contracts/Struct.sol\":612:734  function showBook2() public view returns (string memory, string memory){... */\n      swap1\n      swap2\n      jump\t// out\n        /* \"contracts/Struct.sol\":261:351  function addBook() public {... */\n    tag_23:\n        /* \"contracts/Struct.sol\":305:344  Book(\"Sakti Hacker\", \"heker\", 69, true) */\n      mload(0x40)\n      dup1\n      0x80\n      add\n      0x40\n      mstore\n      dup1\n      mload(0x40)\n      dup1\n      0x40\n      add\n      0x40\n      mstore\n      dup1\n      0x0c\n      dup2\n      mstore\n      0x20\n      add\n      0x53616b7469204861636b65720000000000000000000000000000000000000000\n      dup2\n      mstore\n      pop\n      dup2\n      mstore\n      0x20\n      add\n      mload(0x40)\n      dup1\n      0x40\n      add\n      0x40\n      mstore\n      dup1\n      0x05\n      dup2\n      mstore\n      0x20\n      add\n      0x68656b6572000000000000000000000000000000000000000000000000000000\n      dup2\n      mstore\n      pop\n      dup2\n      mstore\n      0x20\n      add\n        /* \"contracts/Struct.sol\":335:337  69 */\n      0x45\n        /* \"contracts/Struct.sol\":305:344  Book(\"Sakti Hacker\", \"heker\", 69, true) */\n      dup2\n      mstore\n      0x20\n      add\n        /* \"contracts/Struct.sol\":339:343  true */\n      0x01\n        /* \"contracts/Struct.sol\":305:344  Book(\"Sakti Hacker\", \"heker\", 69, true) */\n      iszero\n      iszero\n      dup2\n      mstore\n      pop\n        /* \"contracts/Struct.sol\":297:302  buku1 */\n      0x00\n        /* \"contracts/Struct.sol\":297:344  buku1 = Book(\"Sakti Hacker\", \"heker\", 69, true) */\n      dup1\n      dup3\n      add\n      mload\n      dup2\n      0x00\n      add\n      swap1\n      dup2\n      tag_71\n      swap2\n      swap1\n      tag_72\n      jump\t// in\n    tag_71:\n      pop\n      0x20\n      dup3\n      add\n      mload\n      dup2\n      0x01\n      add\n      swap1\n      dup2\n      tag_73\n      swap2\n      swap1\n      tag_72\n      jump\t// in\n    tag_73:\n      pop\n      0x40\n      dup3\n      add\n      mload\n      dup2\n      0x02\n      add\n      sstore\n      0x60\n      dup3\n      add\n      mload\n      dup2\n      0x03\n      add\n      exp(0x0100, 0x00)\n      dup2\n      sload\n      dup2\n      0xff\n      mul\n      not\n      and\n      swap1\n      dup4\n      iszero\n      iszero\n      mul\n      or\n      swap1\n      sstore\n      pop\n      swap1\n      pop\n      pop\n        /* \"contracts/Struct.sol\":261:351  function addBook() public {... */\n      jump\t// out\n        /* \"contracts/Struct.sol\":774:793  Book[] public buku3 */\n    tag_26:\n      0x08\n      dup2\n      dup2\n      sload\n      dup2\n      lt\n      tag_74\n      jumpi\n      0x00\n      dup1\n      revert\n    tag_74:\n      swap1\n      0x00\n      mstore\n      keccak256(0x00, 0x20)\n      swap1\n      0x04\n      mul\n      add\n      0x00\n      swap2\n      pop\n      swap1\n      pop\n      dup1\n      0x00\n      add\n      dup1\n      sload\n      tag_76\n      swap1\n      tag_38\n      jump\t// in\n    tag_76:\n      dup1\n      0x1f\n      add\n      0x20\n      dup1\n      swap2\n      div\n      mul\n      0x20\n      add\n      mload(0x40)\n      swap1\n      dup2\n      add\n      0x40\n      mstore\n      dup1\n      swap3\n      swap2\n      swap1\n      dup2\n      dup2\n      mstore\n      0x20\n      add\n      dup3\n      dup1\n      sload\n      tag_77\n      swap1\n      tag_38\n      jump\t// in\n    tag_77:\n      dup1\n      iszero\n      tag_78\n      jumpi\n      dup1\n      0x1f\n      lt\n      tag_79\n      jumpi\n      0x0100\n      dup1\n      dup4\n      sload\n      div\n      mul\n      dup4\n      mstore\n      swap2\n      0x20\n      add\n      swap2\n      jump(tag_78)\n    tag_79:\n      dup3\n      add\n      swap2\n      swap1\n      0x00\n      mstore\n      keccak256(0x00, 0x20)\n      swap1\n    tag_80:\n      dup2\n      sload\n      dup2\n      mstore\n      swap1\n      0x01\n      add\n      swap1\n      0x20\n      add\n      dup1\n      dup4\n      gt\n      tag_80\n      jumpi\n      dup3\n      swap1\n      sub\n      0x1f\n      and\n      dup3\n      add\n      swap2\n    tag_78:\n      pop\n      pop\n      pop\n      pop\n      pop\n      swap1\n      dup1\n      0x01\n      add\n      dup1\n      sload\n      tag_81\n      swap1\n      tag_38\n      jump\t// in\n    tag_81:\n      dup1\n      0x1f\n      add\n      0x20\n      dup1\n      swap2\n      div\n      mul\n      0x20\n      add\n      mload(0x40)\n      swap1\n      dup2\n      add\n      0x40\n      mstore\n      dup1\n      swap3\n      swap2\n      swap1\n      dup2\n      dup2\n      mstore\n      0x20\n      add\n      dup3\n      dup1\n      sload\n      tag_82\n      swap1\n      tag_38\n      jump\t// in\n    tag_82:\n      dup1\n      iszero\n      tag_83\n      jumpi\n      dup1\n      0x1f\n      lt\n      tag_84\n      jumpi\n      0x0100\n      dup1\n      dup4\n      sload\n      div\n      mul\n      dup4\n      mstore\n      swap2\n      0x20\n      add\n      swap2\n      jump(tag_83)\n    tag_84:\n      dup3\n      add\n      swap2\n      swap1\n      0x00\n      mstore\n      keccak256(0x00, 0x20)\n      swap1\n    tag_85:\n      dup2\n      sload\n      dup2\n      mstore\n      swap1\n      0x01\n      add\n      swap1\n      0x20\n      add\n      dup1\n      dup4\n      gt\n      tag_85\n      jumpi\n      dup3\n      swap1\n      sub\n      0x1f\n      and\n      dup3\n      add\n      swap2\n    tag_83:\n      pop\n      pop\n      pop\n      pop\n      pop\n      swap1\n      dup1\n      0x02\n      add\n      sload\n      swap1\n      dup1\n      0x03\n      add\n      0x00\n      swap1\n      sload\n      swap1\n      0x0100\n      exp\n      swap1\n      div\n      0xff\n      and\n      swap1\n      pop\n      dup5\n      jump\t// out\n        /* \"contracts/Struct.sol\":800:951  function newBook(string memory title, string memory author, uint id, bool isReady) public {... */\n    tag_31:\n        /* \"contracts/Struct.sol\":900:905  buku3 */\n      0x08\n        /* \"contracts/Struct.sol\":911:943  Book(title, author, id, isReady) */\n      mload(0x40)\n      dup1\n      0x80\n      add\n      0x40\n      mstore\n      dup1\n        /* \"contracts/Struct.sol\":916:921  title */\n      dup7\n        /* \"contracts/Struct.sol\":911:943  Book(title, author, id, isReady) */\n      dup2\n      mstore\n      0x20\n      add\n        /* \"contracts/Struct.sol\":923:929  author */\n      dup6\n        /* \"contracts/Struct.sol\":911:943  Book(title, author, id, isReady) */\n      dup2\n      mstore\n      0x20\n      add\n        /* \"contracts/Struct.sol\":931:933  id */\n      dup5\n        /* \"contracts/Struct.sol\":911:943  Book(title, author, id, isReady) */\n      dup2\n      mstore\n      0x20\n      add\n        /* \"contracts/Struct.sol\":935:942  isReady */\n      dup4\n        /* \"contracts/Struct.sol\":911:943  Book(title, author, id, isReady) */\n      iszero\n      iszero\n      dup2\n      mstore\n      pop\n        /* \"contracts/Struct.sol\":900:944  buku3.push(Book(title, author, id, isReady)) */\n      swap1\n      dup1\n      0x01\n      dup2\n      sload\n      add\n      dup1\n      dup3\n      sstore\n      dup1\n      swap2\n      pop\n      pop\n      0x01\n      swap1\n      sub\n      swap1\n      0x00\n      mstore\n      keccak256(0x00, 0x20)\n      swap1\n      0x04\n      mul\n      add\n      0x00\n      swap1\n      swap2\n      swap1\n      swap2\n      swap1\n      swap2\n      pop\n      0x00\n      dup3\n      add\n      mload\n      dup2\n      0x00\n      add\n      swap1\n      dup2\n      tag_88\n      swap2\n      swap1\n      tag_72\n      jump\t// in\n    tag_88:\n      pop\n      0x20\n      dup3\n      add\n      mload\n      dup2\n      0x01\n      add\n      swap1\n      dup2\n      tag_89\n      swap2\n      swap1\n      tag_72\n      jump\t// in\n    tag_89:\n      pop\n      0x40\n      dup3\n      add\n      mload\n      dup2\n      0x02\n      add\n      sstore\n      0x60\n      dup3\n      add\n      mload\n      dup2\n      0x03\n      add\n      exp(0x0100, 0x00)\n      dup2\n      sload\n      dup2\n      0xff\n      mul\n      not\n      and\n      swap1\n      dup4\n      iszero\n      iszero\n      mul\n      or\n      swap1\n      sstore\n      pop\n      pop\n      pop\n        /* \"contracts/Struct.sol\":800:951  function newBook(string memory title, string memory author, uint id, bool isReady) public {... */\n      pop\n      pop\n      pop\n      pop\n      jump\t// out\n        /* \"#utility.yul\":7:82   */\n    tag_90:\n        /* \"#utility.yul\":40:46   */\n      0x00\n        /* \"#utility.yul\":73:75   */\n      0x40\n        /* \"#utility.yul\":67:76   */\n      mload\n        /* \"#utility.yul\":57:76   */\n      swap1\n      pop\n        /* \"#utility.yul\":7:82   */\n      swap1\n      jump\t// out\n        /* \"#utility.yul\":88:205   */\n    tag_91:\n        /* \"#utility.yul\":197:198   */\n      0x00\n        /* \"#utility.yul\":194:195   */\n      dup1\n        /* \"#utility.yul\":187:199   */\n      revert\n        /* \"#utility.yul\":211:328   */\n    tag_92:\n        /* \"#utility.yul\":320:321   */\n      0x00\n        /* \"#utility.yul\":317:318   */\n      dup1\n        /* \"#utility.yul\":310:322   */\n      revert\n        /* \"#utility.yul\":334:411   */\n    tag_93:\n        /* \"#utility.yul\":371:378   */\n      0x00\n        /* \"#utility.yul\":400:405   */\n      dup2\n        /* \"#utility.yul\":389:405   */\n      swap1\n      pop\n        /* \"#utility.yul\":334:411   */\n      swap2\n      swap1\n      pop\n      jump\t// out\n        /* \"#utility.yul\":417:539   */\n    tag_94:\n        /* \"#utility.yul\":490:514   */\n      tag_137\n        /* \"#utility.yul\":508:513   */\n      dup2\n        /* \"#utility.yul\":490:514   */\n      tag_93\n      jump\t// in\n    tag_137:\n        /* \"#utility.yul\":483:488   */\n      dup2\n        /* \"#utility.yul\":480:515   */\n      eq\n        /* \"#utility.yul\":470:533   */\n      tag_138\n      jumpi\n        /* \"#utility.yul\":529:530   */\n      0x00\n        /* \"#utility.yul\":526:527   */\n      dup1\n        /* \"#utility.yul\":519:531   */\n      revert\n        /* \"#utility.yul\":470:533   */\n    tag_138:\n        /* \"#utility.yul\":417:539   */\n      pop\n      jump\t// out\n        /* \"#utility.yul\":545:684   */\n    tag_95:\n        /* \"#utility.yul\":591:596   */\n      0x00\n        /* \"#utility.yul\":629:635   */\n      dup2\n        /* \"#utility.yul\":616:636   */\n      calldataload\n        /* \"#utility.yul\":607:636   */\n      swap1\n      pop\n        /* \"#utility.yul\":645:678   */\n      tag_140\n        /* \"#utility.yul\":672:677   */\n      dup2\n        /* \"#utility.yul\":645:678   */\n      tag_94\n      jump\t// in\n    tag_140:\n        /* \"#utility.yul\":545:684   */\n      swap3\n      swap2\n      pop\n      pop\n      jump\t// out\n        /* \"#utility.yul\":690:1019   */\n    tag_11:\n        /* \"#utility.yul\":749:755   */\n      0x00\n        /* \"#utility.yul\":798:800   */\n      0x20\n        /* \"#utility.yul\":786:795   */\n      dup3\n        /* \"#utility.yul\":777:784   */\n      dup5\n        /* \"#utility.yul\":773:796   */\n      sub\n        /* \"#utility.yul\":769:801   */\n      slt\n        /* \"#utility.yul\":766:885   */\n      iszero\n      tag_142\n      jumpi\n        /* \"#utility.yul\":804:883   */\n      tag_143\n      tag_91\n      jump\t// in\n    tag_143:\n        /* \"#utility.yul\":766:885   */\n    tag_142:\n        /* \"#utility.yul\":924:925   */\n      0x00\n        /* \"#utility.yul\":949:1002   */\n      tag_144\n        /* \"#utility.yul\":994:1001   */\n      dup5\n        /* \"#utility.yul\":985:991   */\n      dup3\n        /* \"#utility.yul\":974:983   */\n      dup6\n        /* \"#utility.yul\":970:992   */\n      add\n        /* \"#utility.yul\":949:1002   */\n      tag_95\n      jump\t// in\n    tag_144:\n        /* \"#utility.yul\":939:1002   */\n      swap2\n      pop\n        /* \"#utility.yul\":895:1012   */\n      pop\n        /* \"#utility.yul\":690:1019   */\n      swap3\n      swap2\n      pop\n      pop\n      jump\t// out\n        /* \"#utility.yul\":1025:1124   */\n    tag_96:\n        /* \"#utility.yul\":1077:1083   */\n      0x00\n        /* \"#utility.yul\":1111:1116   */\n      dup2\n        /* \"#utility.yul\":1105:1117   */\n      mload\n        /* \"#utility.yul\":1095:1117   */\n      swap1\n      pop\n        /* \"#utility.yul\":1025:1124   */\n      swap2\n      swap1\n      pop\n      jump\t// out\n        /* \"#utility.yul\":1130:1299   */\n    tag_97:\n        /* \"#utility.yul\":1214:1225   */\n      0x00\n        /* \"#utility.yul\":1248:1254   */\n      dup3\n        /* \"#utility.yul\":1243:1246   */\n      dup3\n        /* \"#utility.yul\":1236:1255   */\n      mstore\n        /* \"#utility.yul\":1288:1292   */\n      0x20\n        /* \"#utility.yul\":1283:1286   */\n      dup3\n        /* \"#utility.yul\":1279:1293   */\n      add\n        /* \"#utility.yul\":1264:1293   */\n      swap1\n      pop\n        /* \"#utility.yul\":1130:1299   */\n      swap3\n      swap2\n      pop\n      pop\n      jump\t// out\n        /* \"#utility.yul\":1305:1444   */\n    tag_98:\n        /* \"#utility.yul\":1394:1400   */\n      dup3\n        /* \"#utility.yul\":1389:1392   */\n      dup2\n        /* \"#utility.yul\":1384:1387   */\n      dup4\n        /* \"#utility.yul\":1378:1401   */\n      mcopy\n        /* \"#utility.yul\":1435:1436   */\n      0x00\n        /* \"#utility.yul\":1426:1432   */\n      dup4\n        /* \"#utility.yul\":1421:1424   */\n      dup4\n        /* \"#utility.yul\":1417:1433   */\n      add\n        /* \"#utility.yul\":1410:1437   */\n      mstore\n        /* \"#utility.yul\":1305:1444   */\n      pop\n      pop\n      pop\n      jump\t// out\n        /* \"#utility.yul\":1450:1552   */\n    tag_99:\n        /* \"#utility.yul\":1491:1497   */\n      0x00\n        /* \"#utility.yul\":1542:1544   */\n      0x1f\n        /* \"#utility.yul\":1538:1545   */\n      not\n        /* \"#utility.yul\":1533:1535   */\n      0x1f\n        /* \"#utility.yul\":1526:1531   */\n      dup4\n        /* \"#utility.yul\":1522:1536   */\n      add\n        /* \"#utility.yul\":1518:1546   */\n      and\n        /* \"#utility.yul\":1508:1546   */\n      swap1\n      pop\n        /* \"#utility.yul\":1450:1552   */\n      swap2\n      swap1\n      pop\n      jump\t// out\n        /* \"#utility.yul\":1558:1935   */\n    tag_100:\n        /* \"#utility.yul\":1646:1649   */\n      0x00\n        /* \"#utility.yul\":1674:1713   */\n      tag_150\n        /* \"#utility.yul\":1707:1712   */\n      dup3\n        /* \"#utility.yul\":1674:1713   */\n      tag_96\n      jump\t// in\n    tag_150:\n        /* \"#utility.yul\":1729:1800   */\n      tag_151\n        /* \"#utility.yul\":1793:1799   */\n      dup2\n        /* \"#utility.yul\":1788:1791   */\n      dup6\n        /* \"#utility.yul\":1729:1800   */\n      tag_97\n      jump\t// in\n    tag_151:\n        /* \"#utility.yul\":1722:1800   */\n      swap4\n      pop\n        /* \"#utility.yul\":1809:1874   */\n      tag_152\n        /* \"#utility.yul\":1867:1873   */\n      dup2\n        /* \"#utility.yul\":1862:1865   */\n      dup6\n        /* \"#utility.yul\":1855:1859   */\n      0x20\n        /* \"#utility.yul\":1848:1853   */\n      dup7\n        /* \"#utility.yul\":1844:1860   */\n      add\n        /* \"#utility.yul\":1809:1874   */\n      tag_98\n      jump\t// in\n    tag_152:\n        /* \"#utility.yul\":1899:1928   */\n      tag_153\n        /* \"#utility.yul\":1921:1927   */\n      dup2\n        /* \"#utility.yul\":1899:1928   */\n      tag_99\n      jump\t// in\n    tag_153:\n        /* \"#utility.yul\":1894:1897   */\n      dup5\n        /* \"#utility.yul\":1890:1929   */\n      add\n        /* \"#utility.yul\":1883:1929   */\n      swap2\n      pop\n        /* \"#utility.yul\":1650:1935   */\n      pop\n        /* \"#utility.yul\":1558:1935   */\n      swap3\n      swap2\n      pop\n      pop\n      jump\t// out\n        /* \"#utility.yul\":1941:2059   */\n    tag_101:\n        /* \"#utility.yul\":2028:2052   */\n      tag_155\n        /* \"#utility.yul\":2046:2051   */\n      dup2\n        /* \"#utility.yul\":2028:2052   */\n      tag_93\n      jump\t// in\n    tag_155:\n        /* \"#utility.yul\":2023:2026   */\n      dup3\n        /* \"#utility.yul\":2016:2053   */\n      mstore\n        /* \"#utility.yul\":1941:2059   */\n      pop\n      pop\n      jump\t// out\n        /* \"#utility.yul\":2065:2155   */\n    tag_102:\n        /* \"#utility.yul\":2099:2106   */\n      0x00\n        /* \"#utility.yul\":2142:2147   */\n      dup2\n        /* \"#utility.yul\":2135:2148   */\n      iszero\n        /* \"#utility.yul\":2128:2149   */\n      iszero\n        /* \"#utility.yul\":2117:2149   */\n      swap1\n      pop\n        /* \"#utility.yul\":2065:2155   */\n      swap2\n      swap1\n      pop\n      jump\t// out\n        /* \"#utility.yul\":2161:2270   */\n    tag_103:\n        /* \"#utility.yul\":2242:2263   */\n      tag_158\n        /* \"#utility.yul\":2257:2262   */\n      dup2\n        /* \"#utility.yul\":2242:2263   */\n      tag_102\n      jump\t// in\n    tag_158:\n        /* \"#utility.yul\":2237:2240   */\n      dup3\n        /* \"#utility.yul\":2230:2264   */\n      mstore\n        /* \"#utility.yul\":2161:2270   */\n      pop\n      pop\n      jump\t// out\n        /* \"#utility.yul\":2276:2999   */\n    tag_14:\n        /* \"#utility.yul\":2487:2491   */\n      0x00\n        /* \"#utility.yul\":2525:2528   */\n      0x80\n        /* \"#utility.yul\":2514:2523   */\n      dup3\n        /* \"#utility.yul\":2510:2529   */\n      add\n        /* \"#utility.yul\":2502:2529   */\n      swap1\n      pop\n        /* \"#utility.yul\":2575:2584   */\n      dup2\n        /* \"#utility.yul\":2569:2573   */\n      dup2\n        /* \"#utility.yul\":2565:2585   */\n      sub\n        /* \"#utility.yul\":2561:2562   */\n      0x00\n        /* \"#utility.yul\":2550:2559   */\n      dup4\n        /* \"#utility.yul\":2546:2563   */\n      add\n        /* \"#utility.yul\":2539:2586   */\n      mstore\n        /* \"#utility.yul\":2603:2681   */\n      tag_160\n        /* \"#utility.yul\":2676:2680   */\n      dup2\n        /* \"#utility.yul\":2667:2673   */\n      dup8\n        /* \"#utility.yul\":2603:2681   */\n      tag_100\n      jump\t// in\n    tag_160:\n        /* \"#utility.yul\":2595:2681   */\n      swap1\n      pop\n        /* \"#utility.yul\":2728:2737   */\n      dup2\n        /* \"#utility.yul\":2722:2726   */\n      dup2\n        /* \"#utility.yul\":2718:2738   */\n      sub\n        /* \"#utility.yul\":2713:2715   */\n      0x20\n        /* \"#utility.yul\":2702:2711   */\n      dup4\n        /* \"#utility.yul\":2698:2716   */\n      add\n        /* \"#utility.yul\":2691:2739   */\n      mstore\n        /* \"#utility.yul\":2756:2834   */\n      tag_161\n        /* \"#utility.yul\":2829:2833   */\n      dup2\n        /* \"#utility.yul\":2820:2826   */\n      dup7\n        /* \"#utility.yul\":2756:2834   */\n      tag_100\n      jump\t// in\n    tag_161:\n        /* \"#utility.yul\":2748:2834   */\n      swap1\n      pop\n        /* \"#utility.yul\":2844:2916   */\n      tag_162\n        /* \"#utility.yul\":2912:2914   */\n      0x40\n        /* \"#utility.yul\":2901:2910   */\n      dup4\n        /* \"#utility.yul\":2897:2915   */\n      add\n        /* \"#utility.yul\":2888:2894   */\n      dup6\n        /* \"#utility.yul\":2844:2916   */\n      tag_101\n      jump\t// in\n    tag_162:\n        /* \"#utility.yul\":2926:2992   */\n      tag_163\n        /* \"#utility.yul\":2988:2990   */\n      0x60\n        /* \"#utility.yul\":2977:2986   */\n      dup4\n        /* \"#utility.yul\":2973:2991   */\n      add\n        /* \"#utility.yul\":2964:2970   */\n      dup5\n        /* \"#utility.yul\":2926:2992   */\n      tag_103\n      jump\t// in\n    tag_163:\n        /* \"#utility.yul\":2276:2999   */\n      swap6\n      swap5\n      pop\n      pop\n      pop\n      pop\n      pop\n      jump\t// out\n        /* \"#utility.yul\":3005:3519   */\n    tag_21:\n        /* \"#utility.yul\":3166:3170   */\n      0x00\n        /* \"#utility.yul\":3204:3206   */\n      0x40\n        /* \"#utility.yul\":3193:3202   */\n      dup3\n        /* \"#utility.yul\":3189:3207   */\n      add\n        /* \"#utility.yul\":3181:3207   */\n      swap1\n      pop\n        /* \"#utility.yul\":3253:3262   */\n      dup2\n        /* \"#utility.yul\":3247:3251   */\n      dup2\n        /* \"#utility.yul\":3243:3263   */\n      sub\n        /* \"#utility.yul\":3239:3240   */\n      0x00\n        /* \"#utility.yul\":3228:3237   */\n      dup4\n        /* \"#utility.yul\":3224:3241   */\n      add\n        /* \"#utility.yul\":3217:3264   */\n      mstore\n        /* \"#utility.yul\":3281:3359   */\n      tag_165\n        /* \"#utility.yul\":3354:3358   */\n      dup2\n        /* \"#utility.yul\":3345:3351   */\n      dup6\n        /* \"#utility.yul\":3281:3359   */\n      tag_100\n      jump\t// in\n    tag_165:\n        /* \"#utility.yul\":3273:3359   */\n      swap1\n      pop\n        /* \"#utility.yul\":3406:3415   */\n      dup2\n        /* \"#utility.yul\":3400:3404   */\n      dup2\n        /* \"#utility.yul\":3396:3416   */\n      sub\n        /* \"#utility.yul\":3391:3393   */\n      0x20\n        /* \"#utility.yul\":3380:3389   */\n      dup4\n        /* \"#utility.yul\":3376:3394   */\n      add\n        /* \"#utility.yul\":3369:3417   */\n      mstore\n        /* \"#utility.yul\":3434:3512   */\n      tag_166\n        /* \"#utility.yul\":3507:3511   */\n      dup2\n        /* \"#utility.yul\":3498:3504   */\n      dup5\n        /* \"#utility.yul\":3434:3512   */\n      tag_100\n      jump\t// in\n    tag_166:\n        /* \"#utility.yul\":3426:3512   */\n      swap1\n      pop\n        /* \"#utility.yul\":3005:3519   */\n      swap4\n      swap3\n      pop\n      pop\n      pop\n      jump\t// out\n        /* \"#utility.yul\":3525:3642   */\n    tag_104:\n        /* \"#utility.yul\":3634:3635   */\n      0x00\n        /* \"#utility.yul\":3631:3632   */\n      dup1\n        /* \"#utility.yul\":3624:3636   */\n      revert\n        /* \"#utility.yul\":3648:3765   */\n    tag_105:\n        /* \"#utility.yul\":3757:3758   */\n      0x00\n        /* \"#utility.yul\":3754:3755   */\n      dup1\n        /* \"#utility.yul\":3747:3759   */\n      revert\n        /* \"#utility.yul\":3771:3951   */\n    tag_106:\n        /* \"#utility.yul\":3819:3896   */\n      0x4e487b7100000000000000000000000000000000000000000000000000000000\n        /* \"#utility.yul\":3816:3817   */\n      0x00\n        /* \"#utility.yul\":3809:3897   */\n      mstore\n        /* \"#utility.yul\":3916:3920   */\n      0x41\n        /* \"#utility.yul\":3913:3914   */\n      0x04\n        /* \"#utility.yul\":3906:3921   */\n      mstore\n        /* \"#utility.yul\":3940:3944   */\n      0x24\n        /* \"#utility.yul\":3937:3938   */\n      0x00\n        /* \"#utility.yul\":3930:3945   */\n      revert\n        /* \"#utility.yul\":3957:4238   */\n    tag_107:\n        /* \"#utility.yul\":4040:4067   */\n      tag_171\n        /* \"#utility.yul\":4062:4066   */\n      dup3\n        /* \"#utility.yul\":4040:4067   */\n      tag_99\n      jump\t// in\n    tag_171:\n        /* \"#utility.yul\":4032:4038   */\n      dup2\n        /* \"#utility.yul\":4028:4068   */\n      add\n        /* \"#utility.yul\":4170:4176   */\n      dup2\n        /* \"#utility.yul\":4158:4168   */\n      dup2\n        /* \"#utility.yul\":4155:4177   */\n      lt\n        /* \"#utility.yul\":4134:4152   */\n      0xffffffffffffffff\n        /* \"#utility.yul\":4122:4132   */\n      dup3\n        /* \"#utility.yul\":4119:4153   */\n      gt\n        /* \"#utility.yul\":4116:4178   */\n      or\n        /* \"#utility.yul\":4113:4201   */\n      iszero\n      tag_172\n      jumpi\n        /* \"#utility.yul\":4181:4199   */\n      tag_173\n      tag_106\n      jump\t// in\n    tag_173:\n        /* \"#utility.yul\":4113:4201   */\n    tag_172:\n        /* \"#utility.yul\":4221:4231   */\n      dup1\n        /* \"#utility.yul\":4217:4219   */\n      0x40\n        /* \"#utility.yul\":4210:4232   */\n      mstore\n        /* \"#utility.yul\":4000:4238   */\n      pop\n        /* \"#utility.yul\":3957:4238   */\n      pop\n      pop\n      jump\t// out\n        /* \"#utility.yul\":4244:4373   */\n    tag_108:\n        /* \"#utility.yul\":4278:4284   */\n      0x00\n        /* \"#utility.yul\":4305:4325   */\n      tag_175\n      tag_90\n      jump\t// in\n    tag_175:\n        /* \"#utility.yul\":4295:4325   */\n      swap1\n      pop\n        /* \"#utility.yul\":4334:4367   */\n      tag_176\n        /* \"#utility.yul\":4362:4366   */\n      dup3\n        /* \"#utility.yul\":4354:4360   */\n      dup3\n        /* \"#utility.yul\":4334:4367   */\n      tag_107\n      jump\t// in\n    tag_176:\n        /* \"#utility.yul\":4244:4373   */\n      swap2\n      swap1\n      pop\n      jump\t// out\n        /* \"#utility.yul\":4379:4687   */\n    tag_109:\n        /* \"#utility.yul\":4441:4445   */\n      0x00\n        /* \"#utility.yul\":4531:4549   */\n      0xffffffffffffffff\n        /* \"#utility.yul\":4523:4529   */\n      dup3\n        /* \"#utility.yul\":4520:4550   */\n      gt\n        /* \"#utility.yul\":4517:4573   */\n      iszero\n      tag_178\n      jumpi\n        /* \"#utility.yul\":4553:4571   */\n      tag_179\n      tag_106\n      jump\t// in\n    tag_179:\n        /* \"#utility.yul\":4517:4573   */\n    tag_178:\n        /* \"#utility.yul\":4591:4620   */\n      tag_180\n        /* \"#utility.yul\":4613:4619   */\n      dup3\n        /* \"#utility.yul\":4591:4620   */\n      tag_99\n      jump\t// in\n    tag_180:\n        /* \"#utility.yul\":4583:4620   */\n      swap1\n      pop\n        /* \"#utility.yul\":4675:4679   */\n      0x20\n        /* \"#utility.yul\":4669:4673   */\n      dup2\n        /* \"#utility.yul\":4665:4680   */\n      add\n        /* \"#utility.yul\":4657:4680   */\n      swap1\n      pop\n        /* \"#utility.yul\":4379:4687   */\n      swap2\n      swap1\n      pop\n      jump\t// out\n        /* \"#utility.yul\":4693:4841   */\n    tag_110:\n        /* \"#utility.yul\":4791:4797   */\n      dup3\n        /* \"#utility.yul\":4786:4789   */\n      dup2\n        /* \"#utility.yul\":4781:4784   */\n      dup4\n        /* \"#utility.yul\":4768:4798   */\n      calldatacopy\n        /* \"#utility.yul\":4832:4833   */\n      0x00\n        /* \"#utility.yul\":4823:4829   */\n      dup4\n        /* \"#utility.yul\":4818:4821   */\n      dup4\n        /* \"#utility.yul\":4814:4830   */\n      add\n        /* \"#utility.yul\":4807:4834   */\n      mstore\n        /* \"#utility.yul\":4693:4841   */\n      pop\n      pop\n      pop\n      jump\t// out\n        /* \"#utility.yul\":4847:5272   */\n    tag_111:\n        /* \"#utility.yul\":4925:4930   */\n      0x00\n        /* \"#utility.yul\":4950:5016   */\n      tag_183\n        /* \"#utility.yul\":4966:5015   */\n      tag_184\n        /* \"#utility.yul\":5008:5014   */\n      dup5\n        /* \"#utility.yul\":4966:5015   */\n      tag_109\n      jump\t// in\n    tag_184:\n        /* \"#utility.yul\":4950:5016   */\n      tag_108\n      jump\t// in\n    tag_183:\n        /* \"#utility.yul\":4941:5016   */\n      swap1\n      pop\n        /* \"#utility.yul\":5039:5045   */\n      dup3\n        /* \"#utility.yul\":5032:5037   */\n      dup2\n        /* \"#utility.yul\":5025:5046   */\n      mstore\n        /* \"#utility.yul\":5077:5081   */\n      0x20\n        /* \"#utility.yul\":5070:5075   */\n      dup2\n        /* \"#utility.yul\":5066:5082   */\n      add\n        /* \"#utility.yul\":5115:5118   */\n      dup5\n        /* \"#utility.yul\":5106:5112   */\n      dup5\n        /* \"#utility.yul\":5101:5104   */\n      dup5\n        /* \"#utility.yul\":5097:5113   */\n      add\n        /* \"#utility.yul\":5094:5119   */\n      gt\n        /* \"#utility.yul\":5091:5203   */\n      iszero\n      tag_185\n      jumpi\n        /* \"#utility.yul\":5122:5201   */\n      tag_186\n      tag_105\n      jump\t// in\n    tag_186:\n        /* \"#utility.yul\":5091:5203   */\n    tag_185:\n        /* \"#utility.yul\":5212:5266   */\n      tag_187\n        /* \"#utility.yul\":5259:5265   */\n      dup5\n        /* \"#utility.yul\":5254:5257   */\n      dup3\n        /* \"#utility.yul\":5249:5252   */\n      dup6\n        /* \"#utility.yul\":5212:5266   */\n      tag_110\n      jump\t// in\n    tag_187:\n        /* \"#utility.yul\":4931:5272   */\n      pop\n        /* \"#utility.yul\":4847:5272   */\n      swap4\n      swap3\n      pop\n      pop\n      pop\n      jump\t// out\n        /* \"#utility.yul\":5292:5632   */\n    tag_112:\n        /* \"#utility.yul\":5348:5353   */\n      0x00\n        /* \"#utility.yul\":5397:5400   */\n      dup3\n        /* \"#utility.yul\":5390:5394   */\n      0x1f\n        /* \"#utility.yul\":5382:5388   */\n      dup4\n        /* \"#utility.yul\":5378:5395   */\n      add\n        /* \"#utility.yul\":5374:5401   */\n      slt\n        /* \"#utility.yul\":5364:5486   */\n      tag_189\n      jumpi\n        /* \"#utility.yul\":5405:5484   */\n      tag_190\n      tag_104\n      jump\t// in\n    tag_190:\n        /* \"#utility.yul\":5364:5486   */\n    tag_189:\n        /* \"#utility.yul\":5522:5528   */\n      dup2\n        /* \"#utility.yul\":5509:5529   */\n      calldataload\n        /* \"#utility.yul\":5547:5626   */\n      tag_191\n        /* \"#utility.yul\":5622:5625   */\n      dup5\n        /* \"#utility.yul\":5614:5620   */\n      dup3\n        /* \"#utility.yul\":5607:5611   */\n      0x20\n        /* \"#utility.yul\":5599:5605   */\n      dup7\n        /* \"#utility.yul\":5595:5612   */\n      add\n        /* \"#utility.yul\":5547:5626   */\n      tag_111\n      jump\t// in\n    tag_191:\n        /* \"#utility.yul\":5538:5626   */\n      swap2\n      pop\n        /* \"#utility.yul\":5354:5632   */\n      pop\n        /* \"#utility.yul\":5292:5632   */\n      swap3\n      swap2\n      pop\n      pop\n      jump\t// out\n        /* \"#utility.yul\":5638:5754   */\n    tag_113:\n        /* \"#utility.yul\":5708:5729   */\n      tag_193\n        /* \"#utility.yul\":5723:5728   */\n      dup2\n        /* \"#utility.yul\":5708:5729   */\n      tag_102\n      jump\t// in\n    tag_193:\n        /* \"#utility.yul\":5701:5706   */\n      dup2\n        /* \"#utility.yul\":5698:5730   */\n      eq\n        /* \"#utility.yul\":5688:5748   */\n      tag_194\n      jumpi\n        /* \"#utility.yul\":5744:5745   */\n      0x00\n        /* \"#utility.yul\":5741:5742   */\n      dup1\n        /* \"#utility.yul\":5734:5746   */\n      revert\n        /* \"#utility.yul\":5688:5748   */\n    tag_194:\n        /* \"#utility.yul\":5638:5754   */\n      pop\n      jump\t// out\n        /* \"#utility.yul\":5760:5893   */\n    tag_114:\n        /* \"#utility.yul\":5803:5808   */\n      0x00\n        /* \"#utility.yul\":5841:5847   */\n      dup2\n        /* \"#utility.yul\":5828:5848   */\n      calldataload\n        /* \"#utility.yul\":5819:5848   */\n      swap1\n      pop\n        /* \"#utility.yul\":5857:5887   */\n      tag_196\n        /* \"#utility.yul\":5881:5886   */\n      dup2\n        /* \"#utility.yul\":5857:5887   */\n      tag_113\n      jump\t// in\n    tag_196:\n        /* \"#utility.yul\":5760:5893   */\n      swap3\n      swap2\n      pop\n      pop\n      jump\t// out\n        /* \"#utility.yul\":5899:7018   */\n    tag_30:\n        /* \"#utility.yul\":6002:6008   */\n      0x00\n        /* \"#utility.yul\":6010:6016   */\n      dup1\n        /* \"#utility.yul\":6018:6024   */\n      0x00\n        /* \"#utility.yul\":6026:6032   */\n      dup1\n        /* \"#utility.yul\":6075:6078   */\n      0x80\n        /* \"#utility.yul\":6063:6072   */\n      dup6\n        /* \"#utility.yul\":6054:6061   */\n      dup8\n        /* \"#utility.yul\":6050:6073   */\n      sub\n        /* \"#utility.yul\":6046:6079   */\n      slt\n        /* \"#utility.yul\":6043:6163   */\n      iszero\n      tag_198\n      jumpi\n        /* \"#utility.yul\":6082:6161   */\n      tag_199\n      tag_91\n      jump\t// in\n    tag_199:\n        /* \"#utility.yul\":6043:6163   */\n    tag_198:\n        /* \"#utility.yul\":6230:6231   */\n      0x00\n        /* \"#utility.yul\":6219:6228   */\n      dup6\n        /* \"#utility.yul\":6215:6232   */\n      add\n        /* \"#utility.yul\":6202:6233   */\n      calldataload\n        /* \"#utility.yul\":6260:6278   */\n      0xffffffffffffffff\n        /* \"#utility.yul\":6252:6258   */\n      dup2\n        /* \"#utility.yul\":6249:6279   */\n      gt\n        /* \"#utility.yul\":6246:6363   */\n      iszero\n      tag_200\n      jumpi\n        /* \"#utility.yul\":6282:6361   */\n      tag_201\n      tag_92\n      jump\t// in\n    tag_201:\n        /* \"#utility.yul\":6246:6363   */\n    tag_200:\n        /* \"#utility.yul\":6387:6450   */\n      tag_202\n        /* \"#utility.yul\":6442:6449   */\n      dup8\n        /* \"#utility.yul\":6433:6439   */\n      dup3\n        /* \"#utility.yul\":6422:6431   */\n      dup9\n        /* \"#utility.yul\":6418:6440   */\n      add\n        /* \"#utility.yul\":6387:6450   */\n      tag_112\n      jump\t// in\n    tag_202:\n        /* \"#utility.yul\":6377:6450   */\n      swap5\n      pop\n        /* \"#utility.yul\":6173:6460   */\n      pop\n        /* \"#utility.yul\":6527:6529   */\n      0x20\n        /* \"#utility.yul\":6516:6525   */\n      dup6\n        /* \"#utility.yul\":6512:6530   */\n      add\n        /* \"#utility.yul\":6499:6531   */\n      calldataload\n        /* \"#utility.yul\":6558:6576   */\n      0xffffffffffffffff\n        /* \"#utility.yul\":6550:6556   */\n      dup2\n        /* \"#utility.yul\":6547:6577   */\n      gt\n        /* \"#utility.yul\":6544:6661   */\n      iszero\n      tag_203\n      jumpi\n        /* \"#utility.yul\":6580:6659   */\n      tag_204\n      tag_92\n      jump\t// in\n    tag_204:\n        /* \"#utility.yul\":6544:6661   */\n    tag_203:\n        /* \"#utility.yul\":6685:6748   */\n      tag_205\n        /* \"#utility.yul\":6740:6747   */\n      dup8\n        /* \"#utility.yul\":6731:6737   */\n      dup3\n        /* \"#utility.yul\":6720:6729   */\n      dup9\n        /* \"#utility.yul\":6716:6738   */\n      add\n        /* \"#utility.yul\":6685:6748   */\n      tag_112\n      jump\t// in\n    tag_205:\n        /* \"#utility.yul\":6675:6748   */\n      swap4\n      pop\n        /* \"#utility.yul\":6470:6758   */\n      pop\n        /* \"#utility.yul\":6797:6799   */\n      0x40\n        /* \"#utility.yul\":6823:6876   */\n      tag_206\n        /* \"#utility.yul\":6868:6875   */\n      dup8\n        /* \"#utility.yul\":6859:6865   */\n      dup3\n        /* \"#utility.yul\":6848:6857   */\n      dup9\n        /* \"#utility.yul\":6844:6866   */\n      add\n        /* \"#utility.yul\":6823:6876   */\n      tag_95\n      jump\t// in\n    tag_206:\n        /* \"#utility.yul\":6813:6876   */\n      swap3\n      pop\n        /* \"#utility.yul\":6768:6886   */\n      pop\n        /* \"#utility.yul\":6925:6927   */\n      0x60\n        /* \"#utility.yul\":6951:7001   */\n      tag_207\n        /* \"#utility.yul\":6993:7000   */\n      dup8\n        /* \"#utility.yul\":6984:6990   */\n      dup3\n        /* \"#utility.yul\":6973:6982   */\n      dup9\n        /* \"#utility.yul\":6969:6991   */\n      add\n        /* \"#utility.yul\":6951:7001   */\n      tag_114\n      jump\t// in\n    tag_207:\n        /* \"#utility.yul\":6941:7001   */\n      swap2\n      pop\n        /* \"#utility.yul\":6896:7011   */\n      pop\n        /* \"#utility.yul\":5899:7018   */\n      swap3\n      swap6\n      swap2\n      swap5\n      pop\n      swap3\n      pop\n      jump\t// out\n        /* \"#utility.yul\":7024:7204   */\n    tag_35:\n        /* \"#utility.yul\":7072:7149   */\n      0x4e487b7100000000000000000000000000000000000000000000000000000000\n        /* \"#utility.yul\":7069:7070   */\n      0x00\n        /* \"#utility.yul\":7062:7150   */\n      mstore\n        /* \"#utility.yul\":7169:7173   */\n      0x32\n        /* \"#utility.yul\":7166:7167   */\n      0x04\n        /* \"#utility.yul\":7159:7174   */\n      mstore\n        /* \"#utility.yul\":7193:7197   */\n      0x24\n        /* \"#utility.yul\":7190:7191   */\n      0x00\n        /* \"#utility.yul\":7183:7198   */\n      revert\n        /* \"#utility.yul\":7210:7390   */\n    tag_115:\n        /* \"#utility.yul\":7258:7335   */\n      0x4e487b7100000000000000000000000000000000000000000000000000000000\n        /* \"#utility.yul\":7255:7256   */\n      0x00\n        /* \"#utility.yul\":7248:7336   */\n      mstore\n        /* \"#utility.yul\":7355:7359   */\n      0x22\n        /* \"#utility.yul\":7352:7353   */\n      0x04\n        /* \"#utility.yul\":7345:7360   */\n      mstore\n        /* \"#utility.yul\":7379:7383   */\n      0x24\n        /* \"#utility.yul\":7376:7377   */\n      0x00\n        /* \"#utility.yul\":7369:7384   */\n      revert\n        /* \"#utility.yul\":7396:7716   */\n    tag_38:\n        /* \"#utility.yul\":7440:7446   */\n      0x00\n        /* \"#utility.yul\":7477:7478   */\n      0x02\n        /* \"#utility.yul\":7471:7475   */\n      dup3\n        /* \"#utility.yul\":7467:7479   */\n      div\n        /* \"#utility.yul\":7457:7479   */\n      swap1\n      pop\n        /* \"#utility.yul\":7524:7525   */\n      0x01\n        /* \"#utility.yul\":7518:7522   */\n      dup3\n        /* \"#utility.yul\":7514:7526   */\n      and\n        /* \"#utility.yul\":7545:7563   */\n      dup1\n        /* \"#utility.yul\":7535:7616   */\n      tag_211\n      jumpi\n        /* \"#utility.yul\":7601:7605   */\n      0x7f\n        /* \"#utility.yul\":7593:7599   */\n      dup3\n        /* \"#utility.yul\":7589:7606   */\n      and\n        /* \"#utility.yul\":7579:7606   */\n      swap2\n      pop\n        /* \"#utility.yul\":7535:7616   */\n    tag_211:\n        /* \"#utility.yul\":7663:7665   */\n      0x20\n        /* \"#utility.yul\":7655:7661   */\n      dup3\n        /* \"#utility.yul\":7652:7666   */\n      lt\n        /* \"#utility.yul\":7632:7650   */\n      dup2\n        /* \"#utility.yul\":7629:7667   */\n      sub\n        /* \"#utility.yul\":7626:7710   */\n      tag_212\n      jumpi\n        /* \"#utility.yul\":7682:7700   */\n      tag_213\n      tag_115\n      jump\t// in\n    tag_213:\n        /* \"#utility.yul\":7626:7710   */\n    tag_212:\n        /* \"#utility.yul\":7447:7716   */\n      pop\n        /* \"#utility.yul\":7396:7716   */\n      swap2\n      swap1\n      pop\n      jump\t// out\n        /* \"#utility.yul\":7722:7863   */\n    tag_116:\n        /* \"#utility.yul\":7771:7775   */\n      0x00\n        /* \"#utility.yul\":7794:7797   */\n      dup2\n        /* \"#utility.yul\":7786:7797   */\n      swap1\n      pop\n        /* \"#utility.yul\":7817:7820   */\n      dup2\n        /* \"#utility.yul\":7814:7815   */\n      0x00\n        /* \"#utility.yul\":7807:7821   */\n      mstore\n        /* \"#utility.yul\":7851:7855   */\n      0x20\n        /* \"#utility.yul\":7848:7849   */\n      0x00\n        /* \"#utility.yul\":7838:7856   */\n      keccak256\n        /* \"#utility.yul\":7830:7856   */\n      swap1\n      pop\n        /* \"#utility.yul\":7722:7863   */\n      swap2\n      swap1\n      pop\n      jump\t// out\n        /* \"#utility.yul\":7869:7962   */\n    tag_117:\n        /* \"#utility.yul\":7906:7912   */\n      0x00\n        /* \"#utility.yul\":7953:7955   */\n      0x20\n        /* \"#utility.yul\":7948:7950   */\n      0x1f\n        /* \"#utility.yul\":7941:7946   */\n      dup4\n        /* \"#utility.yul\":7937:7951   */\n      add\n        /* \"#utility.yul\":7933:7956   */\n      div\n        /* \"#utility.yul\":7923:7956   */\n      swap1\n      pop\n        /* \"#utility.yul\":7869:7962   */\n      swap2\n      swap1\n      pop\n      jump\t// out\n        /* \"#utility.yul\":7968:8075   */\n    tag_118:\n        /* \"#utility.yul\":8012:8020   */\n      0x00\n        /* \"#utility.yul\":8062:8067   */\n      dup3\n        /* \"#utility.yul\":8056:8060   */\n      dup3\n        /* \"#utility.yul\":8052:8068   */\n      shl\n        /* \"#utility.yul\":8031:8068   */\n      swap1\n      pop\n        /* \"#utility.yul\":7968:8075   */\n      swap3\n      swap2\n      pop\n      pop\n      jump\t// out\n        /* \"#utility.yul\":8081:8474   */\n    tag_119:\n        /* \"#utility.yul\":8150:8156   */\n      0x00\n        /* \"#utility.yul\":8200:8201   */\n      0x08\n        /* \"#utility.yul\":8188:8198   */\n      dup4\n        /* \"#utility.yul\":8184:8202   */\n      mul\n        /* \"#utility.yul\":8223:8320   */\n      tag_218\n        /* \"#utility.yul\":8253:8319   */\n      0xffffffffffffffffffffffffffffffffffffffffffffffffffffffffffffffff\n        /* \"#utility.yul\":8242:8251   */\n      dup3\n        /* \"#utility.yul\":8223:8320   */\n      tag_118\n      jump\t// in\n    tag_218:\n        /* \"#utility.yul\":8341:8380   */\n      tag_219\n        /* \"#utility.yul\":8371:8379   */\n      dup7\n        /* \"#utility.yul\":8360:8369   */\n      dup4\n        /* \"#utility.yul\":8341:8380   */\n      tag_118\n      jump\t// in\n    tag_219:\n        /* \"#utility.yul\":8329:8380   */\n      swap6\n      pop\n        /* \"#utility.yul\":8413:8417   */\n      dup1\n        /* \"#utility.yul\":8409:8418   */\n      not\n        /* \"#utility.yul\":8402:8407   */\n      dup5\n        /* \"#utility.yul\":8398:8419   */\n      and\n        /* \"#utility.yul\":8389:8419   */\n      swap4\n      pop\n        /* \"#utility.yul\":8462:8466   */\n      dup1\n        /* \"#utility.yul\":8452:8460   */\n      dup7\n        /* \"#utility.yul\":8448:8467   */\n      and\n        /* \"#utility.yul\":8441:8446   */\n      dup5\n        /* \"#utility.yul\":8438:8468   */\n      or\n        /* \"#utility.yul\":8428:8468   */\n      swap3\n      pop\n        /* \"#utility.yul\":8157:8474   */\n      pop\n      pop\n        /* \"#utility.yul\":8081:8474   */\n      swap4\n      swap3\n      pop\n      pop\n      pop\n      jump\t// out\n        /* \"#utility.yul\":8480:8540   */\n    tag_120:\n        /* \"#utility.yul\":8508:8511   */\n      0x00\n        /* \"#utility.yul\":8529:8534   */\n      dup2\n        /* \"#utility.yul\":8522:8534   */\n      swap1\n      pop\n        /* \"#utility.yul\":8480:8540   */\n      swap2\n      swap1\n      pop\n      jump\t// out\n        /* \"#utility.yul\":8546:8688   */\n    tag_121:\n        /* \"#utility.yul\":8596:8605   */\n      0x00\n        /* \"#utility.yul\":8629:8682   */\n      tag_222\n        /* \"#utility.yul\":8647:8681   */\n      tag_223\n        /* \"#utility.yul\":8656:8680   */\n      tag_224\n        /* \"#utility.yul\":8674:8679   */\n      dup5\n        /* \"#utility.yul\":8656:8680   */\n      tag_93\n      jump\t// in\n    tag_224:\n        /* \"#utility.yul\":8647:8681   */\n      tag_120\n      jump\t// in\n    tag_223:\n        /* \"#utility.yul\":8629:8682   */\n      tag_93\n      jump\t// in\n    tag_222:\n        /* \"#utility.yul\":8616:8682   */\n      swap1\n      pop\n        /* \"#utility.yul\":8546:8688   */\n      swap2\n      swap1\n      pop\n      jump\t// out\n        /* \"#utility.yul\":8694:8769   */\n    tag_122:\n        /* \"#utility.yul\":8737:8740   */\n      0x00\n        /* \"#utility.yul\":8758:8763   */\n      dup2\n        /* \"#utility.yul\":8751:8763   */\n      swap1\n      pop\n        /* \"#utility.yul\":8694:8769   */\n      swap2\n      swap1\n      pop\n      jump\t// out\n        /* \"#utility.yul\":8775:9044   */\n    tag_123:\n        /* \"#utility.yul\":8885:8924   */\n      tag_227\n        /* \"#utility.yul\":8916:8923   */\n      dup4\n        /* \"#utility.yul\":8885:8924   */\n      tag_121\n      jump\t// in\n    tag_227:\n        /* \"#utility.yul\":8946:9037   */\n      tag_228\n        /* \"#utility.yul\":8995:9036   */\n      tag_229\n        /* \"#utility.yul\":9019:9035   */\n      dup3\n        /* \"#utility.yul\":8995:9036   */\n      tag_122\n      jump\t// in\n    tag_229:\n        /* \"#utility.yul\":8987:8993   */\n      dup5\n        /* \"#utility.yul\":8980:8984   */\n      dup5\n        /* \"#utility.yul\":8974:8985   */\n      sload\n        /* \"#utility.yul\":8946:9037   */\n      tag_119\n      jump\t// in\n    tag_228:\n        /* \"#utility.yul\":8940:8944   */\n      dup3\n        /* \"#utility.yul\":8933:9038   */\n      sstore\n        /* \"#utility.yul\":8851:9044   */\n      pop\n        /* \"#utility.yul\":8775:9044   */\n      pop\n      pop\n      pop\n      jump\t// out\n        /* \"#utility.yul\":9050:9123   */\n    tag_124:\n        /* \"#utility.yul\":9095:9098   */\n      0x00\n        /* \"#utility.yul\":9050:9123   */\n      swap1\n      jump\t// out\n        /* \"#utility.yul\":9129:9318   */\n    tag_125:\n        /* \"#utility.yul\":9206:9238   */\n      tag_232\n      tag_124\n      jump\t// in\n    tag_232:\n        /* \"#utility.yul\":9247:9312   */\n      tag_233\n        /* \"#utility.yul\":9305:9311   */\n      dup2\n        /* \"#utility.yul\":9297:9303   */\n      dup5\n        /* \"#utility.yul\":9291:9295   */\n      dup5\n        /* \"#utility.yul\":9247:9312   */\n      tag_123\n      jump\t// in\n    tag_233:\n        /* \"#utility.yul\":9182:9318   */\n      pop\n        /* \"#utility.yul\":9129:9318   */\n      pop\n      pop\n      jump\t// out\n        /* \"#utility.yul\":9324:9510   */\n    tag_126:\n        /* \"#utility.yul\":9384:9504   */\n    tag_235:\n        /* \"#utility.yul\":9401:9404   */\n      dup2\n        /* \"#utility.yul\":9394:9399   */\n      dup2\n        /* \"#utility.yul\":9391:9405   */\n      lt\n        /* \"#utility.yul\":9384:9504   */\n      iszero\n      tag_237\n      jumpi\n        /* \"#utility.yul\":9455:9494   */\n      tag_238\n        /* \"#utility.yul\":9492:9493   */\n      0x00\n        /* \"#utility.yul\":9485:9490   */\n      dup3\n        /* \"#utility.yul\":9455:9494   */\n      tag_125\n      jump\t// in\n    tag_238:\n        /* \"#utility.yul\":9428:9429   */\n      0x01\n        /* \"#utility.yul\":9421:9426   */\n      dup2\n        /* \"#utility.yul\":9417:9430   */\n      add\n        /* \"#utility.yul\":9408:9430   */\n      swap1\n      pop\n        /* \"#utility.yul\":9384:9504   */\n      jump(tag_235)\n    tag_237:\n        /* \"#utility.yul\":9324:9510   */\n      pop\n      pop\n      jump\t// out\n        /* \"#utility.yul\":9516:10059   */\n    tag_127:\n        /* \"#utility.yul\":9617:9619   */\n      0x1f\n        /* \"#utility.yul\":9612:9615   */\n      dup3\n        /* \"#utility.yul\":9609:9620   */\n      gt\n        /* \"#utility.yul\":9606:10052   */\n      iszero\n      tag_240\n      jumpi\n        /* \"#utility.yul\":9651:9689   */\n      tag_241\n        /* \"#utility.yul\":9683:9688   */\n      dup2\n        /* \"#utility.yul\":9651:9689   */\n      tag_116\n      jump\t// in\n    tag_241:\n        /* \"#utility.yul\":9735:9764   */\n      tag_242\n        /* \"#utility.yul\":9753:9763   */\n      dup5\n        /* \"#utility.yul\":9735:9764   */\n      tag_117\n      jump\t// in\n    tag_242:\n        /* \"#utility.yul\":9725:9733   */\n      dup2\n        /* \"#utility.yul\":9721:9765   */\n      add\n        /* \"#utility.yul\":9918:9920   */\n      0x20\n        /* \"#utility.yul\":9906:9916   */\n      dup6\n        /* \"#utility.yul\":9903:9921   */\n      lt\n        /* \"#utility.yul\":9900:9949   */\n      iszero\n      tag_243\n      jumpi\n        /* \"#utility.yul\":9939:9947   */\n      dup2\n        /* \"#utility.yul\":9924:9947   */\n      swap1\n      pop\n        /* \"#utility.yul\":9900:9949   */\n    tag_243:\n        /* \"#utility.yul\":9962:10042   */\n      tag_244\n        /* \"#utility.yul\":10018:10040   */\n      tag_245\n        /* \"#utility.yul\":10036:10039   */\n      dup6\n        /* \"#utility.yul\":10018:10040   */\n      tag_117\n      jump\t// in\n    tag_245:\n        /* \"#utility.yul\":10008:10016   */\n      dup4\n        /* \"#utility.yul\":10004:10041   */\n      add\n        /* \"#utility.yul\":9991:10002   */\n      dup3\n        /* \"#utility.yul\":9962:10042   */\n      tag_126\n      jump\t// in\n    tag_244:\n        /* \"#utility.yul\":9621:10052   */\n      pop\n      pop\n        /* \"#utility.yul\":9606:10052   */\n    tag_240:\n        /* \"#utility.yul\":9516:10059   */\n      pop\n      pop\n      pop\n      jump\t// out\n        /* \"#utility.yul\":10065:10182   */\n    tag_128:\n        /* \"#utility.yul\":10119:10127   */\n      0x00\n        /* \"#utility.yul\":10169:10174   */\n      dup3\n        /* \"#utility.yul\":10163:10167   */\n      dup3\n        /* \"#utility.yul\":10159:10175   */\n      shr\n        /* \"#utility.yul\":10138:10175   */\n      swap1\n      pop\n        /* \"#utility.yul\":10065:10182   */\n      swap3\n      swap2\n      pop\n      pop\n      jump\t// out\n        /* \"#utility.yul\":10188:10357   */\n    tag_129:\n        /* \"#utility.yul\":10232:10238   */\n      0x00\n        /* \"#utility.yul\":10265:10316   */\n      tag_248\n        /* \"#utility.yul\":10313:10314   */\n      0x00\n        /* \"#utility.yul\":10309:10315   */\n      not\n        /* \"#utility.yul\":10301:10306   */\n      dup5\n        /* \"#utility.yul\":10298:10299   */\n      0x08\n        /* \"#utility.yul\":10294:10307   */\n      mul\n        /* \"#utility.yul\":10265:10316   */\n      tag_128\n      jump\t// in\n    tag_248:\n        /* \"#utility.yul\":10261:10317   */\n      not\n        /* \"#utility.yul\":10346:10350   */\n      dup1\n        /* \"#utility.yul\":10340:10344   */\n      dup4\n        /* \"#utility.yul\":10336:10351   */\n      and\n        /* \"#utility.yul\":10326:10351   */\n      swap2\n      pop\n        /* \"#utility.yul\":10239:10357   */\n      pop\n        /* \"#utility.yul\":10188:10357   */\n      swap3\n      swap2\n      pop\n      pop\n      jump\t// out\n        /* \"#utility.yul\":10362:10657   */\n    tag_130:\n        /* \"#utility.yul\":10438:10442   */\n      0x00\n        /* \"#utility.yul\":10584:10613   */\n      tag_250\n        /* \"#utility.yul\":10609:10612   */\n      dup4\n        /* \"#utility.yul\":10603:10607   */\n      dup4\n        /* \"#utility.yul\":10584:10613   */\n      tag_129\n      jump\t// in\n    tag_250:\n        /* \"#utility.yul\":10576:10613   */\n      swap2\n      pop\n        /* \"#utility.yul\":10646:10649   */\n      dup3\n        /* \"#utility.yul\":10643:10644   */\n      0x02\n        /* \"#utility.yul\":10639:10650   */\n      mul\n        /* \"#utility.yul\":10633:10637   */\n      dup3\n        /* \"#utility.yul\":10630:10651   */\n      or\n        /* \"#utility.yul\":10622:10651   */\n      swap1\n      pop\n        /* \"#utility.yul\":10362:10657   */\n      swap3\n      swap2\n      pop\n      pop\n      jump\t// out\n        /* \"#utility.yul\":10662:12057   */\n    tag_72:\n        /* \"#utility.yul\":10779:10816   */\n      tag_252\n        /* \"#utility.yul\":10812:10815   */\n      dup3\n        /* \"#utility.yul\":10779:10816   */\n      tag_96\n      jump\t// in\n    tag_252:\n        /* \"#utility.yul\":10881:10899   */\n      0xffffffffffffffff\n        /* \"#utility.yul\":10873:10879   */\n      dup2\n        /* \"#utility.yul\":10870:10900   */\n      gt\n        /* \"#utility.yul\":10867:10923   */\n      iszero\n      tag_253\n      jumpi\n        /* \"#utility.yul\":10903:10921   */\n      tag_254\n      tag_106\n      jump\t// in\n    tag_254:\n        /* \"#utility.yul\":10867:10923   */\n    tag_253:\n        /* \"#utility.yul\":10947:10985   */\n      tag_255\n        /* \"#utility.yul\":10979:10983   */\n      dup3\n        /* \"#utility.yul\":10973:10984   */\n      sload\n        /* \"#utility.yul\":10947:10985   */\n      tag_38\n      jump\t// in\n    tag_255:\n        /* \"#utility.yul\":11032:11099   */\n      tag_256\n        /* \"#utility.yul\":11092:11098   */\n      dup3\n        /* \"#utility.yul\":11084:11090   */\n      dup3\n        /* \"#utility.yul\":11078:11082   */\n      dup6\n        /* \"#utility.yul\":11032:11099   */\n      tag_127\n      jump\t// in\n    tag_256:\n        /* \"#utility.yul\":11126:11127   */\n      0x00\n        /* \"#utility.yul\":11150:11154   */\n      0x20\n        /* \"#utility.yul\":11137:11154   */\n      swap1\n      pop\n        /* \"#utility.yul\":11182:11184   */\n      0x1f\n        /* \"#utility.yul\":11174:11180   */\n      dup4\n        /* \"#utility.yul\":11171:11185   */\n      gt\n        /* \"#utility.yul\":11199:11200   */\n      0x01\n        /* \"#utility.yul\":11194:11812   */\n      dup2\n      eq\n      tag_258\n      jumpi\n        /* \"#utility.yul\":11856:11857   */\n      0x00\n        /* \"#utility.yul\":11873:11879   */\n      dup5\n        /* \"#utility.yul\":11870:11947   */\n      iszero\n      tag_259\n      jumpi\n        /* \"#utility.yul\":11922:11931   */\n      dup3\n        /* \"#utility.yul\":11917:11920   */\n      dup8\n        /* \"#utility.yul\":11913:11932   */\n      add\n        /* \"#utility.yul\":11907:11933   */\n      mload\n        /* \"#utility.yul\":11898:11933   */\n      swap1\n      pop\n        /* \"#utility.yul\":11870:11947   */\n    tag_259:\n        /* \"#utility.yul\":11973:12040   */\n      tag_260\n        /* \"#utility.yul\":12033:12039   */\n      dup6\n        /* \"#utility.yul\":12026:12031   */\n      dup3\n        /* \"#utility.yul\":11973:12040   */\n      tag_130\n      jump\t// in\n    tag_260:\n        /* \"#utility.yul\":11967:11971   */\n      dup7\n        /* \"#utility.yul\":11960:12041   */\n      sstore\n        /* \"#utility.yul\":11829:12051   */\n      pop\n        /* \"#utility.yul\":11164:12051   */\n      jump(tag_257)\n        /* \"#utility.yul\":11194:11812   */\n    tag_258:\n        /* \"#utility.yul\":11246:11250   */\n      0x1f\n        /* \"#utility.yul\":11242:11251   */\n      not\n        /* \"#utility.yul\":11234:11240   */\n      dup5\n        /* \"#utility.yul\":11230:11252   */\n      and\n        /* \"#utility.yul\":11280:11317   */\n      tag_261\n        /* \"#utility.yul\":11312:11316   */\n      dup7\n        /* \"#utility.yul\":11280:11317   */\n      tag_116\n      jump\t// in\n    tag_261:\n        /* \"#utility.yul\":11339:11340   */\n      0x00\n        /* \"#utility.yul\":11353:11561   */\n    tag_262:\n        /* \"#utility.yul\":11367:11374   */\n      dup3\n        /* \"#utility.yul\":11364:11365   */\n      dup2\n        /* \"#utility.yul\":11361:11375   */\n      lt\n        /* \"#utility.yul\":11353:11561   */\n      iszero\n      tag_264\n      jumpi\n        /* \"#utility.yul\":11446:11455   */\n      dup5\n        /* \"#utility.yul\":11441:11444   */\n      dup10\n        /* \"#utility.yul\":11437:11456   */\n      add\n        /* \"#utility.yul\":11431:11457   */\n      mload\n        /* \"#utility.yul\":11423:11429   */\n      dup3\n        /* \"#utility.yul\":11416:11458   */\n      sstore\n        /* \"#utility.yul\":11497:11498   */\n      0x01\n        /* \"#utility.yul\":11489:11495   */\n      dup3\n        /* \"#utility.yul\":11485:11499   */\n      add\n        /* \"#utility.yul\":11475:11499   */\n      swap2\n      pop\n        /* \"#utility.yul\":11544:11546   */\n      0x20\n        /* \"#utility.yul\":11533:11542   */\n      dup6\n        /* \"#utility.yul\":11529:11547   */\n      add\n        /* \"#utility.yul\":11516:11547   */\n      swap5\n      pop\n        /* \"#utility.yul\":11390:11394   */\n      0x20\n        /* \"#utility.yul\":11387:11388   */\n      dup2\n        /* \"#utility.yul\":11383:11395   */\n      add\n        /* \"#utility.yul\":11378:11395   */\n      swap1\n      pop\n        /* \"#utility.yul\":11353:11561   */\n      jump(tag_262)\n    tag_264:\n        /* \"#utility.yul\":11589:11595   */\n      dup7\n        /* \"#utility.yul\":11580:11587   */\n      dup4\n        /* \"#utility.yul\":11577:11596   */\n      lt\n        /* \"#utility.yul\":11574:11753   */\n      iszero\n      tag_265\n      jumpi\n        /* \"#utility.yul\":11647:11656   */\n      dup5\n        /* \"#utility.yul\":11642:11645   */\n      dup10\n        /* \"#utility.yul\":11638:11657   */\n      add\n        /* \"#utility.yul\":11632:11658   */\n      mload\n        /* \"#utility.yul\":11690:11738   */\n      tag_266\n        /* \"#utility.yul\":11732:11736   */\n      0x1f\n        /* \"#utility.yul\":11724:11730   */\n      dup10\n        /* \"#utility.yul\":11720:11737   */\n      and\n        /* \"#utility.yul\":11709:11718   */\n      dup3\n        /* \"#utility.yul\":11690:11738   */\n      tag_129\n      jump\t// in\n    tag_266:\n        /* \"#utility.yul\":11682:11688   */\n      dup4\n        /* \"#utility.yul\":11675:11739   */\n      sstore\n        /* \"#utility.yul\":11597:11753   */\n      pop\n        /* \"#utility.yul\":11574:11753   */\n    tag_265:\n        /* \"#utility.yul\":11799:11800   */\n      0x01\n        /* \"#utility.yul\":11795:11796   */\n      0x02\n        /* \"#utility.yul\":11787:11793   */\n      dup9\n        /* \"#utility.yul\":11783:11797   */\n      mul\n        /* \"#utility.yul\":11779:11801   */\n      add\n        /* \"#utility.yul\":11773:11777   */\n      dup9\n        /* \"#utility.yul\":11766:11802   */\n      sstore\n        /* \"#utility.yul\":11201:11812   */\n      pop\n      pop\n      pop\n        /* \"#utility.yul\":11164:12051   */\n    tag_257:\n      pop\n        /* \"#utility.yul\":10754:12057   */\n      pop\n      pop\n      pop\n        /* \"#utility.yul\":10662:12057   */\n      pop\n      pop\n      jump\t// out\n\n    auxdata: 0xa264697066735822122068d8839122bb5c8eda95091c9d83f106eb255d0d07bcb4f91bd4a4df1995917a64736f6c634300081a0033\n}\n",
				"bytecode": {
					"linkReferences": {},
					"object": "608060405260405180608001604052806040518060400160405280600d81526020017f426c6f636b6861696e204465760000000000000000000000000000000000000081525081526020016040518060400160405280600481526020017f646f6469000000000000000000000000000000000000000000000000000000008152508152602001600a81526020016001151581525060045f820151815f0190816100a89190610335565b5060208201518160010190816100be9190610335565b50604082015181600201556060820151816003015f6101000a81548160ff02191690831515021790555050503480156100f5575f80fd5b50610404565b5f81519050919050565b7f4e487b71000000000000000000000000000000000000000000000000000000005f52604160045260245ffd5b7f4e487b71000000000000000000000000000000000000000000000000000000005f52602260045260245ffd5b5f600282049050600182168061017657607f821691505b60208210810361018957610188610132565b5b50919050565b5f819050815f5260205f209050919050565b5f6020601f8301049050919050565b5f82821b905092915050565b5f600883026101eb7fffffffffffffffffffffffffffffffffffffffffffffffffffffffffffffffff826101b0565b6101f586836101b0565b95508019841693508086168417925050509392505050565b5f819050919050565b5f819050919050565b5f61023961023461022f8461020d565b610216565b61020d565b9050919050565b5f819050919050565b6102528361021f565b61026661025e82610240565b8484546101bc565b825550505050565b5f90565b61027a61026e565b610285818484610249565b505050565b5b818110156102a85761029d5f82610272565b60018101905061028b565b5050565b601f8211156102ed576102be8161018f565b6102c7846101a1565b810160208510156102d6578190505b6102ea6102e2856101a1565b83018261028a565b50505b505050565b5f82821c905092915050565b5f61030d5f19846008026102f2565b1980831691505092915050565b5f61032583836102fe565b9150826002028217905092915050565b61033e826100fb565b67ffffffffffffffff81111561035757610356610105565b5b610361825461015f565b61036c8282856102ac565b5f60209050601f83116001811461039d575f841561038b578287015190505b610395858261031a565b8655506103fc565b601f1984166103ab8661018f565b5f5b828110156103d2578489015182556001820191506020850194506020810190506103ad565b868310156103ef57848901516103eb601f8916826102fe565b8355505b6001600288020188555050505b505050505050565b610e92806104115f395ff3fe608060405234801561000f575f80fd5b5060043610610060575f3560e01c80632fffc71c146100645780639cae393214610097578063d5c45311146100b8578063e953d0af146100d7578063ea625179146100e1578063f5974f8314610114575b5f80fd5b61007e6004803603810190610079919061082a565b610130565b60405161008e94939291906108ee565b60405180910390f35b61009f610299565b6040516100af94939291906108ee565b60405180910390f35b6100c06103dd565b6040516100ce92919061093f565b60405180910390f35b6100df610505565b005b6100fb60048036038101906100f6919061082a565b6105ed565b60405161010b94939291906108ee565b60405180910390f35b61012e60048036038101906101299190610aca565b610740565b005b6060805f805f6008868154811061014a57610149610b66565b5b905f5260205f2090600402019050805f01816001018260020154836003015f9054906101000a900460ff1683805461018190610bc0565b80601f01602080910402602001604051908101604052809291908181526020018280546101ad90610bc0565b80156101f85780601f106101cf576101008083540402835291602001916101f8565b820191905f5260205f20905b8154815290600101906020018083116101db57829003601f168201915b5050505050935082805461020b90610bc0565b80601f016020809104026020016040519081016040528092919081815260200182805461023790610bc0565b80156102825780601f1061025957610100808354040283529160200191610282565b820191905f5260205f20905b81548152906001019060200180831161026557829003601f168201915b505050505092509450945094509450509193509193565b6060805f805f80015f6001015f600201545f6003015f9054906101000a900460ff168380546102c790610bc0565b80601f01602080910402602001604051908101604052809291908181526020018280546102f390610bc0565b801561033e5780601f106103155761010080835404028352916020019161033e565b820191905f5260205f20905b81548152906001019060200180831161032157829003601f168201915b5050505050935082805461035190610bc0565b80601f016020809104026020016040519081016040528092919081815260200182805461037d90610bc0565b80156103c85780601f1061039f576101008083540402835291602001916103c8565b820191905f5260205f20905b8154815290600101906020018083116103ab57829003601f168201915b50505050509250935093509350935090919293565b60608060045f0160046001018180546103f590610bc0565b80601f016020809104026020016040519081016040528092919081815260200182805461042190610bc0565b801561046c5780601f106104435761010080835404028352916020019161046c565b820191905f5260205f20905b81548152906001019060200180831161044f57829003601f168201915b5050505050915080805461047f90610bc0565b80601f01602080910402602001604051908101604052809291908181526020018280546104ab90610bc0565b80156104f65780601f106104cd576101008083540402835291602001916104f6565b820191905f5260205f20905b8154815290600101906020018083116104d957829003601f168201915b50505050509050915091509091565b60405180608001604052806040518060400160405280600c81526020017f53616b7469204861636b6572000000000000000000000000000000000000000081525081526020016040518060400160405280600581526020017f68656b6572000000000000000000000000000000000000000000000000000000815250815260200160458152602001600115158152505f80820151815f0190816105a89190610d8d565b5060208201518160010190816105be9190610d8d565b50604082015181600201556060820151816003015f6101000a81548160ff021916908315150217905550905050565b600881815481106105fc575f80fd5b905f5260205f2090600402015f91509050805f01805461061b90610bc0565b80601f016020809104026020016040519081016040528092919081815260200182805461064790610bc0565b80156106925780601f1061066957610100808354040283529160200191610692565b820191905f5260205f20905b81548152906001019060200180831161067557829003601f168201915b5050505050908060010180546106a790610bc0565b80601f01602080910402602001604051908101604052809291908181526020018280546106d390610bc0565b801561071e5780601f106106f55761010080835404028352916020019161071e565b820191905f5260205f20905b81548152906001019060200180831161070157829003601f168201915b505050505090806002015490806003015f9054906101000a900460ff16905084565b60086040518060800160405280868152602001858152602001848152602001831515815250908060018154018082558091505060019003905f5260205f2090600402015f909190919091505f820151815f01908161079e9190610d8d565b5060208201518160010190816107b49190610d8d565b50604082015181600201556060820151816003015f6101000a81548160ff021916908315150217905550505050505050565b5f604051905090565b5f80fd5b5f80fd5b5f819050919050565b610809816107f7565b8114610813575f80fd5b50565b5f8135905061082481610800565b92915050565b5f6020828403121561083f5761083e6107ef565b5b5f61084c84828501610816565b91505092915050565b5f81519050919050565b5f82825260208201905092915050565b8281835e5f83830152505050565b5f601f19601f8301169050919050565b5f61089782610855565b6108a1818561085f565b93506108b181856020860161086f565b6108ba8161087d565b840191505092915050565b6108ce816107f7565b82525050565b5f8115159050919050565b6108e8816108d4565b82525050565b5f6080820190508181035f830152610906818761088d565b9050818103602083015261091a818661088d565b905061092960408301856108c5565b61093660608301846108df565b95945050505050565b5f6040820190508181035f830152610957818561088d565b9050818103602083015261096b818461088d565b90509392505050565b5f80fd5b5f80fd5b7f4e487b71000000000000000000000000000000000000000000000000000000005f52604160045260245ffd5b6109b28261087d565b810181811067ffffffffffffffff821117156109d1576109d061097c565b5b80604052505050565b5f6109e36107e6565b90506109ef82826109a9565b919050565b5f67ffffffffffffffff821115610a0e57610a0d61097c565b5b610a178261087d565b9050602081019050919050565b828183375f83830152505050565b5f610a44610a3f846109f4565b6109da565b905082815260208101848484011115610a6057610a5f610978565b5b610a6b848285610a24565b509392505050565b5f82601f830112610a8757610a86610974565b5b8135610a97848260208601610a32565b91505092915050565b610aa9816108d4565b8114610ab3575f80fd5b50565b5f81359050610ac481610aa0565b92915050565b5f805f8060808587031215610ae257610ae16107ef565b5b5f85013567ffffffffffffffff811115610aff57610afe6107f3565b5b610b0b87828801610a73565b945050602085013567ffffffffffffffff811115610b2c57610b2b6107f3565b5b610b3887828801610a73565b9350506040610b4987828801610816565b9250506060610b5a87828801610ab6565b91505092959194509250565b7f4e487b71000000000000000000000000000000000000000000000000000000005f52603260045260245ffd5b7f4e487b71000000000000000000000000000000000000000000000000000000005f52602260045260245ffd5b5f6002820490506001821680610bd757607f821691505b602082108103610bea57610be9610b93565b5b50919050565b5f819050815f5260205f209050919050565b5f6020601f8301049050919050565b5f82821b905092915050565b5f60088302610c4c7fffffffffffffffffffffffffffffffffffffffffffffffffffffffffffffffff82610c11565b610c568683610c11565b95508019841693508086168417925050509392505050565b5f819050919050565b5f610c91610c8c610c87846107f7565b610c6e565b6107f7565b9050919050565b5f819050919050565b610caa83610c77565b610cbe610cb682610c98565b848454610c1d565b825550505050565b5f90565b610cd2610cc6565b610cdd818484610ca1565b505050565b5b81811015610d0057610cf55f82610cca565b600181019050610ce3565b5050565b601f821115610d4557610d1681610bf0565b610d1f84610c02565b81016020851015610d2e578190505b610d42610d3a85610c02565b830182610ce2565b50505b505050565b5f82821c905092915050565b5f610d655f1984600802610d4a565b1980831691505092915050565b5f610d7d8383610d56565b9150826002028217905092915050565b610d9682610855565b67ffffffffffffffff811115610daf57610dae61097c565b5b610db98254610bc0565b610dc4828285610d04565b5f60209050601f831160018114610df5575f8415610de3578287015190505b610ded8582610d72565b865550610e54565b601f198416610e0386610bf0565b5f5b82811015610e2a57848901518255600182019150602085019450602081019050610e05565b86831015610e475784890151610e43601f891682610d56565b8355505b6001600288020188555050505b50505050505056fea264697066735822122068d8839122bb5c8eda95091c9d83f106eb255d0d07bcb4f91bd4a4df1995917a64736f6c634300081a0033",
					"opcodes": "PUSH1 0x80 PUSH1 0x40 MSTORE PUSH1 0x40 MLOAD DUP1 PUSH1 0x80 ADD PUSH1 0x40 MSTORE DUP1 PUSH1 0x40 MLOAD DUP1 PUSH1 0x40 ADD PUSH1 0x40 MSTORE DUP1 PUSH1 0xD DUP2 MSTORE PUSH1 0x20 ADD PUSH32 0x426C6F636B6861696E2044657600000000000000000000000000000000000000 DUP2 MSTORE POP DUP2 MSTORE PUSH1 0x20 ADD PUSH1 0x40 MLOAD DUP1 PUSH1 0x40 ADD PUSH1 0x40 MSTORE DUP1 PUSH1 0x4 DUP2 MSTORE PUSH1 0x20 ADD PUSH32 0x646F646900000000000000000000000000000000000000000000000000000000 DUP2 MSTORE POP DUP2 MSTORE PUSH1 0x20 ADD PUSH1 0xA DUP2 MSTORE PUSH1 0x20 ADD PUSH1 0x1 ISZERO ISZERO DUP2 MSTORE POP PUSH1 0x4 PUSH0 DUP3 ADD MLOAD DUP2 PUSH0 ADD SWAP1 DUP2 PUSH2 0xA8 SWAP2 SWAP1 PUSH2 0x335 JUMP JUMPDEST POP PUSH1 0x20 DUP3 ADD MLOAD DUP2 PUSH1 0x1 ADD SWAP1 DUP2 PUSH2 0xBE SWAP2 SWAP1 PUSH2 0x335 JUMP JUMPDEST POP PUSH1 0x40 DUP3 ADD MLOAD DUP2 PUSH1 0x2 ADD SSTORE PUSH1 0x60 DUP3 ADD MLOAD DUP2 PUSH1 0x3 ADD PUSH0 PUSH2 0x100 EXP DUP2 SLOAD DUP2 PUSH1 0xFF MUL NOT AND SWAP1 DUP4 ISZERO ISZERO MUL OR SWAP1 SSTORE POP POP POP CALLVALUE DUP1 ISZERO PUSH2 0xF5 JUMPI PUSH0 DUP1 REVERT JUMPDEST POP PUSH2 0x404 JUMP JUMPDEST PUSH0 DUP2 MLOAD SWAP1 POP SWAP2 SWAP1 POP JUMP JUMPDEST PUSH32 0x4E487B7100000000000000000000000000000000000000000000000000000000 PUSH0 MSTORE PUSH1 0x41 PUSH1 0x4 MSTORE PUSH1 0x24 PUSH0 REVERT JUMPDEST PUSH32 0x4E487B7100000000000000000000000000000000000000000000000000000000 PUSH0 MSTORE PUSH1 0x22 PUSH1 0x4 MSTORE PUSH1 0x24 PUSH0 REVERT JUMPDEST PUSH0 PUSH1 0x2 DUP3 DIV SWAP1 POP PUSH1 0x1 DUP3 AND DUP1 PUSH2 0x176 JUMPI PUSH1 0x7F DUP3 AND SWAP2 POP JUMPDEST PUSH1 0x20 DUP3 LT DUP2 SUB PUSH2 0x189 JUMPI PUSH2 0x188 PUSH2 0x132 JUMP JUMPDEST JUMPDEST POP SWAP2 SWAP1 POP JUMP JUMPDEST PUSH0 DUP2 SWAP1 POP DUP2 PUSH0 MSTORE PUSH1 0x20 PUSH0 KECCAK256 SWAP1 POP SWAP2 SWAP1 POP JUMP JUMPDEST PUSH0 PUSH1 0x20 PUSH1 0x1F DUP4 ADD DIV SWAP1 POP SWAP2 SWAP1 POP JUMP JUMPDEST PUSH0 DUP3 DUP3 SHL SWAP1 POP SWAP3 SWAP2 POP POP JUMP JUMPDEST PUSH0 PUSH1 0x8 DUP4 MUL PUSH2 0x1EB PUSH32 0xFFFFFFFFFFFFFFFFFFFFFFFFFFFFFFFFFFFFFFFFFFFFFFFFFFFFFFFFFFFFFFFF DUP3 PUSH2 0x1B0 JUMP JUMPDEST PUSH2 0x1F5 DUP7 DUP4 PUSH2 0x1B0 JUMP JUMPDEST SWAP6 POP DUP1 NOT DUP5 AND SWAP4 POP DUP1 DUP7 AND DUP5 OR SWAP3 POP POP POP SWAP4 SWAP3 POP POP POP JUMP JUMPDEST PUSH0 DUP2 SWAP1 POP SWAP2 SWAP1 POP JUMP JUMPDEST PUSH0 DUP2 SWAP1 POP SWAP2 SWAP1 POP JUMP JUMPDEST PUSH0 PUSH2 0x239 PUSH2 0x234 PUSH2 0x22F DUP5 PUSH2 0x20D JUMP JUMPDEST PUSH2 0x216 JUMP JUMPDEST PUSH2 0x20D JUMP JUMPDEST SWAP1 POP SWAP2 SWAP1 POP JUMP JUMPDEST PUSH0 DUP2 SWAP1 POP SWAP2 SWAP1 POP JUMP JUMPDEST PUSH2 0x252 DUP4 PUSH2 0x21F JUMP JUMPDEST PUSH2 0x266 PUSH2 0x25E DUP3 PUSH2 0x240 JUMP JUMPDEST DUP5 DUP5 SLOAD PUSH2 0x1BC JUMP JUMPDEST DUP3 SSTORE POP POP POP POP JUMP JUMPDEST PUSH0 SWAP1 JUMP JUMPDEST PUSH2 0x27A PUSH2 0x26E JUMP JUMPDEST PUSH2 0x285 DUP2 DUP5 DUP5 PUSH2 0x249 JUMP JUMPDEST POP POP POP JUMP JUMPDEST JUMPDEST DUP2 DUP2 LT ISZERO PUSH2 0x2A8 JUMPI PUSH2 0x29D PUSH0 DUP3 PUSH2 0x272 JUMP JUMPDEST PUSH1 0x1 DUP2 ADD SWAP1 POP PUSH2 0x28B JUMP JUMPDEST POP POP JUMP JUMPDEST PUSH1 0x1F DUP3 GT ISZERO PUSH2 0x2ED JUMPI PUSH2 0x2BE DUP2 PUSH2 0x18F JUMP JUMPDEST PUSH2 0x2C7 DUP5 PUSH2 0x1A1 JUMP JUMPDEST DUP2 ADD PUSH1 0x20 DUP6 LT ISZERO PUSH2 0x2D6 JUMPI DUP2 SWAP1 POP JUMPDEST PUSH2 0x2EA PUSH2 0x2E2 DUP6 PUSH2 0x1A1 JUMP JUMPDEST DUP4 ADD DUP3 PUSH2 0x28A JUMP JUMPDEST POP POP JUMPDEST POP POP POP JUMP JUMPDEST PUSH0 DUP3 DUP3 SHR SWAP1 POP SWAP3 SWAP2 POP POP JUMP JUMPDEST PUSH0 PUSH2 0x30D PUSH0 NOT DUP5 PUSH1 0x8 MUL PUSH2 0x2F2 JUMP JUMPDEST NOT DUP1 DUP4 AND SWAP2 POP POP SWAP3 SWAP2 POP POP JUMP JUMPDEST PUSH0 PUSH2 0x325 DUP4 DUP4 PUSH2 0x2FE JUMP JUMPDEST SWAP2 POP DUP3 PUSH1 0x2 MUL DUP3 OR SWAP1 POP SWAP3 SWAP2 POP POP JUMP JUMPDEST PUSH2 0x33E DUP3 PUSH2 0xFB JUMP JUMPDEST PUSH8 0xFFFFFFFFFFFFFFFF DUP2 GT ISZERO PUSH2 0x357 JUMPI PUSH2 0x356 PUSH2 0x105 JUMP JUMPDEST JUMPDEST PUSH2 0x361 DUP3 SLOAD PUSH2 0x15F JUMP JUMPDEST PUSH2 0x36C DUP3 DUP3 DUP6 PUSH2 0x2AC JUMP JUMPDEST PUSH0 PUSH1 0x20 SWAP1 POP PUSH1 0x1F DUP4 GT PUSH1 0x1 DUP2 EQ PUSH2 0x39D JUMPI PUSH0 DUP5 ISZERO PUSH2 0x38B JUMPI DUP3 DUP8 ADD MLOAD SWAP1 POP JUMPDEST PUSH2 0x395 DUP6 DUP3 PUSH2 0x31A JUMP JUMPDEST DUP7 SSTORE POP PUSH2 0x3FC JUMP JUMPDEST PUSH1 0x1F NOT DUP5 AND PUSH2 0x3AB DUP7 PUSH2 0x18F JUMP JUMPDEST PUSH0 JUMPDEST DUP3 DUP2 LT ISZERO PUSH2 0x3D2 JUMPI DUP5 DUP10 ADD MLOAD DUP3 SSTORE PUSH1 0x1 DUP3 ADD SWAP2 POP PUSH1 0x20 DUP6 ADD SWAP5 POP PUSH1 0x20 DUP2 ADD SWAP1 POP PUSH2 0x3AD JUMP JUMPDEST DUP7 DUP4 LT ISZERO PUSH2 0x3EF JUMPI DUP5 DUP10 ADD MLOAD PUSH2 0x3EB PUSH1 0x1F DUP10 AND DUP3 PUSH2 0x2FE JUMP JUMPDEST DUP4 SSTORE POP JUMPDEST PUSH1 0x1 PUSH1 0x2 DUP9 MUL ADD DUP9 SSTORE POP POP POP JUMPDEST POP POP POP POP POP POP JUMP JUMPDEST PUSH2 0xE92 DUP1 PUSH2 0x411 PUSH0 CODECOPY PUSH0 RETURN INVALID PUSH1 0x80 PUSH1 0x40 MSTORE CALLVALUE DUP1 ISZERO PUSH2 0xF JUMPI PUSH0 DUP1 REVERT JUMPDEST POP PUSH1 0x4 CALLDATASIZE LT PUSH2 0x60 JUMPI PUSH0 CALLDATALOAD PUSH1 0xE0 SHR DUP1 PUSH4 0x2FFFC71C EQ PUSH2 0x64 JUMPI DUP1 PUSH4 0x9CAE3932 EQ PUSH2 0x97 JUMPI DUP1 PUSH4 0xD5C45311 EQ PUSH2 0xB8 JUMPI DUP1 PUSH4 0xE953D0AF EQ PUSH2 0xD7 JUMPI DUP1 PUSH4 0xEA625179 EQ PUSH2 0xE1 JUMPI DUP1 PUSH4 0xF5974F83 EQ PUSH2 0x114 JUMPI JUMPDEST PUSH0 DUP1 REVERT JUMPDEST PUSH2 0x7E PUSH1 0x4 DUP1 CALLDATASIZE SUB DUP2 ADD SWAP1 PUSH2 0x79 SWAP2 SWAP1 PUSH2 0x82A JUMP JUMPDEST PUSH2 0x130 JUMP JUMPDEST PUSH1 0x40 MLOAD PUSH2 0x8E SWAP5 SWAP4 SWAP3 SWAP2 SWAP1 PUSH2 0x8EE JUMP JUMPDEST PUSH1 0x40 MLOAD DUP1 SWAP2 SUB SWAP1 RETURN JUMPDEST PUSH2 0x9F PUSH2 0x299 JUMP JUMPDEST PUSH1 0x40 MLOAD PUSH2 0xAF SWAP5 SWAP4 SWAP3 SWAP2 SWAP1 PUSH2 0x8EE JUMP JUMPDEST PUSH1 0x40 MLOAD DUP1 SWAP2 SUB SWAP1 RETURN JUMPDEST PUSH2 0xC0 PUSH2 0x3DD JUMP JUMPDEST PUSH1 0x40 MLOAD PUSH2 0xCE SWAP3 SWAP2 SWAP1 PUSH2 0x93F JUMP JUMPDEST PUSH1 0x40 MLOAD DUP1 SWAP2 SUB SWAP1 RETURN JUMPDEST PUSH2 0xDF PUSH2 0x505 JUMP JUMPDEST STOP JUMPDEST PUSH2 0xFB PUSH1 0x4 DUP1 CALLDATASIZE SUB DUP2 ADD SWAP1 PUSH2 0xF6 SWAP2 SWAP1 PUSH2 0x82A JUMP JUMPDEST PUSH2 0x5ED JUMP JUMPDEST PUSH1 0x40 MLOAD PUSH2 0x10B SWAP5 SWAP4 SWAP3 SWAP2 SWAP1 PUSH2 0x8EE JUMP JUMPDEST PUSH1 0x40 MLOAD DUP1 SWAP2 SUB SWAP1 RETURN JUMPDEST PUSH2 0x12E PUSH1 0x4 DUP1 CALLDATASIZE SUB DUP2 ADD SWAP1 PUSH2 0x129 SWAP2 SWAP1 PUSH2 0xACA JUMP JUMPDEST PUSH2 0x740 JUMP JUMPDEST STOP JUMPDEST PUSH1 0x60 DUP1 PUSH0 DUP1 PUSH0 PUSH1 0x8 DUP7 DUP2 SLOAD DUP2 LT PUSH2 0x14A JUMPI PUSH2 0x149 PUSH2 0xB66 JUMP JUMPDEST JUMPDEST SWAP1 PUSH0 MSTORE PUSH1 0x20 PUSH0 KECCAK256 SWAP1 PUSH1 0x4 MUL ADD SWAP1 POP DUP1 PUSH0 ADD DUP2 PUSH1 0x1 ADD DUP3 PUSH1 0x2 ADD SLOAD DUP4 PUSH1 0x3 ADD PUSH0 SWAP1 SLOAD SWAP1 PUSH2 0x100 EXP SWAP1 DIV PUSH1 0xFF AND DUP4 DUP1 SLOAD PUSH2 0x181 SWAP1 PUSH2 0xBC0 JUMP JUMPDEST DUP1 PUSH1 0x1F ADD PUSH1 0x20 DUP1 SWAP2 DIV MUL PUSH1 0x20 ADD PUSH1 0x40 MLOAD SWAP1 DUP2 ADD PUSH1 0x40 MSTORE DUP1 SWAP3 SWAP2 SWAP1 DUP2 DUP2 MSTORE PUSH1 0x20 ADD DUP3 DUP1 SLOAD PUSH2 0x1AD SWAP1 PUSH2 0xBC0 JUMP JUMPDEST DUP1 ISZERO PUSH2 0x1F8 JUMPI DUP1 PUSH1 0x1F LT PUSH2 0x1CF JUMPI PUSH2 0x100 DUP1 DUP4 SLOAD DIV MUL DUP4 MSTORE SWAP2 PUSH1 0x20 ADD SWAP2 PUSH2 0x1F8 JUMP JUMPDEST DUP3 ADD SWAP2 SWAP1 PUSH0 MSTORE PUSH1 0x20 PUSH0 KECCAK256 SWAP1 JUMPDEST DUP2 SLOAD DUP2 MSTORE SWAP1 PUSH1 0x1 ADD SWAP1 PUSH1 0x20 ADD DUP1 DUP4 GT PUSH2 0x1DB JUMPI DUP3 SWAP1 SUB PUSH1 0x1F AND DUP3 ADD SWAP2 JUMPDEST POP POP POP POP POP SWAP4 POP DUP3 DUP1 SLOAD PUSH2 0x20B SWAP1 PUSH2 0xBC0 JUMP JUMPDEST DUP1 PUSH1 0x1F ADD PUSH1 0x20 DUP1 SWAP2 DIV MUL PUSH1 0x20 ADD PUSH1 0x40 MLOAD SWAP1 DUP2 ADD PUSH1 0x40 MSTORE DUP1 SWAP3 SWAP2 SWAP1 DUP2 DUP2 MSTORE PUSH1 0x20 ADD DUP3 DUP1 SLOAD PUSH2 0x237 SWAP1 PUSH2 0xBC0 JUMP JUMPDEST DUP1 ISZERO PUSH2 0x282 JUMPI DUP1 PUSH1 0x1F LT PUSH2 0x259 JUMPI PUSH2 0x100 DUP1 DUP4 SLOAD DIV MUL DUP4 MSTORE SWAP2 PUSH1 0x20 ADD SWAP2 PUSH2 0x282 JUMP JUMPDEST DUP3 ADD SWAP2 SWAP1 PUSH0 MSTORE PUSH1 0x20 PUSH0 KECCAK256 SWAP1 JUMPDEST DUP2 SLOAD DUP2 MSTORE SWAP1 PUSH1 0x1 ADD SWAP1 PUSH1 0x20 ADD DUP1 DUP4 GT PUSH2 0x265 JUMPI DUP3 SWAP1 SUB PUSH1 0x1F AND DUP3 ADD SWAP2 JUMPDEST POP POP POP POP POP SWAP3 POP SWAP5 POP SWAP5 POP SWAP5 POP SWAP5 POP POP SWAP2 SWAP4 POP SWAP2 SWAP4 JUMP JUMPDEST PUSH1 0x60 DUP1 PUSH0 DUP1 PUSH0 DUP1 ADD PUSH0 PUSH1 0x1 ADD PUSH0 PUSH1 0x2 ADD SLOAD PUSH0 PUSH1 0x3 ADD PUSH0 SWAP1 SLOAD SWAP1 PUSH2 0x100 EXP SWAP1 DIV PUSH1 0xFF AND DUP4 DUP1 SLOAD PUSH2 0x2C7 SWAP1 PUSH2 0xBC0 JUMP JUMPDEST DUP1 PUSH1 0x1F ADD PUSH1 0x20 DUP1 SWAP2 DIV MUL PUSH1 0x20 ADD PUSH1 0x40 MLOAD SWAP1 DUP2 ADD PUSH1 0x40 MSTORE DUP1 SWAP3 SWAP2 SWAP1 DUP2 DUP2 MSTORE PUSH1 0x20 ADD DUP3 DUP1 SLOAD PUSH2 0x2F3 SWAP1 PUSH2 0xBC0 JUMP JUMPDEST DUP1 ISZERO PUSH2 0x33E JUMPI DUP1 PUSH1 0x1F LT PUSH2 0x315 JUMPI PUSH2 0x100 DUP1 DUP4 SLOAD DIV MUL DUP4 MSTORE SWAP2 PUSH1 0x20 ADD SWAP2 PUSH2 0x33E JUMP JUMPDEST DUP3 ADD SWAP2 SWAP1 PUSH0 MSTORE PUSH1 0x20 PUSH0 KECCAK256 SWAP1 JUMPDEST DUP2 SLOAD DUP2 MSTORE SWAP1 PUSH1 0x1 ADD SWAP1 PUSH1 0x20 ADD DUP1 DUP4 GT PUSH2 0x321 JUMPI DUP3 SWAP1 SUB PUSH1 0x1F AND DUP3 ADD SWAP2 JUMPDEST POP POP POP POP POP SWAP4 POP DUP3 DUP1 SLOAD PUSH2 0x351 SWAP1 PUSH2 0xBC0 JUMP JUMPDEST DUP1 PUSH1 0x1F ADD PUSH1 0x20 DUP1 SWAP2 DIV MUL PUSH1 0x20 ADD PUSH1 0x40 MLOAD SWAP1 DUP2 ADD PUSH1 0x40 MSTORE DUP1 SWAP3 SWAP2 SWAP1 DUP2 DUP2 MSTORE PUSH1 0x20 ADD DUP3 DUP1 SLOAD PUSH2 0x37D SWAP1 PUSH2 0xBC0 JUMP JUMPDEST DUP1 ISZERO PUSH2 0x3C8 JUMPI DUP1 PUSH1 0x1F LT PUSH2 0x39F JUMPI PUSH2 0x100 DUP1 DUP4 SLOAD DIV MUL DUP4 MSTORE SWAP2 PUSH1 0x20 ADD SWAP2 PUSH2 0x3C8 JUMP JUMPDEST DUP3 ADD SWAP2 SWAP1 PUSH0 MSTORE PUSH1 0x20 PUSH0 KECCAK256 SWAP1 JUMPDEST DUP2 SLOAD DUP2 MSTORE SWAP1 PUSH1 0x1 ADD SWAP1 PUSH1 0x20 ADD DUP1 DUP4 GT PUSH2 0x3AB JUMPI DUP3 SWAP1 SUB PUSH1 0x1F AND DUP3 ADD SWAP2 JUMPDEST POP POP POP POP POP SWAP3 POP SWAP4 POP SWAP4 POP SWAP4 POP SWAP4 POP SWAP1 SWAP2 SWAP3 SWAP4 JUMP JUMPDEST PUSH1 0x60 DUP1 PUSH1 0x4 PUSH0 ADD PUSH1 0x4 PUSH1 0x1 ADD DUP2 DUP1 SLOAD PUSH2 0x3F5 SWAP1 PUSH2 0xBC0 JUMP JUMPDEST DUP1 PUSH1 0x1F ADD PUSH1 0x20 DUP1 SWAP2 DIV MUL PUSH1 0x20 ADD PUSH1 0x40 MLOAD SWAP1 DUP2 ADD PUSH1 0x40 MSTORE DUP1 SWAP3 SWAP2 SWAP1 DUP2 DUP2 MSTORE PUSH1 0x20 ADD DUP3 DUP1 SLOAD PUSH2 0x421 SWAP1 PUSH2 0xBC0 JUMP JUMPDEST DUP1 ISZERO PUSH2 0x46C JUMPI DUP1 PUSH1 0x1F LT PUSH2 0x443 JUMPI PUSH2 0x100 DUP1 DUP4 SLOAD DIV MUL DUP4 MSTORE SWAP2 PUSH1 0x20 ADD SWAP2 PUSH2 0x46C JUMP JUMPDEST DUP3 ADD SWAP2 SWAP1 PUSH0 MSTORE PUSH1 0x20 PUSH0 KECCAK256 SWAP1 JUMPDEST DUP2 SLOAD DUP2 MSTORE SWAP1 PUSH1 0x1 ADD SWAP1 PUSH1 0x20 ADD DUP1 DUP4 GT PUSH2 0x44F JUMPI DUP3 SWAP1 SUB PUSH1 0x1F AND DUP3 ADD SWAP2 JUMPDEST POP POP POP POP POP SWAP2 POP DUP1 DUP1 SLOAD PUSH2 0x47F SWAP1 PUSH2 0xBC0 JUMP JUMPDEST DUP1 PUSH1 0x1F ADD PUSH1 0x20 DUP1 SWAP2 DIV MUL PUSH1 0x20 ADD PUSH1 0x40 MLOAD SWAP1 DUP2 ADD PUSH1 0x40 MSTORE DUP1 SWAP3 SWAP2 SWAP1 DUP2 DUP2 MSTORE PUSH1 0x20 ADD DUP3 DUP1 SLOAD PUSH2 0x4AB SWAP1 PUSH2 0xBC0 JUMP JUMPDEST DUP1 ISZERO PUSH2 0x4F6 JUMPI DUP1 PUSH1 0x1F LT PUSH2 0x4CD JUMPI PUSH2 0x100 DUP1 DUP4 SLOAD DIV MUL DUP4 MSTORE SWAP2 PUSH1 0x20 ADD SWAP2 PUSH2 0x4F6 JUMP JUMPDEST DUP3 ADD SWAP2 SWAP1 PUSH0 MSTORE PUSH1 0x20 PUSH0 KECCAK256 SWAP1 JUMPDEST DUP2 SLOAD DUP2 MSTORE SWAP1 PUSH1 0x1 ADD SWAP1 PUSH1 0x20 ADD DUP1 DUP4 GT PUSH2 0x4D9 JUMPI DUP3 SWAP1 SUB PUSH1 0x1F AND DUP3 ADD SWAP2 JUMPDEST POP POP POP POP POP SWAP1 POP SWAP2 POP SWAP2 POP SWAP1 SWAP2 JUMP JUMPDEST PUSH1 0x40 MLOAD DUP1 PUSH1 0x80 ADD PUSH1 0x40 MSTORE DUP1 PUSH1 0x40 MLOAD DUP1 PUSH1 0x40 ADD PUSH1 0x40 MSTORE DUP1 PUSH1 0xC DUP2 MSTORE PUSH1 0x20 ADD PUSH32 0x53616B7469204861636B65720000000000000000000000000000000000000000 DUP2 MSTORE POP DUP2 MSTORE PUSH1 0x20 ADD PUSH1 0x40 MLOAD DUP1 PUSH1 0x40 ADD PUSH1 0x40 MSTORE DUP1 PUSH1 0x5 DUP2 MSTORE PUSH1 0x20 ADD PUSH32 0x68656B6572000000000000000000000000000000000000000000000000000000 DUP2 MSTORE POP DUP2 MSTORE PUSH1 0x20 ADD PUSH1 0x45 DUP2 MSTORE PUSH1 0x20 ADD PUSH1 0x1 ISZERO ISZERO DUP2 MSTORE POP PUSH0 DUP1 DUP3 ADD MLOAD DUP2 PUSH0 ADD SWAP1 DUP2 PUSH2 0x5A8 SWAP2 SWAP1 PUSH2 0xD8D JUMP JUMPDEST POP PUSH1 0x20 DUP3 ADD MLOAD DUP2 PUSH1 0x1 ADD SWAP1 DUP2 PUSH2 0x5BE SWAP2 SWAP1 PUSH2 0xD8D JUMP JUMPDEST POP PUSH1 0x40 DUP3 ADD MLOAD DUP2 PUSH1 0x2 ADD SSTORE PUSH1 0x60 DUP3 ADD MLOAD DUP2 PUSH1 0x3 ADD PUSH0 PUSH2 0x100 EXP DUP2 SLOAD DUP2 PUSH1 0xFF MUL NOT AND SWAP1 DUP4 ISZERO ISZERO MUL OR SWAP1 SSTORE POP SWAP1 POP POP JUMP JUMPDEST PUSH1 0x8 DUP2 DUP2 SLOAD DUP2 LT PUSH2 0x5FC JUMPI PUSH0 DUP1 REVERT JUMPDEST SWAP1 PUSH0 MSTORE PUSH1 0x20 PUSH0 KECCAK256 SWAP1 PUSH1 0x4 MUL ADD PUSH0 SWAP2 POP SWAP1 POP DUP1 PUSH0 ADD DUP1 SLOAD PUSH2 0x61B SWAP1 PUSH2 0xBC0 JUMP JUMPDEST DUP1 PUSH1 0x1F ADD PUSH1 0x20 DUP1 SWAP2 DIV MUL PUSH1 0x20 ADD PUSH1 0x40 MLOAD SWAP1 DUP2 ADD PUSH1 0x40 MSTORE DUP1 SWAP3 SWAP2 SWAP1 DUP2 DUP2 MSTORE PUSH1 0x20 ADD DUP3 DUP1 SLOAD PUSH2 0x647 SWAP1 PUSH2 0xBC0 JUMP JUMPDEST DUP1 ISZERO PUSH2 0x692 JUMPI DUP1 PUSH1 0x1F LT PUSH2 0x669 JUMPI PUSH2 0x100 DUP1 DUP4 SLOAD DIV MUL DUP4 MSTORE SWAP2 PUSH1 0x20 ADD SWAP2 PUSH2 0x692 JUMP JUMPDEST DUP3 ADD SWAP2 SWAP1 PUSH0 MSTORE PUSH1 0x20 PUSH0 KECCAK256 SWAP1 JUMPDEST DUP2 SLOAD DUP2 MSTORE SWAP1 PUSH1 0x1 ADD SWAP1 PUSH1 0x20 ADD DUP1 DUP4 GT PUSH2 0x675 JUMPI DUP3 SWAP1 SUB PUSH1 0x1F AND DUP3 ADD SWAP2 JUMPDEST POP POP POP POP POP SWAP1 DUP1 PUSH1 0x1 ADD DUP1 SLOAD PUSH2 0x6A7 SWAP1 PUSH2 0xBC0 JUMP JUMPDEST DUP1 PUSH1 0x1F ADD PUSH1 0x20 DUP1 SWAP2 DIV MUL PUSH1 0x20 ADD PUSH1 0x40 MLOAD SWAP1 DUP2 ADD PUSH1 0x40 MSTORE DUP1 SWAP3 SWAP2 SWAP1 DUP2 DUP2 MSTORE PUSH1 0x20 ADD DUP3 DUP1 SLOAD PUSH2 0x6D3 SWAP1 PUSH2 0xBC0 JUMP JUMPDEST DUP1 ISZERO PUSH2 0x71E JUMPI DUP1 PUSH1 0x1F LT PUSH2 0x6F5 JUMPI PUSH2 0x100 DUP1 DUP4 SLOAD DIV MUL DUP4 MSTORE SWAP2 PUSH1 0x20 ADD SWAP2 PUSH2 0x71E JUMP JUMPDEST DUP3 ADD SWAP2 SWAP1 PUSH0 MSTORE PUSH1 0x20 PUSH0 KECCAK256 SWAP1 JUMPDEST DUP2 SLOAD DUP2 MSTORE SWAP1 PUSH1 0x1 ADD SWAP1 PUSH1 0x20 ADD DUP1 DUP4 GT PUSH2 0x701 JUMPI DUP3 SWAP1 SUB PUSH1 0x1F AND DUP3 ADD SWAP2 JUMPDEST POP POP POP POP POP SWAP1 DUP1 PUSH1 0x2 ADD SLOAD SWAP1 DUP1 PUSH1 0x3 ADD PUSH0 SWAP1 SLOAD SWAP1 PUSH2 0x100 EXP SWAP1 DIV PUSH1 0xFF AND SWAP1 POP DUP5 JUMP JUMPDEST PUSH1 0x8 PUSH1 0x40 MLOAD DUP1 PUSH1 0x80 ADD PUSH1 0x40 MSTORE DUP1 DUP7 DUP2 MSTORE PUSH1 0x20 ADD DUP6 DUP2 MSTORE PUSH1 0x20 ADD DUP5 DUP2 MSTORE PUSH1 0x20 ADD DUP4 ISZERO ISZERO DUP2 MSTORE POP SWAP1 DUP1 PUSH1 0x1 DUP2 SLOAD ADD DUP1 DUP3 SSTORE DUP1 SWAP2 POP POP PUSH1 0x1 SWAP1 SUB SWAP1 PUSH0 MSTORE PUSH1 0x20 PUSH0 KECCAK256 SWAP1 PUSH1 0x4 MUL ADD PUSH0 SWAP1 SWAP2 SWAP1 SWAP2 SWAP1 SWAP2 POP PUSH0 DUP3 ADD MLOAD DUP2 PUSH0 ADD SWAP1 DUP2 PUSH2 0x79E SWAP2 SWAP1 PUSH2 0xD8D JUMP JUMPDEST POP PUSH1 0x20 DUP3 ADD MLOAD DUP2 PUSH1 0x1 ADD SWAP1 DUP2 PUSH2 0x7B4 SWAP2 SWAP1 PUSH2 0xD8D JUMP JUMPDEST POP PUSH1 0x40 DUP3 ADD MLOAD DUP2 PUSH1 0x2 ADD SSTORE PUSH1 0x60 DUP3 ADD MLOAD DUP2 PUSH1 0x3 ADD PUSH0 PUSH2 0x100 EXP DUP2 SLOAD DUP2 PUSH1 0xFF MUL NOT AND SWAP1 DUP4 ISZERO ISZERO MUL OR SWAP1 SSTORE POP POP POP POP POP POP POP JUMP JUMPDEST PUSH0 PUSH1 0x40 MLOAD SWAP1 POP SWAP1 JUMP JUMPDEST PUSH0 DUP1 REVERT JUMPDEST PUSH0 DUP1 REVERT JUMPDEST PUSH0 DUP2 SWAP1 POP SWAP2 SWAP1 POP JUMP JUMPDEST PUSH2 0x809 DUP2 PUSH2 0x7F7 JUMP JUMPDEST DUP2 EQ PUSH2 0x813 JUMPI PUSH0 DUP1 REVERT JUMPDEST POP JUMP JUMPDEST PUSH0 DUP2 CALLDATALOAD SWAP1 POP PUSH2 0x824 DUP2 PUSH2 0x800 JUMP JUMPDEST SWAP3 SWAP2 POP POP JUMP JUMPDEST PUSH0 PUSH1 0x20 DUP3 DUP5 SUB SLT ISZERO PUSH2 0x83F JUMPI PUSH2 0x83E PUSH2 0x7EF JUMP JUMPDEST JUMPDEST PUSH0 PUSH2 0x84C DUP5 DUP3 DUP6 ADD PUSH2 0x816 JUMP JUMPDEST SWAP2 POP POP SWAP3 SWAP2 POP POP JUMP JUMPDEST PUSH0 DUP2 MLOAD SWAP1 POP SWAP2 SWAP1 POP JUMP JUMPDEST PUSH0 DUP3 DUP3 MSTORE PUSH1 0x20 DUP3 ADD SWAP1 POP SWAP3 SWAP2 POP POP JUMP JUMPDEST DUP3 DUP2 DUP4 MCOPY PUSH0 DUP4 DUP4 ADD MSTORE POP POP POP JUMP JUMPDEST PUSH0 PUSH1 0x1F NOT PUSH1 0x1F DUP4 ADD AND SWAP1 POP SWAP2 SWAP1 POP JUMP JUMPDEST PUSH0 PUSH2 0x897 DUP3 PUSH2 0x855 JUMP JUMPDEST PUSH2 0x8A1 DUP2 DUP6 PUSH2 0x85F JUMP JUMPDEST SWAP4 POP PUSH2 0x8B1 DUP2 DUP6 PUSH1 0x20 DUP7 ADD PUSH2 0x86F JUMP JUMPDEST PUSH2 0x8BA DUP2 PUSH2 0x87D JUMP JUMPDEST DUP5 ADD SWAP2 POP POP SWAP3 SWAP2 POP POP JUMP JUMPDEST PUSH2 0x8CE DUP2 PUSH2 0x7F7 JUMP JUMPDEST DUP3 MSTORE POP POP JUMP JUMPDEST PUSH0 DUP2 ISZERO ISZERO SWAP1 POP SWAP2 SWAP1 POP JUMP JUMPDEST PUSH2 0x8E8 DUP2 PUSH2 0x8D4 JUMP JUMPDEST DUP3 MSTORE POP POP JUMP JUMPDEST PUSH0 PUSH1 0x80 DUP3 ADD SWAP1 POP DUP2 DUP2 SUB PUSH0 DUP4 ADD MSTORE PUSH2 0x906 DUP2 DUP8 PUSH2 0x88D JUMP JUMPDEST SWAP1 POP DUP2 DUP2 SUB PUSH1 0x20 DUP4 ADD MSTORE PUSH2 0x91A DUP2 DUP7 PUSH2 0x88D JUMP JUMPDEST SWAP1 POP PUSH2 0x929 PUSH1 0x40 DUP4 ADD DUP6 PUSH2 0x8C5 JUMP JUMPDEST PUSH2 0x936 PUSH1 0x60 DUP4 ADD DUP5 PUSH2 0x8DF JUMP JUMPDEST SWAP6 SWAP5 POP POP POP POP POP JUMP JUMPDEST PUSH0 PUSH1 0x40 DUP3 ADD SWAP1 POP DUP2 DUP2 SUB PUSH0 DUP4 ADD MSTORE PUSH2 0x957 DUP2 DUP6 PUSH2 0x88D JUMP JUMPDEST SWAP1 POP DUP2 DUP2 SUB PUSH1 0x20 DUP4 ADD MSTORE PUSH2 0x96B DUP2 DUP5 PUSH2 0x88D JUMP JUMPDEST SWAP1 POP SWAP4 SWAP3 POP POP POP JUMP JUMPDEST PUSH0 DUP1 REVERT JUMPDEST PUSH0 DUP1 REVERT JUMPDEST PUSH32 0x4E487B7100000000000000000000000000000000000000000000000000000000 PUSH0 MSTORE PUSH1 0x41 PUSH1 0x4 MSTORE PUSH1 0x24 PUSH0 REVERT JUMPDEST PUSH2 0x9B2 DUP3 PUSH2 0x87D JUMP JUMPDEST DUP2 ADD DUP2 DUP2 LT PUSH8 0xFFFFFFFFFFFFFFFF DUP3 GT OR ISZERO PUSH2 0x9D1 JUMPI PUSH2 0x9D0 PUSH2 0x97C JUMP JUMPDEST JUMPDEST DUP1 PUSH1 0x40 MSTORE POP POP POP JUMP JUMPDEST PUSH0 PUSH2 0x9E3 PUSH2 0x7E6 JUMP JUMPDEST SWAP1 POP PUSH2 0x9EF DUP3 DUP3 PUSH2 0x9A9 JUMP JUMPDEST SWAP2 SWAP1 POP JUMP JUMPDEST PUSH0 PUSH8 0xFFFFFFFFFFFFFFFF DUP3 GT ISZERO PUSH2 0xA0E JUMPI PUSH2 0xA0D PUSH2 0x97C JUMP JUMPDEST JUMPDEST PUSH2 0xA17 DUP3 PUSH2 0x87D JUMP JUMPDEST SWAP1 POP PUSH1 0x20 DUP2 ADD SWAP1 POP SWAP2 SWAP1 POP JUMP JUMPDEST DUP3 DUP2 DUP4 CALLDATACOPY PUSH0 DUP4 DUP4 ADD MSTORE POP POP POP JUMP JUMPDEST PUSH0 PUSH2 0xA44 PUSH2 0xA3F DUP5 PUSH2 0x9F4 JUMP JUMPDEST PUSH2 0x9DA JUMP JUMPDEST SWAP1 POP DUP3 DUP2 MSTORE PUSH1 0x20 DUP2 ADD DUP5 DUP5 DUP5 ADD GT ISZERO PUSH2 0xA60 JUMPI PUSH2 0xA5F PUSH2 0x978 JUMP JUMPDEST JUMPDEST PUSH2 0xA6B DUP5 DUP3 DUP6 PUSH2 0xA24 JUMP JUMPDEST POP SWAP4 SWAP3 POP POP POP JUMP JUMPDEST PUSH0 DUP3 PUSH1 0x1F DUP4 ADD SLT PUSH2 0xA87 JUMPI PUSH2 0xA86 PUSH2 0x974 JUMP JUMPDEST JUMPDEST DUP2 CALLDATALOAD PUSH2 0xA97 DUP5 DUP3 PUSH1 0x20 DUP7 ADD PUSH2 0xA32 JUMP JUMPDEST SWAP2 POP POP SWAP3 SWAP2 POP POP JUMP JUMPDEST PUSH2 0xAA9 DUP2 PUSH2 0x8D4 JUMP JUMPDEST DUP2 EQ PUSH2 0xAB3 JUMPI PUSH0 DUP1 REVERT JUMPDEST POP JUMP JUMPDEST PUSH0 DUP2 CALLDATALOAD SWAP1 POP PUSH2 0xAC4 DUP2 PUSH2 0xAA0 JUMP JUMPDEST SWAP3 SWAP2 POP POP JUMP JUMPDEST PUSH0 DUP1 PUSH0 DUP1 PUSH1 0x80 DUP6 DUP8 SUB SLT ISZERO PUSH2 0xAE2 JUMPI PUSH2 0xAE1 PUSH2 0x7EF JUMP JUMPDEST JUMPDEST PUSH0 DUP6 ADD CALLDATALOAD PUSH8 0xFFFFFFFFFFFFFFFF DUP2 GT ISZERO PUSH2 0xAFF JUMPI PUSH2 0xAFE PUSH2 0x7F3 JUMP JUMPDEST JUMPDEST PUSH2 0xB0B DUP8 DUP3 DUP9 ADD PUSH2 0xA73 JUMP JUMPDEST SWAP5 POP POP PUSH1 0x20 DUP6 ADD CALLDATALOAD PUSH8 0xFFFFFFFFFFFFFFFF DUP2 GT ISZERO PUSH2 0xB2C JUMPI PUSH2 0xB2B PUSH2 0x7F3 JUMP JUMPDEST JUMPDEST PUSH2 0xB38 DUP8 DUP3 DUP9 ADD PUSH2 0xA73 JUMP JUMPDEST SWAP4 POP POP PUSH1 0x40 PUSH2 0xB49 DUP8 DUP3 DUP9 ADD PUSH2 0x816 JUMP JUMPDEST SWAP3 POP POP PUSH1 0x60 PUSH2 0xB5A DUP8 DUP3 DUP9 ADD PUSH2 0xAB6 JUMP JUMPDEST SWAP2 POP POP SWAP3 SWAP6 SWAP2 SWAP5 POP SWAP3 POP JUMP JUMPDEST PUSH32 0x4E487B7100000000000000000000000000000000000000000000000000000000 PUSH0 MSTORE PUSH1 0x32 PUSH1 0x4 MSTORE PUSH1 0x24 PUSH0 REVERT JUMPDEST PUSH32 0x4E487B7100000000000000000000000000000000000000000000000000000000 PUSH0 MSTORE PUSH1 0x22 PUSH1 0x4 MSTORE PUSH1 0x24 PUSH0 REVERT JUMPDEST PUSH0 PUSH1 0x2 DUP3 DIV SWAP1 POP PUSH1 0x1 DUP3 AND DUP1 PUSH2 0xBD7 JUMPI PUSH1 0x7F DUP3 AND SWAP2 POP JUMPDEST PUSH1 0x20 DUP3 LT DUP2 SUB PUSH2 0xBEA JUMPI PUSH2 0xBE9 PUSH2 0xB93 JUMP JUMPDEST JUMPDEST POP SWAP2 SWAP1 POP JUMP JUMPDEST PUSH0 DUP2 SWAP1 POP DUP2 PUSH0 MSTORE PUSH1 0x20 PUSH0 KECCAK256 SWAP1 POP SWAP2 SWAP1 POP JUMP JUMPDEST PUSH0 PUSH1 0x20 PUSH1 0x1F DUP4 ADD DIV SWAP1 POP SWAP2 SWAP1 POP JUMP JUMPDEST PUSH0 DUP3 DUP3 SHL SWAP1 POP SWAP3 SWAP2 POP POP JUMP JUMPDEST PUSH0 PUSH1 0x8 DUP4 MUL PUSH2 0xC4C PUSH32 0xFFFFFFFFFFFFFFFFFFFFFFFFFFFFFFFFFFFFFFFFFFFFFFFFFFFFFFFFFFFFFFFF DUP3 PUSH2 0xC11 JUMP JUMPDEST PUSH2 0xC56 DUP7 DUP4 PUSH2 0xC11 JUMP JUMPDEST SWAP6 POP DUP1 NOT DUP5 AND SWAP4 POP DUP1 DUP7 AND DUP5 OR SWAP3 POP POP POP SWAP4 SWAP3 POP POP POP JUMP JUMPDEST PUSH0 DUP2 SWAP1 POP SWAP2 SWAP1 POP JUMP JUMPDEST PUSH0 PUSH2 0xC91 PUSH2 0xC8C PUSH2 0xC87 DUP5 PUSH2 0x7F7 JUMP JUMPDEST PUSH2 0xC6E JUMP JUMPDEST PUSH2 0x7F7 JUMP JUMPDEST SWAP1 POP SWAP2 SWAP1 POP JUMP JUMPDEST PUSH0 DUP2 SWAP1 POP SWAP2 SWAP1 POP JUMP JUMPDEST PUSH2 0xCAA DUP4 PUSH2 0xC77 JUMP JUMPDEST PUSH2 0xCBE PUSH2 0xCB6 DUP3 PUSH2 0xC98 JUMP JUMPDEST DUP5 DUP5 SLOAD PUSH2 0xC1D JUMP JUMPDEST DUP3 SSTORE POP POP POP POP JUMP JUMPDEST PUSH0 SWAP1 JUMP JUMPDEST PUSH2 0xCD2 PUSH2 0xCC6 JUMP JUMPDEST PUSH2 0xCDD DUP2 DUP5 DUP5 PUSH2 0xCA1 JUMP JUMPDEST POP POP POP JUMP JUMPDEST JUMPDEST DUP2 DUP2 LT ISZERO PUSH2 0xD00 JUMPI PUSH2 0xCF5 PUSH0 DUP3 PUSH2 0xCCA JUMP JUMPDEST PUSH1 0x1 DUP2 ADD SWAP1 POP PUSH2 0xCE3 JUMP JUMPDEST POP POP JUMP JUMPDEST PUSH1 0x1F DUP3 GT ISZERO PUSH2 0xD45 JUMPI PUSH2 0xD16 DUP2 PUSH2 0xBF0 JUMP JUMPDEST PUSH2 0xD1F DUP5 PUSH2 0xC02 JUMP JUMPDEST DUP2 ADD PUSH1 0x20 DUP6 LT ISZERO PUSH2 0xD2E JUMPI DUP2 SWAP1 POP JUMPDEST PUSH2 0xD42 PUSH2 0xD3A DUP6 PUSH2 0xC02 JUMP JUMPDEST DUP4 ADD DUP3 PUSH2 0xCE2 JUMP JUMPDEST POP POP JUMPDEST POP POP POP JUMP JUMPDEST PUSH0 DUP3 DUP3 SHR SWAP1 POP SWAP3 SWAP2 POP POP JUMP JUMPDEST PUSH0 PUSH2 0xD65 PUSH0 NOT DUP5 PUSH1 0x8 MUL PUSH2 0xD4A JUMP JUMPDEST NOT DUP1 DUP4 AND SWAP2 POP POP SWAP3 SWAP2 POP POP JUMP JUMPDEST PUSH0 PUSH2 0xD7D DUP4 DUP4 PUSH2 0xD56 JUMP JUMPDEST SWAP2 POP DUP3 PUSH1 0x2 MUL DUP3 OR SWAP1 POP SWAP3 SWAP2 POP POP JUMP JUMPDEST PUSH2 0xD96 DUP3 PUSH2 0x855 JUMP JUMPDEST PUSH8 0xFFFFFFFFFFFFFFFF DUP2 GT ISZERO PUSH2 0xDAF JUMPI PUSH2 0xDAE PUSH2 0x97C JUMP JUMPDEST JUMPDEST PUSH2 0xDB9 DUP3 SLOAD PUSH2 0xBC0 JUMP JUMPDEST PUSH2 0xDC4 DUP3 DUP3 DUP6 PUSH2 0xD04 JUMP JUMPDEST PUSH0 PUSH1 0x20 SWAP1 POP PUSH1 0x1F DUP4 GT PUSH1 0x1 DUP2 EQ PUSH2 0xDF5 JUMPI PUSH0 DUP5 ISZERO PUSH2 0xDE3 JUMPI DUP3 DUP8 ADD MLOAD SWAP1 POP JUMPDEST PUSH2 0xDED DUP6 DUP3 PUSH2 0xD72 JUMP JUMPDEST DUP7 SSTORE POP PUSH2 0xE54 JUMP JUMPDEST PUSH1 0x1F NOT DUP5 AND PUSH2 0xE03 DUP7 PUSH2 0xBF0 JUMP JUMPDEST PUSH0 JUMPDEST DUP3 DUP2 LT ISZERO PUSH2 0xE2A JUMPI DUP5 DUP10 ADD MLOAD DUP3 SSTORE PUSH1 0x1 DUP3 ADD SWAP2 POP PUSH1 0x20 DUP6 ADD SWAP5 POP PUSH1 0x20 DUP2 ADD SWAP1 POP PUSH2 0xE05 JUMP JUMPDEST DUP7 DUP4 LT ISZERO PUSH2 0xE47 JUMPI DUP5 DUP10 ADD MLOAD PUSH2 0xE43 PUSH1 0x1F DUP10 AND DUP3 PUSH2 0xD56 JUMP JUMPDEST DUP4 SSTORE POP JUMPDEST PUSH1 0x1 PUSH1 0x2 DUP9 MUL ADD DUP9 SSTORE POP POP POP JUMPDEST POP POP POP POP POP POP JUMP INVALID LOG2 PUSH5 0x6970667358 0x22 SLT KECCAK256 PUSH9 0xD8839122BB5C8EDA95 MULMOD SHR SWAP14 DUP4 CALL MOD 0xEB 0x25 TSTORE 0xD SMOD 0xBC 0xB4 0xF9 SHL 0xD4 LOG4 0xDF NOT SWAP6 SWAP2 PUSH27 0x64736F6C634300081A003300000000000000000000000000000000 "
				},
				"gasEstimates": {
					"creation": {
						"codeDepositCost": "746000",
						"executionCost": "infinite",
						"totalCost": "infinite"
					},
					"external": {
						"addBook()": "infinite",
						"buku3(uint256)": "infinite",
						"infoBook(uint256)": "infinite",
						"newBook(string,string,uint256,bool)": "infinite",
						"showBook()": "infinite",
						"showBook2()": "infinite"
					}
				},
				"methodIdentifiers": {
					"addBook()": "e953d0af",
					"buku3(uint256)": "ea625179",
					"infoBook(uint256)": "2fffc71c",
					"newBook(string,string,uint256,bool)": "f5974f83",
					"showBook()": "9cae3932",
					"showBook2()": "d5c45311"
				}
			},
			"storageLayout": {
				"storage": [
					{
						"astId": 13,
						"contract": "contracts/Struct.sol:Structure",
						"label": "buku1",
						"offset": 0,
						"slot": "0",
						"type": "t_struct(Book)10_storage"
					},
					{
						"astId": 57,
						"contract": "contracts/Struct.sol:Structure",
						"label": "buku2",
						"offset": 0,
						"slot": "4",
						"type": "t_struct(Book)10_storage"
					},
					{
						"astId": 75,
						"contract": "contracts/Struct.sol:Structure",
						"label": "buku3",
						"offset": 0,
						"slot": "8",
						"type": "t_array(t_struct(Book)10_storage)dyn_storage"
					}
				],
				"types": {
					"t_array(t_struct(Book)10_storage)dyn_storage": {
						"base": "t_struct(Book)10_storage",
						"encoding": "dynamic_array",
						"label": "struct Structure.Book[]",
						"numberOfBytes": "32"
					},
					"t_bool": {
						"encoding": "inplace",
						"label": "bool",
						"numberOfBytes": "1"
					},
					"t_string_storage": {
						"encoding": "bytes",
						"label": "string",
						"numberOfBytes": "32"
					},
					"t_struct(Book)10_storage": {
						"encoding": "inplace",
						"label": "struct Structure.Book",
						"members": [
							{
								"astId": 3,
								"contract": "contracts/Struct.sol:Structure",
								"label": "title",
								"offset": 0,
								"slot": "0",
								"type": "t_string_storage"
							},
							{
								"astId": 5,
								"contract": "contracts/Struct.sol:Structure",
								"label": "author",
								"offset": 0,
								"slot": "1",
								"type": "t_string_storage"
							},
							{
								"astId": 7,
								"contract": "contracts/Struct.sol:Structure",
								"label": "id",
								"offset": 0,
								"slot": "2",
								"type": "t_uint256"
							},
							{
								"astId": 9,
								"contract": "contracts/Struct.sol:Structure",
								"label": "isReady",
								"offset": 0,
								"slot": "3",
								"type": "t_bool"
							}
						],
						"numberOfBytes": "128"
					},
					"t_uint256": {
						"encoding": "inplace",
						"label": "uint256",
						"numberOfBytes": "32"
					}
				}
			},
			"userdoc": {
				"kind": "user",
				"methods": {},
				"version": 1
			}
		}
	}
}