{
	"data": {
		"bytecode": {
			"linkReferences": {},
			"object": "6080604052348015600e575f80fd5b50606a80601a5f395ff3fe6080604052348015600e575f80fd5b50600436106026575f3560e01c80631450c1ea14602a575b5f80fd5b60306032565b005b56fea26469706673582212205acdc9e5f68dc6710126d063787ab933bee2f5525d4d4c0d1ba7cfac61ce684e64736f6c634300081a0033",
			"opcodes": "PUSH1 0x80 PUSH1 0x40 MSTORE CALLVALUE DUP1 ISZERO PUSH1 0xE JUMPI PUSH0 DUP1 REVERT JUMPDEST POP PUSH1 0x6A DUP1 PUSH1 0x1A PUSH0 CODECOPY PUSH0 RETURN INVALID PUSH1 0x80 PUSH1 0x40 MSTORE CALLVALUE DUP1 ISZERO PUSH1 0xE JUMPI PUSH0 DUP1 REVERT JUMPDEST POP PUSH1 0x4 CALLDATASIZE LT PUSH1 0x26 JUMPI PUSH0 CALLDATALOAD PUSH1 0xE0 SHR DUP1 PUSH4 0x1450C1EA EQ PUSH1 0x2A JUMPI JUMPDEST PUSH0 DUP1 REVERT JUMPDEST PUSH1 0x30 PUSH1 0x32 JUMP JUMPDEST STOP JUMPDEST JUMP INVALID LOG2 PUSH5 0x6970667358 0x22 SLT KECCAK256 GAS 0xCD 0xC9 0xE5 0xF6 DUP14 0xC6 PUSH18 0x126D063787AB933BEE2F5525D4D4C0D1BA7 0xCF 0xAC PUSH2 0xCE68 0x4E PUSH5 0x736F6C6343 STOP ADDMOD BYTE STOP CALLER "
		},
		"gasEstimates": {
			"creation": {
				"codeDepositCost": "21200",
				"executionCost": "73",
				"totalCost": "21273"
			},
			"external": {
				"iniFungsi()": "121"
			}
		},
		"methodIdentifiers": {
			"iniFungsi()": "1450c1ea"
		}
	},
	"abi": [
		{
			"inputs": [],
			"name": "iniFungsi",
			"outputs": [],
			"stateMutability": "nonpayable",
			"type": "function"
		}
	]
}